:020000040800F2
:10000000000005204D1B0008991B0008991B0008E3
:10001000991B0008991B0008991B000800000000AC
:100020000000000000000000000000006105000862
:10003000991B000800000000010600086506000882
:10004000991B0008991B0008991B0008991B0008C0
:10005000991B0008991B0008991B0008991B0008B0
:10006000991B0008991B0008991B0008991B0008A0
:10007000991B0008991B0008991B0008991B000890
:10008000991B0008991B0008991B0008991B000880
:10009000991B0008991B0008991B0008991B000870
:1000A000991B0008991B0008991B0008991B000860
:1000B000991B0008991B0008991B0008991B000850
:1000C000991B0008991B0008991B0008991B000840
:1000D000991B0008991B0008991B0008991B000830
:1000E000991B0008991B0008991B0008991B000820
:1000F000991B0008991B0008991B0008991B000810
:10010000991B0008991B0008991B0008991B0008FF
:10011000991B0008991B0008991B0008991B0008EF
:10012000991B0008991B0008991B0008991B0008DF
:10013000991B0008991B0008991B0008991B0008CF
:10014000991B0008991B0008991B0008991B0008BF
:10015000991B0008991B0008991B0008991B0008AF
:10016000991B0008991B0008991B0008991B00089F
:10017000991B0008991B0008991B0008000000004B
:10018000991B0008991B0008991B0008991B00087F
:10019000991B0008991B0008991B0008991B00086F
:1001A000991B0008991B0008991B0008991B00085F
:1001B000991B0008991B0008991B0008991B00084F
:1001C000991B0008991B0008044B05481B1A062BB5
:1001D00002D9044B03B11847704700BF83020020C7
:1001E000800200200000000005490648091A891015
:1001F00001EBD171491002D0034B03B1184770478E
:1002000080020020800200200000000010B5064C93
:10021000237843B9FFF7D8FF044B13B10448AFF379
:1002200000800123237010BD800200200000000028
:10023000F489000808B5084B1BB108490848AFF31A
:1002400000800848036813B9BDE80840CCE7064BB6
:10025000002BF9D09847F7E7000000008402002047
:10026000F48900087C02002000000000154B002BE0
:1002700008BF134B9D46A3F5803A00218B460F46DD
:100280001348144A121A03F0E1FC0F4B002B00D064
:1002900098470E4B002B00D0984700200021040007
:1002A0000D000D48002802D00C48AFF3008003F089
:1002B000DBFB2000290003F0FFF903F033FA00BF55
:1002C0000000080000000520000000000000000001
:1002D00080020020642E00200000000000000000CA
:1002E0000F4B10B51A68824201D21346FAE75968DB
:1002F0005C18A04201BF406809181846596041685F
:100300004418A24207D1074C2468A2421FBF546878
:100310001268091941609842026018BF186010BD48
:10032000A4020020A00200202DE9F041044600F0C4
:100330009DFD4249424D0B680BBB424A5607424E57
:100340001BBFD01D02F520534FF4205320F00700AF
:100350001CBF02461B1A0020134432607060083B29
:1003600023F0070318605860981A0B601360374B2E
:1003700050601860364B18604FF000432B602F68B8
:10038000274247D1002C46D004F1080358071CBF70
:1003900023F007030833002B3AD02D4A1668904605
:1003A000B34237D8284A15686868834203D8096879
:1003B0008D4206D12EE02C68002CF8D02A46254626
:1003C000F2E7296814681160C21A102A11D9E818D6
:1003D00041070AD04FF0500372B683F31188BFF380
:1003E0006F8FBFF34F8F62B6FEE742606B60FFF71F
:1003F00077FF6B6808341549F21A1F430868002319
:10040000C8F8002082426F602B6038BF0A6002E0AB
:100410001C4600E0002400F0D1FD63070AD04FF035
:10042000500372B683F31188BFF36F8FBFF34F8F02
:1004300062B6FEE72046BDE8F08100BFA0020020C2
:10044000AC2A0020AC020020A4020020B02A002028
:100450009C02002010B50446002832D0194A50F8FA
:10046000043C126813420AD14FF0500372B683F372
:100470001188BFF36F8FBFF34F8F62B6FEE750F85E
:10048000081C51B14FF0500372B683F31188BFF3CB
:100490006F8FBFF34F8F62B6FEE723EA020340F887
:1004A000043C00F0E3FC084A54F8041CA4F10800E2
:1004B00013680B441360FFF713FFBDE8104000F012
:1004C0007DBD10BDAC2A00209C0200200C4B1B6897
:1004D00001330AD04FF0500372B683F31188BFF393
:1004E0006F8FBFF34F8F62B6FEE74FF0500372B6C7
:1004F00083F31188BFF36F8FBFF34F8F62B6FEE7B0
:10050000C801002006480068006880F3088862B6C9
:1005100061B6BFF34F8FBFF36F8F00DF00BF0000E6
:1005200008ED00E0DFF80C00016841F470010160A3
:100530007047000088ED00E04FF0807321F001016A
:1005400040F8202C44380364034BC16383636FF08D
:1005500002030362704700BFCD04000800000000E2
:10056000074B19680868B0E8F04F80F30988BFF3BB
:100570006F8F4FF0000080F311887047AFF3008059
:100580009C2B00204FF0500372B683F31188BFF309
:100590006F8FBFF34F8F62B60B4A13680133012B85
:1005A00013600FD1094B1B6813F0FF0F0AD04FF0F7
:1005B000500372B683F31188BFF36F8FBFF34F8F71
:1005C00062B6FEE7704700BFC801002004ED00E0FE
:1005D000094A136853B94FF0500372B683F3118878
:1005E000BFF36F8FBFF34F8F62B6FEE7013B13601F
:1005F0000BB983F311887047C80100200000000088
:10060000EFF30980BFF36F8F154B1A681EF0100FC0
:1006100008BF20ED108A20E9F04F10604DF8043D2E
:100620004FF0500072B680F31188BFF34F8FBFF3C5
:100630006F8F62B600F078FD4FF0000080F31188F4
:1006400008BC19680868B0E8F04F1EF0100F08BF2A
:10065000B0EC108A80F30988BFF36F8F704700BF3A
:100660009C2B002008B54FF0500372B683F311881D
:10067000BFF36F8FBFF34F8F62B600F005FC18B168
:100680004FF08052024B1A60002383F3118808BD9B
:1006900004ED00E0064B4FF47A721B68B3FBF2F3F3
:1006A000044A013B13600722034B1A60704700BFE6
:1006B000CC01002014E000E010E000E0234B13B573
:1006C0001A780021D2B20192FF221A701B78204AB8
:1006D000DBB28DF803309DF8033003F05003137044
:1006E00007221C4B1A609DF80300541E000608D513
:1006F0009DF8032001215200D2B28DF8032022463A
:10070000F1E701B11A601A68120202F4E0621A609D
:10071000019B0E4ADBB213700F4B1A6842F4700251
:100720001A601A6842F070421A60FFF7B3FF0022A5
:100730000A4B1A60FFF7F6FE094A136843F040437C
:100740001360FFF7DFFEFFF7C1FE00BF00E400E02B
:10075000B42A0020B82A002020ED00E0C8010020C3
:1007600034EF00E0EFF305830F2B10D9124A9B5CA6
:10077000124A12789A420AD94FF0500372B683F3A4
:100780001188BFF36F8FBFF34F8F62B6FEE70C4B3C
:100790000C4A1B68126803F4E06393420AD94FF0D5
:1007A000500372B683F31188BFF36F8FBFF34F8F7F
:1007B00062B6FEE7704700BFF0E300E0B42A002015
:1007C0000CED00E0B82A0020F8B50F4CFFF7DAFE78
:1007D0002568ADB90D4F0E4E384601F074F930461C
:1007E00001F071F90B4B2A460C211F600A200A4BBD
:1007F0001E6000F027FF206010B1084901F02CF9BD
:10080000BDE8F840FFF7E4BEEC2A0020C02A002033
:10081000D42A0020BC2A0020F02A002040850008AD
:10082000914208B54160006106D8D21A83699A42A4
:100830000DD2011D074B05E09A4201D2994206D222
:10084000011D054B186801F058F9002008BD012072
:1008500008BD00BFF02A0020BC2A002007B5FFF722
:10086000B3FF0E4B1B685BB10D4B4FF482720D4909
:10087000019302230C480093002300F0DDF950B9E6
:100880004FF0500372B683F31188BFF36F8FBFF33D
:100890004F8F62B6FEE703B05DF804FBEC2A002040
:1008A000F42A0020458500089109000830B5154656
:1008B00085B01A46034650B94FF0500372B683F321
:1008C0001188BFF36F8FBFF34F8F62B6FEE70D4CF9
:1008D0002068A0B105290191029503930BDC00F07B
:1008E00033FD0023022801A920680CBF089A1A468C
:1008F00000F0CEFE03E0002301A900F083FF05B065
:1009000030BD00BFEC2A00202DE9F7431E4E4FF00A
:100910000008374633681A686AB3DB68DC681D680C
:1009200004F10409484601F000F9636A204698473B
:10093000E369012BEED1A3692B449D4206D263608B
:1009400049462461386801F0D8F8E3E70023CDF880
:1009500000802A4620461946FFF7A8FF0028D9D173
:100960004FF0500372B683F31188BFF36F8FBFF35C
:100970004F8F62B6FEE7054A0349106813600860AE
:1009800003B0BDE8F08300BFBC2A0020F02A00209D
:100990002DE9F04F704D89B0DFF8CC812F462B68E0
:1009A000D3F800B0BBF1000F03D0DB68D3F80090A0
:1009B00000E0D94600F05AFA00F060FA674B824630
:1009C0001A681E46904205D203930124FFF79CFF4C
:1009D000039B00E00024C3F800A0002C4ED1BBF123
:1009E000000F30D0CA4535D300F0E8FA3B68DB6829
:1009F000D3F80CB00BF1040001F097F8DBF81C30D1
:100A0000012B1BD1DBF818104B465246584649447F
:100A1000FFF706FF90B1009423464A462146584608
:100A2000FFF744FF50B94FF0500372B683F31188BB
:100A3000BFF36F8FBFF34F8F62B6FEE7DBF8243052
:100A4000584698474CE0464B1B681A68B2FA82F247
:100A5000520900E02246434BCAEB0901186801F035
:100A60000FF800F0ABFA00283AD14FF08053C8F8E5
:100A70000030BFF34F8FBFF36F8F31E000F09EFA6D
:100A80002EE0002305A9D9F800001A4600F022FF45
:100A9000002884D0059B002BF3DB079C636913B10E
:100AA000201D01F042F800F0E9F9336883469842CE
:100AB00001D2FFF729FF059AC6F800B0092AE0D84D
:100AC0000123934013F4047A30D113F0C70F0AD0F6
:100AD000A1695A46069B20461944FFF7A1FE40B97A
:100AE000DFF88090CDE79B06CBD52046FFF7B2FC20
:100AF000F6E7636A20469847E369012BF0D1A269C3
:100B0000534606992046CDF800A00A445146FFF707
:100B1000CDFE0028E4D14FF0500372B683F3118864
:100B2000BFF36F8FBFF34F8F62B6FEE70699A161E7
:100B300051B94FF0500372B683F31188BFF36F8F32
:100B4000BFF34F8F62B6FEE75B465A4659442046D4
:100B5000FFF766FEC4E700BFBC2A0020E82A002099
:100B6000F02A0020EC2A002004ED00E0064A136879
:100B70001968064B11B94FF0FF3203E01268D268D2
:100B8000D26852681A607047FC2A0020A02B00200F
:100B9000F8B51C4B04461C4D0F461E6828680430EF
:100BA00000F0C3FF2B4640B92A68184DD16A0122D4
:100BB00028688A4020EA02022A60621C07D137B105
:100BC000196813480431BDE8F84000F08ABF344486
:100BD0001B680D4AA6425C6007D90E4B1868116865
:100BE000BDE8F840043100F088BF0B4B186811686D
:100BF000043100F082FF094B1A68944200D21C6055
:100C0000F8BD00BFA42B00209C2B0020F42B00205B
:100C1000E02B0020A82B0020FC2A0020A02B002085
:100C20004FF0500372B683F31188BFF36F8FBFF399
:100C30004F8F62B6FEE700002DE9F84F9500804621
:100C40000F46994628460B9EFFF76EFB824600280A
:100C500000F0A8805820FFF767FB044688B1C0F871
:100C600030A02A465046A52102F0F0FFA5F1040A63
:100C7000256B7B1E04F133020937AA442AF0070AC8
:100C800005E05046FFF7E6FB8CE09F4206D013F8E4
:100C9000011F02F8011F19780029F6D10A9D4FF0B3
:100CA000000B271D042D84F83DB03846C4F84CB025
:100CB00028BF0425E562A564C5F1050500F00EFF17
:100CC00004F1180000F00AFFC4F850B024614A464D
:100CD000A56141466462504684F854B0FFF72CFC8D
:100CE000206006B13460FFF74DFC304B304E1A687F
:100CF000DFF8E88001321A60356815BB34601B6884
:100D0000012B27D108EB0500143500F0DCFE642D23
:100D1000F8D1DFF8CC90274D484600F0D4FE2846A5
:100D200000F0D1FE244800F0CEFE244800F0CBFEB7
:100D3000234800F0C8FE234BC3F80090224B1D60EF
:100D400008E0224B1B682BB93368DA6AE36A9A42DF
:100D500000D834601E4A01251E4913680133136010
:100D6000E26A236405FA02F00B68034314200B6067
:100D7000394600FB028000F0B4FEFFF729FC134B5C
:100D80001B6863B13368DA6AE36A9A4207D24FF0AC
:100D90008052114B1A60BFF34F8FBFF36F8F2846FD
:100DA000BDE8F88F4FF0FF30BDE8F88FC42B00206E
:100DB0009C2B0020C82B0020AC2B0020842B002073
:100DC000E02B0020FC2A0020A82B0020002B002074
:100DD000C02B0020F42B002004ED00E0202B00208D
:100DE000082B002013B51B4B002482221A490193C3
:100DF000234600941948FFF71FFF01281AD1FFF777
:100E00002DFD012816D14FF0500372B683F31188DF
:100E1000BFF36F8FBFF34F8F62B64FF0FF32104BAF
:100E20001A60104B1860104B1C6002B0BDE81040F7
:100E3000FFF744BC01300AD14FF0500372B683F380
:100E40001188BFF36F8FBFF34F8F62B6FEE702B01A
:100E500010BD00BFDC2B00204D850008B11000083C
:100E6000A02B0020002B0020A42B0020024A136896
:100E700001331360704700BF042B0020014B18683A
:100E8000704700BFA42B0020414B1B682DE9F74F92
:100E9000002B3DD13F4B1C6801341C60CCB93E4B4C
:100EA0001A68126852B14FF0500372B683F311887A
:100EB000BFF36F8FBFF34F8F62B6FEE7374A1968F3
:100EC000106818601160364A136801331360FFF729
:100ED0004DFE344D4FF0000B334E2B6801959C4274
:100EE000324F0BD3DFF8B080DFF8CC90D8F8002079
:100EF0001268A2B94FF0FF32019B1A603A68D16ABA
:100F000014224A43B258022A28BF4FF0010B34E0A2
:100F1000274A4FF0000B1368013313602DE0D8F817
:100F20000020D268D56869688C4202D2019B1960A2
:100F3000E4E705F1040A504600F0F7FDA96A19B18B
:100F400005F1180000F0F1FDE86A0123D9F800105E
:100F500003FA00FE4EEA01014FF0140EC9F800102A
:100F600051460EFB006000F0BCFD3868E96AC26AB9
:100F7000914228BF4FF0010BB8E70E4A1268002AD1
:100F800018BF4FF0010B584603B0BDE8F08F00BF0B
:100F9000042B0020A42B0020FC2A0020A82B0020DA
:100FA000F82A0020A02B0020202B00209C2B0020C2
:100FB0001C2B0020F82B0020F42B00202DE9F843F7
:100FC000324C236853B94FF0500372B683F3118843
:100FD000BFF36F8FBFF34F8F62B6FEE7FFF7D2FA12
:100FE0002368013B236024680CB1002449E0284BAE
:100FF0001B68002BF9D0DFF8B090264FDFF8AC80EB
:10100000D9F8003003B3D9F80C300125DC68261D6F
:1010100004F1180000F089FD304600F086FDE26A18
:101020003B68142005FA02F100FB02800B433146B5
:101030003B6000F056FD184BE26A1B68DB6A9A427F
:10104000DED3164B1D60DBE70CB1FFF78FFD144BB1
:101050001C681D4644B1114E0127FFF715FF00B172
:101060003760013CF9D12C600C4B1B68002BBCD0C5
:101070004FF080520B4B1A60BFF34F8FBFF36F8F4F
:101080000124FFF7A5FA2046BDE8F883042B0020D1
:10109000C42B0020F42B00209C2B0020F82B0020D8
:1010A0001C2B002004ED00E0AC2B0020202B0020A6
:1010B000184D2E4680B5184F2B68F3B1FFF7D6FEBA
:1010C0003C68FFF77BFF002CF6D0FFF75BFA124B72
:1010D000DB68DC68201D00F028FD104A1368013B26
:1010E00013603368013B3360FFF772FA206BFFF740
:1010F000B1F92046FFF7AEF9DEE7094B1B68012B7B
:10110000D9D94FF08052074B1A60BFF34F8FBFF30E
:101110006F8FD0E7982B0020842B0020C42B002059
:10112000202B002004ED00E0184B1A68184B10B576
:101130000AB1012227E01A60164B1B68B3FA83F349
:10114000DBB214221449C3F11F035A438C58881888
:1011500054B94FF0500372B683F31188BFF36F8F09
:10116000BFF34F8F62B6FEE74468083264680A44F2
:101170009442446004BF62684260142202FB03137D
:101180005B68DA68054B1A6010BD00BF042B0020B5
:10119000F82B0020F42B0020202B00209C2B00207B
:1011A00010B50C4650B94FF0500372B683F3118856
:1011B000BFF36F8FBFF34F8F62B6FEE7054B196821
:1011C000183100F09AFC20460121BDE81040FFF7DD
:1011D000DFBC00BF9C2B002038B50D46144650B92B
:1011E0004FF0500372B683F31188BFF36F8FBFF3D4
:1011F0004F8F62B6FEE7074B1968183100F071FC9B
:10120000002C21460CBF28464FF0FF30BDE8384087
:10121000FFF7BEBC9C2B0020C36870B5DC6854B9D6
:101220004FF0500372B683F31188BFF36F8FBFF393
:101230004F8F62B6FEE704F11805284600F075FCF2
:10124000114B1B6883B9261D304600F06EFC0F4918
:10125000E56A01230A681420AB4013430B60314652
:101260000B4B00FB053001E029460A4800F039FC31
:10127000094BE26A1B68DB6A9A4203D90120074BDB
:10128000186070BD002070BD042B0020F42B0020DE
:10129000202B0020AC2B00209C2B0020F82B0020C2
:1012A00008B508B9FFF7BCFC034B1B680360034B90
:1012B0001B68436008BD00BFF82A0020A42B002053
:1012C00038B50D46044650B94FF0500372B683F35B
:1012D0001188BFF36F8FBFF34F8F62B6FEE751B92E
:1012E0004FF0500372B683F31188BFF36F8FBFF3D3
:1012F0004F8F62B6FEE7FFF745F90E4B19682B6872
:101300005A1C10D00C4A206812689042626801D0C2
:1013100091420AD2881A834207D9521A20461344AE
:101320002B60FFF7BDFF002400E00124FFF750F918
:10133000204638BDA42B0020F82A00200122014BB2
:101340001A607047F82B0020054B1B6833B1054B22
:101350001B68002B0CBF0220002070470120704743
:10136000002B0020042B00202DE9F041044600282A
:1013700038D01D4DC36A2A68D26A934232D282693C
:10138000002A04DB2A68D26AC2F105028261174E84
:101390001427626907FB03639A4220D104F1040811
:1013A000404600F0C2FB124B48B9E06A4743F2598D
:1013B0002AB901221968824021EA02021A602A68C9
:1013C00001204146D26AE26290401C6820431860C6
:1013D000142000FB0260BDE8F04100F082BB2B68E6
:1013E000DB6AE362BDE8F0819C2B0020202B00200B
:1013F000F42B0020F8B5044608B90020F8BD244BB2
:101400001B6898420AD04FF0500372B683F31188DC
:10141000BFF36F8FBFF34F8F62B6FEE7C36C53B954
:101420004FF0500372B683F31188BFF36F8FBFF391
:101430004F8F62B6FEE7C16A013B826CC364914282
:10144000DBD0002BD9D1051D124E284600F06DFBD4
:10145000114A50B9E76A1421794373582BB9012313
:101460001068BB4020EA03031360A36C1068C3F14B
:101470000501E362A161012404FA03F1084329464E
:101480001060142000FB036000F02BFB2046F8BD29
:101490009C2B0020202B0020F42B0020044B1A68EA
:1014A0001AB11968CA6C0132CA641868704700BF63
:1014B0009C2B002070B51546026C0446866B32B931
:1014C00005682DBB4068FFF795FF656027E065B9AB
:1014D000806802F095FBA268236C13446268934213
:1014E000A36017D32368A36014E0C06802F088FBF0
:1014F000236CE2685B4221681A448A42E2603EBF84
:1015000062689B18E360022D06D13EB1013E03E004
:10151000104604E0284602E0002000E03046013694
:10152000A66370BD034608461A6C10B462B1D96850
:101530005C681144A142D9605DF8044B24BF19686E
:10154000D960D96802F05CBB5DF8044B704770B598
:101550000446FFF717F894F8455004F12406EDB25D
:101560006BB2002B0ADD636A43B13046FFF754FECD
:1015700008B1FFF7E3FE013DEDB2F1E7FF2304F10F
:10158000100684F84530FFF723F8FEF7FBFF94F8C8
:101590004450EDB26BB2002B0ADD236943B13046F3
:1015A000FFF73AFE08B1FFF7C9FE013DEDB2F1E7E2
:1015B000FF2384F84430BDE87040FFF709B800000D
:1015C00038B50D46044650B94FF0500372B683F358
:1015D0001188BFF36F8FBFF34F8F62B6FEE7FEF740
:1015E000D1FF206CE36B22684343A260D1181B1A21
:1015F000134461600021E360FF23A16384F8443059
:1016000084F845307DB92369ABB104F11000FFF7D0
:1016100003FE80B14FF08052094B1A60BFF34F8F29
:10162000BFF36F8F07E004F1100000F04CFA04F1F3
:10163000240000F048FAFEF7CBFF012038BD00BFC0
:1016400004ED00E0F8B50D461746064650B94FF0D8
:10165000500372B683F31188BFF36F8FBFF34F8FC0
:1016600062B6FEE748435030FEF75EFE044668B1BE
:101670000DB9206002E000F150030360E663012130
:1016800025642046FFF79CFF84F84C702046F8BD87
:101690002DE9FF47894601921F46044650B94FF095
:1016A000500372B683F31188BFF36F8FBFF34F8F70
:1016B00062B6FEE761B9036C53B14FF0500372B6E6
:1016C00083F31188BFF36F8FBFF34F8F62B6FEE7CE
:1016D000022F0DD1E36B012B0AD04FF0500372B6ED
:1016E00083F31188BFF36F8FBFF34F8F62B6FEE7AE
:1016F000FFF72AFE10B9019E0EB172E000264FF0EE
:101700000008DFF8FCA0FEF73DFFA26BE36B9A42F6
:1017100001D3022F17D13A4649462046FFF7CAFEA9
:10172000636A1BB104F12400FFF776FD38B14FF076
:101730008052334B1A60BFF34F8FBFF36F8FFEF7AA
:1017400047FF012058E0019D1DB9FEF741FF2846E3
:1017500052E016B902A8FFF7A3FDFEF739FFFFF725
:1017600085FBFEF70FFF94F84430FF2B01D184F87E
:10177000448094F84530FF2B01D184F84580FEF772
:1017800027FF01A902A8FFF79BFD18BBFEF7FAFE91
:10179000A66BE56BFEF71CFFAE4215D1019904F173
:1017A0001000FFF7FDFC2046FFF7D1FEFFF706FC17
:1017B00008B10126A7E74FF08053CAF80030BFF305
:1017C0004F8FBFF36F8FF4E72046FFF7C0FEFFF7A0
:1017D000F5FBEEE72046FFF7BAFEFFF7EFFB002030
:1017E0000AE04FF0500372B683F31188BFF36F8F96
:1017F000BFF34F8F62B6FEE704B0BDE8F08700BFCD
:1018000004ED00E02DE9F843884691461F46044662
:1018100050B94FF0500372B683F31188BFF36F8F46
:10182000BFF34F8F62B6FEE761B9036C53B14FF05F
:10183000500372B683F31188BFF36F8FBFF34F8FDE
:1018400062B6FEE7022F0DD1E36B012B0AD04FF0F9
:10185000500372B683F31188BFF36F8FBFF34F8FBE
:1018600062B6FEE7FEF77EFFEFF311864FF05003FE
:1018700072B683F31188BFF36F8FBFF34F8F62B6D9
:10188000A26BE36B9A4201D3022F1DD194F845500D
:101890003A4641462046EDB2FFF70CFEFF2D0DD132
:1018A000636A7BB104F12400FFF7B6FC50B1B9F1D3
:1018B000000F07D00120C9F8000006E00135EDB2A5
:1018C00084F84550012000E0002086F31188BDE82F
:1018D000F88300002DE9FF478846019299460446A7
:1018E00050B94FF0500372B683F31188BFF36F8F76
:1018F000BFF34F8F62B6FEE761B9036C53B14FF08F
:10190000500372B683F31188BFF36F8FBFF34F8F0D
:1019100062B6FEE7FFF718FD10B9019E0EB18AE02E
:1019200000260027DFF82CA1FEF72CFEA56B3DB3A7
:1019300041462046E668FFF7F5FDB9F1000F0BD1EF
:10194000013D2368A56313B9FFF7A8FD6060236913
:1019500093B104F1100004E0636AE66063B104F13E
:101960002400FFF759FC38B14FF08052394B1A6010
:10197000BFF34F8FBFF36F8FFEF72AFE012065E0A4
:10198000019D15B9FEF724FE53E016B902A8FFF732
:1019900087FCFEF71DFEFFF769FAFEF7F3FD94F8EA
:1019A0004430FF2B01D184F8447094F84530FF2B6C
:1019B00001D184F84570FEF70BFE01A902A8FFF7DC
:1019C0007FFC50BBFEF7DEFDA56BFEF701FEF5B90F
:1019D000236833B9FEF7D6FD6068FFF7C5FCFEF754
:1019E000F7FD019904F12400FFF7DAFB2046FFF729
:1019F000AEFDFFF7E3FA08B1012695E74FF08053FB
:101A0000CAF80030BFF34F8FBFF36F8FF4E7204663
:101A1000FFF79DFDFFF7D2FAEEE72046FFF797FDAF
:101A2000FFF7CCFAFEF7AEFDA56BFEF7D1FD002D5A
:101A3000E2D128460AE04FF0500372B683F31188D2
:101A4000BFF36F8FBFF34F8F62B6FEE704B0BDE800
:101A5000F08700BF04ED00E00023084A30B552F8DB
:101A6000335002EBC30425B9044A606042F83310D6
:101A700030BD0133082BF2D130BD00BF582D0020FE
:101A800070B504460D461646FEF77CFD94F84430CA
:101A9000FF2B02D1002384F8443094F84530FF2B0B
:101AA00002D1002384F84530FEF792FDA36B2BB9D9
:101AB0003246294604F12400FFF78EFB2046BDE89C
:101AC0007040FFF744BD00F108034FF0FF32436060
:101AD000C3600361002382600360704700230361D9
:101AE000704743689A684B608A609A685160996051
:101AF000036808610133036070470A68531C30B5FE
:101B000001D1036907E000F108035C682568AA4277
:101B100001D32346F9E75A684A6091608B605960A7
:101B2000036808610133036030BD4168826803695E
:101B30008A60826851605968884208BF5A600022F2
:101B4000026118680138186070470000DFF830D073
:101B5000002103E00B4B5B58435004310A480B4B08
:101B600042189A42F6D30A4A02E0002342F8043BA4
:101B7000084B9A42F9D301F04BF9FEF777FB704717
:101B800000000520008A0008C80100208002002013
:101B900080020020642E0020FEE77047074A0320E1
:101BA00008B5136843F40073136000F017F80F20B2
:101BB00000F0C8FFFFF7F1FF002008BD003C024025
:101BC000024A136801331360704700BFFC2B0020EA
:101BD000014B1868704700BFFC2B0020074A000229
:101BE000D36800F4E06023F4E0631B041B0C43F0B3
:101BF000BF6343F400330343D360704700ED00E05C
:101C00002DE9F04F0B6885B06F4E01930023DFF88C
:101C1000C0C1B646DFF8BC810122019C9A4032EA7D
:101C2000040440F0C9804C6824F01009B9F1020F97
:101C300014D14FEAD30A03F0070B0F2500EB8A0AF1
:101C40004FEA8B0BDAF8207005FA0BF527EA050549
:101C50000F6907FA0BF72F43CAF820704FEA430ABF
:101C60000325076804F0030B05FA0AF509F1FF39AB
:101C70000BFA0AFBED43B9F1010F07EA05074BEA3E
:101C80000707076012D8876805EA0709CF6807FACF
:101C90000AF747EA0907C4F30019876009FA03F94C
:101CA000476827EA020749EA07074760C7683D40D7
:101CB0008F6807FA0AF73D43C560E5007CD5DCF87C
:101CC000445023F0030703F0030A4FF00F0945F4D3
:101CD000804507F180474FEA8A0ACCF8445007F55F
:101CE0009C37DCF8445005F480450395039D09FAC0
:101CF0000AF5D7F808B02BEA0509344DA84224D0DC
:101D000005F58065A84222D005F58065A84220D05F
:101D100005F58065A8421ED005F58065A8421CD057
:101D200040451CD005F50065A8421AD005F5806530
:101D3000A84218D005F58065A84216D005F5806543
:101D4000A84214BF0A25092510E000250EE0012550
:101D50000CE002250AE0032508E0042506E005253D
:101D600004E0062502E0072500E0082505FA0AF54B
:101D700014F4803F45EA0905BD606FEA0207356843
:101D80000CBF3D40154314F4003FCEF80050DEF880
:101D900004500CBF3D40154314F4801F7560B568B6
:101DA0000CBF3D401543A402CEF80850DEF80C509D
:101DB00054BF3D401543F5600133102B7FF42CAF29
:101DC00005B0BDE8F08F00BF003C014000000240BC
:101DD0000038024000140240194B1A6C42F0805245
:101DE00073B51A641B6C174C03F08053254601939E
:101DF000019B236843F480332360FFF7E9FE064626
:101E00006B68104CDA0307D4FFF7E2FE801BB0F5D5
:101E10007A7FF5D9032011E0236843F4003323606F
:101E2000FFF7D6FE054663689B0306D4FFF7D0FE96
:101E3000401BB0F57A7FF6D9ECE7002002B070BD08
:101E4000003802400070004003682DE9F341DD07CF
:101E5000044603D42368980770D4C5E0A44B9A685D
:101E600002F00C02042A07D09A6802F00C02082A39
:101E70000BD15B68590208D59D4B1B689A03E9D5C5
:101E80006368002BE6D10120B6E1994D2B682E4600
:101E900023F480332B602B6823F480232B602B6882
:101EA00023F480332B60FFF793FE07463368904D91
:101EB0009B0307D5FFF78CFEC01BB0F5FA7FF5D961
:101EC000032099E12B6823F480332B606368B3F51A
:101ED000803F03D12B6823F4802305E0B3F5A02FC6
:101EE00008D12B6843F480232B602B6843F48033A4
:101EF0002B6008E02A6822F480222A602A6822F4F3
:101F000080322A606BB1FFF763FE794D06462B687D
:101F100098039FD4FFF75CFE801BB0F5FA7FF6D9DB
:101F2000CEE7FFF755FE06462B68990392D5FFF7DB
:101F30004FFE801BB0F5FA7FF6D9C1E76C4B9A686B
:101F400012F00C0F07D09A6802F00C02082A18D180
:101F50005B685A0215D4664A13689B0702D5E3688A
:101F6000012B90D11168F82393FAA3F3B3FA83F30A
:101F70002069DBB221F0F80100FA03F30B43136090
:101F800032E0E3685A4DFBB12B6843F001032B604C
:101F9000FFF71EFE06462B6855489F0705D4FFF73E
:101FA00017FE801B6428F6D98AE70268F82393FAA3
:101FB000A3F3B3FA83F32169DBB222F0F80201FA4A
:101FC00003F3134303600FE02B6823F001032B603E
:101FD000FFF7FEFD06462B68990705D5FFF7F8FDCC
:101FE000801B6428F7D96BE723681A0703D423689A
:101FF0005B0767D522E063693D4D7BB16B6F43F0B2
:1020000001036B67FFF7E4FD06466B6F9F07EED495
:10201000FFF7DEFD801B6428F7D951E76B6F23F0D3
:1020200001036B67FFF7D4FD06466B6F9807DED59B
:10203000FFF7CEFD801B6428F7D941E72C4B2D4DCF
:102040001A6C42F080521A641B6C03F080530193A7
:10205000019B2B6843F480732B60FFF7B9FD0646A4
:102060002B68D90531D5224D41F288382B6F2E4689
:1020700023F001032B672B6F23F004032B672B6FD7
:1020800023F001032B67FFF7A3FD0746336F184DBD
:102090009A0720D42B6F23F001032B67A368012B31
:1020A0001FD12B6F23F004032B672B6F43F0010329
:1020B0002B67FFF78DFD0E4D064641F288372B6FDB
:1020C0009B0723D5A269AABB7CE0FFF781FD801B9B
:1020D0006428C5D9F4E6FFF77BFDC01B4045D5D980
:1020E000EEE6052B08D12B6F43F00403DCE700BFBD
:1020F00000380240007000402A6F22F004022A6774
:102100002A6F22F001022A6733B1D2E7FFF760FDA0
:10211000801BB842D3D9D3E6FFF75AFD41F2883786
:1021200006462B6F9807CDD5FFF752FD801BB842AE
:10213000F7D9C5E6324DAB6803F00C03082B3FF42A
:10214000A2AE2B68022A23F080732B6048D1FFF7E0
:102150003FFD07462B682A4E990135D447F6C072D9
:1021600092FAA2F2B2FA82F24FF4403090FAA0F062
:10217000B0FA80F04FF0706191FAA1F1B1FA81F1FB
:10218000256AD2B2E369C9B22B43656A43F00053B2
:1021900005FA02F243EA0205A36A5B085A1EC3B2BB
:1021A00002FA03F3E26A2B4302FA01F10B43736074
:1021B000336843F080733360FFF70AFD04463368E9
:1021C0009A0107D5002017E0FFF702FDC01B642825
:1021D000C0D975E6FFF7FCFC001B6428EFD96FE659
:1021E000FFF7F6FC04462B689B01EBD5FFF7F0FCEC
:1021F000001B6428F7D963E602B0BDE8F08100BF98
:10220000003802406C4A136803F00F038B422DE93B
:10221000F04104460D4666D2136823F00F030B43CA
:102220001360136803F00F03994202D00120BDE848
:10223000F08101688F0706D56048836823F0F002BB
:10224000A36813438360CE070BD421684D0740F188
:10225000A3805A48836823F4E052E3681343836001
:102260009AE06268554B012A196802D111F4003FC7
:1022700006E0022A02D111F0007F01E011F0020F06
:10228000D4D0996841F288374C4E21F003010A43BB
:102290009A60FFF79DFC63680546012B0CD1B3687B
:1022A00003F00C03042BD0D0FFF792FC401BB84284
:1022B000F5D90320BDE8F081022B0FD1B36803F0FC
:1022C0000C03082BC1D0FFF783FC401BB842F5D9A3
:1022D000EFE7FFF77DFC401BB842EAD8B36813F084
:1022E0000C0FF6D1B1E70168880706D5334883683B
:1022F00023F0F002A36813438360CA070BD42E4A6D
:10230000136823F00F032B431360136803F00F03CC
:102310009D428BD199E76268284B012A196802D146
:1023200011F4003F06E0022A02D111F0007F01E023
:1023300011F0020F3FF47AAF996841F288381F4FCD
:1023400021F003010A439A60FFF742FC63680646E6
:10235000012B0AD1BB6803F00C03042BCFD0FFF78D
:1023600037FC801B4045F5D9A3E7022B0FD1BB6892
:1023700003F00C03082BC2D0FFF72AFC801B40455A
:10238000F5D996E7FFF724FC801B404591D8BB6840
:1023900013F00C0FF6D1B2E70B0707D5074A2169F6
:1023A000936823F4604343EAC10393600F2000F075
:1023B000C9FB0020BDE8F081003C0240003802402B
:1023C0001F498B6803F00C03042B34D0082B34D145
:1023D000486847F6C0724B6800F03F0013F4800F66
:1023E0004B6892FAA2F2B2FA82F247F6C071D2B208
:1023F00001EA030115BF21FA02F3D140114A124A42
:1024000014BFB2FBF0F0B2FBF0F00D4A0CBF00FBC2
:1024100001F343434FF44031506891FAA1F1B1FA0E
:1024200081F100F44032C8B222FA00F001304000DD
:10243000B3FBF0F07047034870470348704700BF94
:102440000038024040787D010024F40008B5FFF711
:10245000B7FF094B9A68F02393FAA3F3B3FA83F317
:1024600002F0F002DBB222FA03F3044AD35CD84054
:10247000034B186008BD00BF0038024052850008B9
:10248000CC01002008B5FFF7E1FF084B9A684FF434
:10249000E05393FAA3F3B3FA83F302F4E052DBB20E
:1024A00022FA03F3024AD35CD84008BD0038024048
:1024B0005285000808B5FFF7C9FF084B9A684FF42A
:1024C000604393FAA3F3B3FA83F302F46042DBB2FE
:1024D00022FA03F3024AD35CD84008BD0038024018
:1024E000528500080F2303600B4B9A6802F0030229
:1024F00042609A6802F0F00282609A6802F4E05248
:10250000C2609B68DB0803F4E0530361034B1B6864
:1025100003F00F030B60704700380240003C02409C
:10252000704700002E4A0368904212D0B0F1804FED
:102530000FD0A2F57C4290420BD002F5806290420F
:1025400007D002F58062904203D002F578429042B3
:1025500018D14A6823F070031343214A904237D0C0
:10256000B0F1804F34D01F4A904231D002F58062E2
:1025700090422DD002F58062904229D002F5784237
:10258000904225D0184A904222D002F580629042B3
:102590001ED002F5806290421AD0A2F59832904285
:1025A00016D002F58062904212D002F5806290420D
:1025B0000ED003608B68C3620B688362084B98423D
:1025C0000BD003F58063984207D001234361704725
:1025D00023F44073CA681343EBE70B690363F4E722
:1025E00000000140000400400040014010B50446D6
:1025F000A0B190F8393003F0FF021BB980F8382001
:10260000FFF78EFF02232068211D84F83930FFF781
:1026100089FF0123002084F8393010BD012010BD4E
:1026200001238A408B4010B5046A24EA0303036245
:10263000036A42EA0301016210BD000010B50446BE
:1026400001220068FFF7ECFF2368084A934203D099
:1026500002F58062934203D15A6C42F400425A64FC
:102660001A68002042F001021A6010BD000001400B
:10267000FFF7E4BF70472DE9F041904604460E464F
:102680001D46FFF7A5FA0746B8F1000F36D12268BC
:10269000D36936EA03030ED0691CF9D07DB1FFF788
:1026A00097FAC01B8542F2D809E06B1C06D1D369AA
:1026B00036EA0303F9D00020BDE8F081CDB92368E4
:1026C00003201A6822F080021A601A6822F02002A1
:1026D0001A601A6822F480721A609A6822F0010265
:1026E0009A60012384F86930002384F86830BDE8DB
:1026F000F081FFF76DFAC01B8542E0D92268D6E76A
:1027000038B504460568C3692269A1682868114381
:1027100062690A4342EA0301814A0240A0690A430E
:102720002A606A6822F44051E2680A43216A6A60BA
:102730000143AA6822F430620A43AA60794A9542AA
:1027400007D102F594327849D2F8902002F00302C2
:1027500009E0764A95420BD102F5FA327449D2F873
:10276000902002F00C02B3F5004F8A5C73D0AFE00A
:10277000704A95420DD102F5F832D2F8902002F05D
:102780003002102A00F082805DD9202A78D0302AC9
:102790000EE0694A95420DD102F5F632D2F890204A
:1027A00002F0C002402A71D04DD9802A68D0C02AD8
:1027B00076D080E0614A95420FD102F5F432D2F82A
:1027C000902002F44072B2F5807F5FD03BD9B2F521
:1027D000007F55D0B2F5407FEAE7594A954212D1C1
:1027E00002F59232D2F8902002F44062B2F5806F86
:1027F0004CD002D8002A3DD05DE0B2F5006F3FD04A
:10280000B2F5406FD4E74F4A95420FD102F5E0325E
:10281000D2F8902002F44052B2F5805F36D012D93F
:10282000B2F5005F2CD0B2F5405FC1E7464A954251
:1028300041D102F5DE32D2F8902002F44042B2F5E6
:10284000804F23D001D87AB135E0B2F5004F17D0D0
:10285000B2F5404FACE7082A30D8DFE802F0080EA6
:10286000142F1A2F2F2F2400B3F5004F39D1FFF763
:1028700009FE10E0B3F5004F36D1FFF71BFE0AE06A
:10288000B3F5004F33D16068304B0FE0B3F5004F24
:1028900033D1FFF795FD40006368B0FBF3F307E029
:1028A000B3F5004F31D160684FF48033B3FBF0F3E0
:1028B0009BB2002004E0B3F5004F2ED1012000238D
:1028C000C3F3420123F00F0322680B43D36038BDEA
:1028D000082A22D8DFE802F005080B211121212166
:1028E0001900FFF7CFFD0AE0FFF7E4FD07E062689B
:1028F000174BB3FBF2F39BB20CE0FFF761FD63688B
:10290000B0FBF3F080B2E86005E062684FF400438A
:10291000B3FBF2F3EB60002038BD012038BD00BFEF
:10292000F369FFEF00100140628500080044004099
:102930006685000800480040004C00400050004000
:102940000014014000780040007C00400048E8018D
:102950000024F400436ADA0710B506D504686268FB
:1029600022F40031826A0A4362609C0706D504683B
:10297000626822F48031C26A0A436260590706D550
:102980000468626822F48021026B0A4362601A07BD
:1029900006D50468626822F40041426B0A43626013
:1029A000DC0606D50468A26822F48051826B0A43D3
:1029B000A260990606D50468A26822F40051C26B91
:1029C0000A43A2605A0610D50168046C4A68B4F53F
:1029D000801F22F4801242EA04024A6005D14A684C
:1029E00022F4C004426C22434A601B0606D50168EB
:1029F0004B6823F40022836C13434B6010BD00220C
:102A0000036810B5C26604461B68190704D423681E
:102A10001B685B0714D509E06FF07E434FF400118B
:102A2000FFF729FE0028F2D0032010BD6FF07E438F
:102A300000224FF480012046FFF71DFE0028F3D14D
:102A40000123002084F8693084F8680010BD10B5B7
:102A5000044660B390F8693003F0FF021BB980F8B8
:102A60006820FFF707FE22680223204684F86930B9
:102A7000136823F001031360FFF742FE012816D00C
:102A8000636A13B12046FFF765FF236820465A6842
:102A900022F490425A609A6822F02A029A601A68D8
:102AA00042F00102BDE810401A60FFF7A8BF012004
:102AB00010BD000030B50C4CA268A4681346B4F1F8
:102AC000006F0CD1131F094C094A53F8045F42F8F8
:102AD000045FA242F9D14FF00053034A93601030D3
:102AE00043F8201030BD00BF00ED00E0C40100201D
:102AF000FCFFFF1F38B5114B1A681C46D16811F056
:102B0000020F04D06FF00203136100F0F1FC2368A0
:102B1000DA68520711D56FF00402094D1A615C6A38
:102B20002B68E31AB3F57A7F07D3FFF749F8034B15
:102B300004F57A722C601B689A6338BD982D0020CA
:102B4000002C002030B589B0264C01A903A8FFF75E
:102B5000C9FCFFF797FC244B01901A6C42F0080265
:102B60001A641A6C02F008020292029A1A6A42F07F
:102B700008021A621A6A22F008021A62A3F50B33DD
:102B8000069A23604FF0FF33E360184B02B1400018
:102B90000025B0FBF3F001382561A56060601148A5
:102BA0006561FFF723FD12493220FFF783FF4FF4E1
:102BB0008022104B29460B485A60FFF759FD04212B
:102BC0000848FFF755FD23680B4928465A6A0A60F2
:102BD00002F57A729A63DA6842F00402DA6009B0A8
:102BE00030BD00BF982D00200038024040420F0049
:102BF000F52A000800E100E0002C0020BFF34F8F11
:102C0000BFF36F8F064B0022C3F850225A6942F47B
:102C100000325A61BFF34F8FBFF36F8F704700BF11
:102C200000ED00E0174A0023F0B5C2F88430D2F876
:102C3000803003F00704C3F34E31C3F3C9030434F7
:102C4000B3FA83F505F01F05BFF34F8F01FA04FEB9
:102C5000184600FA05F610F1FF300A4F46EA0E0654
:102C6000C2F86062F5D211F1FF31EFD2BFF34F8F9E
:102C70007B6943F480337B61BFF34F8FBFF36F8F6A
:102C8000F0BD00BF00ED00E07FB50F23072101A8D4
:102C9000019302230293002303934FF4A053049360
:102CA0004FF480530593FFF7ADFAB0FA80F0400976
:102CB00007B05DF804FB0000174A1849936803F059
:102CC0000C03042B03D0082B03D0154B19E0154B34
:102CD00017E05068536810F4800F506803F03F030A
:102CE00018BF104AC0F3881008BF0D4AB2FBF3F3B7
:102CF000094A43435268C2F3014201325200B3FB16
:102D0000F2F30B60044B084A9B68C3F30313D25CD5
:102D10000B68D3400B60704700380240CC010020A4
:102D20000024F40040787D0173850008184B1A6C6C
:102D300042F0805200B51A648FB01B6C03F08053D0
:102D40000193019B0123029310B94FF4803301E0FA
:102D50004FF4A0234FF480020393022302A80992A8
:102D6000192208930A924FF4D8720C9309230B92FC
:102D70000D93FFF769F808B1002005E0FFF72CF884
:102D80000028F9D1FFF780FF0FB05DF804FB00BF0A
:102D90000038024000B58FB0FFF730FFFFF742FF69
:102DA000154B002102A81A6C42F080521A641022BE
:102DB0001B6C069203F080530A924FF4D872039171
:102DC0000193019B03230991029301230B92059325
:102DD000022308930C9309230D93FFF735F808B1EC
:102DE000002005E0FEF7F8FF0028F9D1FFF74CFFBF
:102DF0000FB05DF804FB00BF0038024008B50020AA
:102E0000FFF794FF18B9FFF7C5FF00B9FEE708BD4B
:102E1000194A0021D2F8883010B543F47003174CDA
:102E2000C2F88830236843F001032360A16023685F
:102E300023F0847323F480332360114B6360236891
:102E400023F4802323604FF00063E16093600D4B17
:102E50000D4A1A60FEF7A2FEFFF7D0FEFFF7E2FE72
:102E6000FFF7CCFF236A43F008032362236A23F0B1
:102E70000803236210BD00BF00ED00E000380240EF
:102E800010300024CC0100200024F40010B50446CA
:102E9000002100F0DFF8012004F00F04A04010BD75
:102EA00070B54B1C04460E4621800DD0C1F30310B3
:102EB00000F01EF805463046FFF7E8FF05F1100365
:102EC00018356060A360E56070BDB0F9000000F0E7
:102ED000E5B80129B0F9000018BF002100F0BAB828
:102EE00008B5FFF7E9FEBDE80840FEF757BE000051
:102EF00000B58DB00A2800F28C80DFE800F00612E1
:102F00001E2A36424E5A66727E00454B45481A6B61
:102F100042F001021A631B6B03F001030193019B52
:102F20007BE03F4B40481A6B42F002021A631B6B76
:102F300003F002030293029B6FE0394B3B481A6B8C
:102F400042F004021A631B6B03F004030393039B18
:102F500063E0334B36481A6B42F008021A631B6B6E
:102F600003F008030493049B57E02D4B31481A6B80
:102F700042F010021A631B6B03F010030593059BCC
:102F80004BE0274B2C481A6B42F020021A631B6B54
:102F900003F020030693069B3FE0214B27481A6B62
:102FA00042F040021A631B6B03F040030793079B38
:102FB00033E01B4B22481A6B42F080021A631B6BF2
:102FC00003F080030893089B27E0154B1D481A6BFC
:102FD00042F480721A631B6B03F480730993099B9C
:102FE0001BE00F4B18481A6B42F400721A631B6BFC
:102FF00003F400730A930A9B0FE0094B13481A6B02
:1030000042F480621A631B6B03F480630B930B9B87
:1030100003E00F4800F0C6F900200DB05DF804FB96
:103020000038024000000240000402400008024054
:10303000000C024000100240001402400018024040
:10304000001C0240002002400024024000280240F0
:103050008385000830B5054687B0C0F303100C46E1
:1030600005F00F05FFF744FF012304F00F0201A94B
:1030700003FA05F5084B53F8223001950293C4F387
:103080000213C4F3C3140393032305940493FEF7BC
:10309000B7FD07B030BD00BFA485000838B500F00B
:1030A0000F05C0F303100C46FFF722FF690003234E
:1030B000C268032C03FA01F328BF002422EA0303A9
:1030C0008C40C360C3681C43C46038BD08B5026847
:1030D000114B1A6082685A60C2689A600269DA60AD
:1030E00042691A6100229A61B0F91A20013201D1B5
:1030F000082205E0B0F9182001320CBF04220C228E
:1031000005485A61FFF7A3FC20B10448BDE8084018
:1031100000F048B908BD00BFD42D0020D8850008B4
:10312000F0B50E46154689B004465C49304600F0BD
:10313000ABF907465A49284600F0A6F90146384639
:10314000584F00F083F9584B2060984261D017D84F
:10315000A3F50063984244D003F5806398424CD0B5
:10316000A3F5006398426CD1504B1A6C42F40032C4
:103170001A641B6C03F400330193019B01235FE08D
:103180004B4B984251D00FD8A3F58063984258D149
:10319000464B1A6C42F080421A641B6C03F0804369
:1031A0000693069B06234BE0B8420ED0414B984253
:1031B00047D13E4B5A6C42F020025A645B6C03F0DC
:1031C00020030593059B05233AE0384B5A6C42F0E7
:1031D00010025A645B6C03F010030093009B002301
:1031E0002EE0324B1A6C42F480221A641B6C03F4FA
:1031F00080230293029B022322E02C4B1A6C42F4A0
:1032000000221A641B6C03F400230393039B032323
:1032100016E0264B1A6C42F480121A641B6C03F4FD
:1032200080130493049B04230AE0204B1A6C42F0A1
:1032300000421A641B6C03F000430793079B0723AB
:1032400063601649304600F0E3F81549284600F05F
:10325000DFF8721C03D001213046FFF71FFF6B1C03
:1032600003D001212846FFF719FF4FF41653268398
:1032700065832046A3600023E36023616361FFF759
:1032800025FF2368BB4207D101220B4B21460B4887
:103290001A601C2200F0B4FC09B0F0BD20860008C2
:1032A000F085000800100140005000400038024046
:1032B000007C004000140140042C0020442E00201B
:1032C0000368034AD8691360C0F34010704700BF19
:1032D000D42D002010B5014604680846FFF7F0FF22
:1032E0000028FAD0606AC0F3080010BD0368034AE2
:1032F000D8691360C0F3C010704700BFD42D002000
:1033000038B5044605682046FFF7F0FF0028FAD0DC
:10331000C1F30801A96238BD054B186830B9012214
:103320001A60044A044B1A60FFF70CBC704700BFD8
:10333000442C0020000C0040082C002008B5044B51
:103340001B680BB9FFF7E8FF024B586A08BD00BFC6
:10335000442C0020000C0040034B1B685863DA68C3
:1033600042F00202DA607047082C0020034B1A6812
:10337000D36823F00203D360704700BF082C0020FD
:10338000024B6FF002021B681A617047082C002084
:1033900008B572B6962000F0CBF8962000F0C8F879
:1033A000F8E700000FB4064B07B504AA1B6852F8F3
:1033B000041BD868019200F031FE012000F0B2F940
:1033C0003402002038B50D460446C168436802B98E
:1033D0001B040B6020460121FFF77BFD2946204698
:1033E000BDE83840FFF771BD70B50E46044615467E
:1033F000FFF756FD013606D02A4620460021BDE8DB
:103400007040FFF7DFBF70BD0022FFF7EDBF000087
:1034100010B50446013001D110BD0C31B1F90030B6
:103420005A1C0BD09C42F8D120468968FFF712FE47
:1034300020460021BDE81040FFF730BE0248BDE83D
:103440001040FFF7AFBF00BF5C860008884208B598
:103450000AD0431C07D0013106D00448FFF7A2FF71
:103460004FF0FF3008BD084608BD00BF6D8600085C
:10347000B1F900305A1C05D0834201D14868704729
:103480000C31F5E718467047421C10B5044607D0CA
:10349000FFF7EEFF431C044602D10248FFF782FF0C
:1034A000204610BD7E860008036870B5DB680446C0
:1034B000984763685A6823681AB99B68BDE87040EA
:1034C000184715685B689847281A636800285A6887
:1034D00007DC916859601B68002BEAD05068984758
:1034E000E7E7236810681B69BDE8704018470000D3
:1034F0000148FFF7D9BF00BFD086000838B50446A1
:10350000FFF71CFF0546FFF719FF401BA042FAD347
:1035100038BD000007EE100ADFED047A67EE277A67
:10352000FDEEE77A17EE900AFFF7E8BF0024744932
:103530004FF47A735843FFF7E1BF00001FB5102224
:103540000021684600F082FB06216846FFF75CFF19
:10355000FDF748FC019A039B05481A60FFF7DAFF64
:10356000019B039A1B0402481360FFF7D3FFF1E7A6
:1035700000007A44044B1B6823B917220921034831
:10358000FFF7CEBD704700BF042C0020442E002062
:1035900002284FF0000309DDC21E074951F822003E
:1035A00041F8223020B103685B681847184670471D
:1035B0004FF0FF30704700BF502C0020022870B53C
:1035C0000C4615460FDC0E4B1B680BB9FFF7D2FFFC
:1035D0006619B44205D014F8011B0A48FFF790FEA3
:1035E000F7E7284670BD0338074B53F8200020B199
:1035F0000368BDE870401B6818474FF0FF3070BD8E
:10360000042C0020442E0020502C0020022810B54D
:103610000C460ADC0B4B1B680BB9FFF7ABFF0A48E3
:10362000FFF758FE2070012010BD0338074B53F8F8
:10363000200020B10368BDE810409B6818474FF098
:10364000FF3010BD042C0020442E0020502C002000
:10365000022807DD0338064B53F8200020B1036829
:10366000DB681847012070474FF0FF30704700BFFC
:10367000502C0020022807DD0338064B53F82000A9
:1036800020B103681B691847002070474FF0FF30D6
:10369000704700BF502C0020022808B504D84FF412
:1036A000005300204B6008BD00F036F8092303608A
:1036B0004FF0FF3008BD704708B5FFF711FCFFF76A
:1036C000FAFFBDE80840FFF739BF0000074A13685A
:1036D0001844EFF30881884223BF0C22044B4FF0BB
:1036E000FF3010602CBF1A6018467047D0010020D0
:1036F000602E0020074C054608B52368986800F046
:10370000D7F82368D86800F0D3F80DB1FFF740FE72
:10371000FEE700BF34020020014B1868704700BF6D
:103720003402002008B5074B044613B10021AFF363
:103730000080054B1868836A03B198472046FFF75D
:10374000D9FF00BF000000003C8700088A892DE9EE
:10375000F041054610070C4659D44B68002B02DC9B
:103760000B6C002B17DDE66AAEB102F48052002329
:1037700092B22F682B600AB1606D15E0216A0123B7
:103780002846B047411C0FD12B686BB11D2B01D0CF
:10379000162B03D12F600020BDE8F081A38943F0F0
:1037A0004003A381BDE8F081A3895A0705D563686A
:1037B000C01A636B0BB1236CC01A00230246E66A81
:1037C000216A2846B047431CA38906D129681D29D0
:1037D0003AD8214ACA40D60736D500226260D904B9
:1037E0002269226004D5421C01D12B6803B96065AF
:1037F000616B2F600029CED004F14403994202D0BE
:10380000284600F02BFA00206063BDE8F0810F69C4
:10381000002FC0D093070E6808BF4B690F6018BF18
:103820000023C7EB06088B6002E00744C0EB0808E2
:10383000B8F1000FAFDD43463A46216AA66A284632
:10384000B0470028F1DCA38943F04003A3814FF087
:10385000FF30BDE8F08100BF0100402038B50B69A2
:1038600005460C46DBB118B183690BB900F072F85C
:103870000C4B9C4201D16C6808E00B4B9C4201D17F
:10388000AC6803E0094B9C4208BFEC68B4F90C300B
:103890002BB121462846BDE83840FFF757BF00202E
:1038A00038BD00BFD8860008F886000818870008D1
:1038B000014620B9044B0549186800F0B7B8044B1D
:1038C0001868FFF7CBBF00BF3C8700085D380008D1
:1038D00034020020014900F0A9B800BF5D3800089B
:1038E000002310B504460360436083608181436612
:1038F000C281036143618361194608225C3000F094
:10390000A5F9054B6362054BA362054BE362054BCA
:103910002462236310BD00BF714D0008934D000861
:10392000CB4D0008EF4D000870B568234D1E5D4378
:103930000E4605F1740100F0D7F9044640B10021AC
:1039400080E842000C30A06005F1680200F07EF9CA
:10395000204670BD836910B5044633BB8364C364DD
:103960000365124B124A1B688262984204BF01230E
:10397000836100F01FF86060204600F01BF8A06033
:10398000204600F017F80022E06004216068FFF78D
:10399000A7FF01220921A068FFF7A2FF022212213E
:1039A000E068FFF79DFF0123A36110BD3C8700087D
:1039B000D5380008F8B51C4B1E68B369074613B923
:1039C0003046FFF7C7FF4836B4687368013B04D43C
:1039D000B4F90C507DB16834F8E733680BB1366840
:1039E000F2E704213846FFF79FFF30600028F6D148
:1039F0000C233B60F8BD4FF6FF73E3810123A381E5
:103A000065662560A560656025616561A561082220
:103A1000294604F15C0000F019F96563A563A5640B
:103A2000E5642046F8BD00BF3C8700082DE9F84357
:103A30008046894600F14804002694B1A56867686D
:103A4000013F0CD4AB89012B07D9B5F90E300133F6
:103A500003D029464046C84706436835F0E7246846
:103A6000EBE73046BDE8F88370B50E4B0E4CE41A18
:103A7000A41000251E46A54204D056F825309847CC
:103A80000135F8E704F050FD084C094BE41AA41086
:103A900000251E46A54204D056F82530984701352A
:103AA000F8E770BD74020020740200207802002044
:103AB00074020020F0B58B899D0791B006460C4634
:103AC00026D4B1F90E10002909DAA38913F0800F6A
:103AD0004FF0000514BF40274FF480670DE001AAA6
:103AE00002F05AFF0028F0DB029D05F47045A5F5B1
:103AF00000514D424D414FF480673946304600F049
:103B0000F3F860B9A3899A051DD443F00203A38199
:103B100004F14703236023610123636113E00B4B2E
:103B2000B362A389206043F08003A38120616761B1
:103B30004DB1B4F90E10304603F05EFA18B1A38906
:103B400043F00103A38111B0F0BD00BFD5380008D8
:103B5000024B0146186800F0C7B800BF34020020CD
:103B600001F0FF01102A2BDB10F0070F08D010F82E
:103B7000013B013A8B422DD010F0070F42B3F6D132
:103B8000F0B441EA012141EA014122F007047FF04B
:103B900000070023F0E80256083C85EA010586EAA2
:103BA000010685FA47F5A3FA87F586FA47F6A5FADE
:103BB00087F68EB9EED1F0BC01F0FF0102F00702EA
:103BC00032B110F8013B013A83EA010313B1F8D195
:103BD0000020704701387047002D06BF3546033876
:103BE000073815F0010F07D1013015F4807F02BFAF
:103BF000013015F4C03F0130F0BC0138704700BF00
:103C000010B5431E0A44914204D011F8014B03F849
:103C1000014FF8E710BD884210B501EB020301D84F
:103C2000421E0BE09842FBD28118D21AD34204D034
:103C300013F8014D01F8014DF8E710BD994204D089
:103C400011F8014B02F8014FF8E710BD024403469A
:103C5000934202D003F8011BFAE7704730B5002900
:103C60003ED051F8042C0B1F1E49002AB8BF9B18E8
:103C70000A680C4612B95A600B6030BD9A420ED9E0
:103C800019685818824204BF106852685A6004BF0D
:103C900009181960236030BD994203D80A4651685B
:103CA0000029F9D1146815199D420AD11B682344D3
:103CB000D0188142136013D10868034413604B6825
:103CC0000DE002D90C23036030BD18681C18A14216
:103CD00004BF0C684968596004BF0019186053603C
:103CE00030BD00BF542D002070B5CD1C25F003055C
:103CF00008350C2D38BF0C25002D064603DA0C23A1
:103D00003360002070BDA942F9D81F4B1C681A46C9
:103D10002146A1B10B685B1B0ED40B2B03D90B60A2
:103D2000CC18CD501EE08C420DBF63684B686360B9
:103D3000136018BF0C4615E00C464968E9E7134CC0
:103D400023681BB9304600F0DBFF2060294630466F
:103D500000F0D6FF431CD2D0C41C24F00304A042C0
:103D60000AD1256004F10B00231D20F00700C31ABF
:103D700009D05A42E25070BD211A304600F0C0FF0F
:103D80000130EED1BBE770BD542D0020502D002036
:103D90009368013B002B10B4936009DA9469A34245
:103DA00002DBCBB20A2B03D15DF8044B01F0E6BE77
:103DB0001368581C10601970C8B25DF8044B704746
:103DC000F8B506460F461446D518AC4208D03A4618
:103DD00014F8011B3046FFF7DBFF431CF5D100E070
:103DE0000020F8BD2DE9F04F9DB00C461746039317
:103DF000064618B183690BB9FFF7ACFD7F4B9C42B7
:103E000001D1746808E07E4B9C4201D1B46803E0A4
:103E10007C4B9C4208BFF468A38918070CD5236922
:103E200053B10023099320238DF8293030238DF8D6
:103E30002A30DFF8D4B144E02146304601F004FFD7
:103E40000028EED04FF0FF30D5E0039A111D126824
:103E50000391002A80F28C80524243F002000792C4
:103E6000049098F800302E2B00F08480032298F8FC
:103E700000106548FFF774FE48B14023CBEB00000B
:103E800003FA00F0049B1843049008F1010898F825
:103E900000105E488DF82810062208F10107FFF790
:103EA0005FFE002800F09580594B002B40F0888081
:103EB000039B073323F0070308330393099B534401
:103EC0000993B846454615F8013B1BB9B8EB0709FD
:103ED0000FD003E0252BF9D0A846F3E74B463A462E
:103EE00021463046FFF76CFF01307FD0099B4B44E1
:103EF000099398F80030002B78D000234FF0FF3260
:103F000004930793059206938DF853301A93012773
:103F1000052229783F48FFF723FE05F10108049B9D
:103F200038B13C4A801A07FA00F01843049045461D
:103F3000EEE7D90644BF20228DF853201A0744BF6C
:103F40002B228DF853202A782A2A3FF47EAF079A35
:103F500000210A20A846013598F80030303B092B93
:103F600003D800FB02320121F4E700293FF479AFC6
:103F7000079276E798F801302A2B0BD1039B1A1D84
:103F80001B680392002BB8BF4FF0FF3308F1020803
:103F900005936BE70023059308F1010019460A25F4
:103FA0008046013098F80020303A092A03D805FBF2
:103FB00001210123F4E7002B3FF458AF059155E7A9
:103FC00003AB00932246144B04A9304600F0C2F81C
:103FD00007E003AB009322460F4B04A9304600F0E4
:103FE00065FBB0F1FF3F82467FF468AFA3895B06B3
:103FF0003FF528AF09981DB0BDE8F08FD8860008BE
:10400000F886000818870008468700084A870008D5
:104010005541000840870008C13D000813460A4684
:10402000014602480068FFF7DDBE00BF34020020F1
:104030002DE9F04788B0002B149F1299109EDDF8EF
:104040004CA01D4627F02007BBBF03F100431D46CF
:1040500000232D231446B8BF1446462F0B7003D0FF
:10406000452F03D1013601E0032300E0022307AA14
:10407000049206AA03928DE8480422462B4601F0DA
:10408000EFFE472F804602D1119BDB0728D5462F34
:1040900008EB060911D198F80030302B0AD1002224
:1040A00000232046294604F075F918B9C6F1010627
:1040B000CAF80060DAF80030994400220023204654
:1040C000294604F067F908B9302202E0CDF81C90C7
:1040D00006E0079B994503D9591C07911A70F8E728
:1040E000079B159AC8EB03034046136008B0BDE870
:1040F000F08773B503460029B8BF494203F8022B85
:10410000B4BF2D222B220929427019DD0DF10702BF
:1041100016460A2591FBF5F405FB14113031092CE4
:1041200002F8011D2146F5DC3031541E02F8011C55
:10413000B4421A460AD214F8012B03F8012BF7E710
:1041400030241A46214402F8024B5970101A02B06A
:1041500070BD00002DE9F04F8FB00C4616461F468B
:10416000DDF86080054602F057FFD0F800B05846F1
:1041700000F041FE00230C93D8F80030089007337C
:1041800023F0070303F1080294F81890C8F8002000
:10419000D3E90023C4E91223D4E9120100F086FD1B
:1041A000012819D100220023D4E9120104F0FCF8FF
:1041B00010B12D2384F843309A4B9B4AB9F1470F35
:1041C0008CBF9046984603232361236823F00403A1
:1041D00023604FF0000A93E0D4E9120100F066FD7D
:1041E000236848B9914A9249B9F1470F8CBF884674
:1041F000904603222261E9E7D4F804E0BEF1FF3FD4
:10420000D4E9120101D106220AE0B9F1670F02D008
:10421000B9F1470F05D1BEF1000F40F0B681012280
:104220006260002206920CAA43F4806305920BAAF6
:104230002360039201930DF12B02636802920093B5
:1042400002460B46CDF810902846FFF7F1FE09F024
:10425000DF03472B804609D10B9BD81C02DB626829
:10426000934230DDA9F102095FFA89F9B9F1650FCE
:104270000B9912D801394A4604F150000B91FFF70F
:1042800038FF0C9A8318012A8246236102DC2268D7
:10429000D1072FD5013323612CE0B9F1660F14D17A
:1042A0000029636807DD216113B92268D2071DD593
:1042B00001330B4419E013B92268D00701D502334A
:1042C00013E0012311E04FF067090B9B0C9A934216
:1042D00005DB22682361D10708D5013305E0002BF7
:1042E000D4BFC3F102030123134423610B9BA365D5
:1042F0004FF0000A9DF82B3013B12D2384F8433082
:10430000009733460DAA2146284600F059F901309E
:1043100002D14FF0FF3050E123685A0501D42369E0
:1043200065E0B9F1650F40F2D58000220023D4E9A1
:10433000120104F02FF878B301233E4A3146284693
:10434000B8470130E5D00C9B0B9A9A420BDB2368EF
:10435000D80708D423689B0740F111814FF000086B
:1043600004F1190906E1089B5A4631462846B84728
:104370000130CED04FF0000804F11A090C9B013B2C
:104380009845E7DA01234A4631462846B8470130C6
:10439000BFD008F10108F1E70B9B002B29DC0123BA
:1043A000244A31462846B8470130B2D00B9B23B986
:1043B0000C9B13B92368D907CCD5089B5A463146C4
:1043C0002846B8470130A4D04FF0000904F11A0A7A
:1043D0000B9B5B42994509DA012352463146284638
:1043E000B847013095D009F10109F1E70C9B42462D
:1043F000A7E00C9AA36D9A42A8BF1A46002A9146DC
:1044000007DC04F11A034FF0000A29EAE97909935D
:104410001CE01346314642462846B8470130F0D1E9
:1044200077E700BF518700085587000859870008C3
:104430005D870008618700080123099A31462846F4
:10444000B84701303FF465AF0AF1010AA36DC9EB2B
:1044500003029245F0DB08EB03090B9A0C9B9A428E
:104460000FDB2368DA070CD40C9B0B9A9844C9EB3A
:1044700008089B1A9845A8BF9846B8F1000F08DCB9
:104480000FE0089B5A4631462846B8470130EBD129
:104490003FE743464A4631462846B84701303FF495
:1044A00038AF4FF0000928EAE87804F11A0A09E069
:1044B0000123524631462846B84701303FF429AF20
:1044C00009F101090B9A0C9B9B1AC8EB0303994550
:1044D000EEDB3FE70C9A012A01DCDB0738D501232C
:1044E000424631462846B84701303FF412AF089B98
:1044F0005A4631462846B84701303FF40AAF0022F9
:104500000023D4E9120103F045FF20B14FF0000869
:1045100004F11A090EE00C9B08F10102013B19E0BD
:1045200001234A4631462846B84701303FF4F1AEF0
:1045300008F101080C9B013B9845F1DB534604F15F
:10454000500231462846B84701307FF403AFE0E619
:104550000123424631462846B8470130EED1D8E61D
:1045600001234A4631462846B84701303FF4D1AED0
:1045700008F10108E3680D9A9B1A9845F0DBE068A2
:104580000D9B9842B8BF184617E0002206920CAA6D
:1045900005920BAA43F4806303920DF12B02236072
:1045A000029201930246CDF81090CDF800E00B4640
:1045B0002846FFF73DFD80464EE60FB0BDE8F08F80
:1045C0002DE9F04791461F460A698B68DDF8208087
:1045D0009342B8BF1346C9F8003091F8432006460D
:1045E0000C4612B10133C9F800302368990642BF66
:1045F000D9F800300233C9F80030256815F00605F7
:1046000010D104F1190A07E0012352463946304619
:10461000C04701301AD00135E368D9F800209B1A51
:104620009D42F1DB94F843302268003318BF012328
:1046300092060FD5E1185A1C302081F8430022441D
:1046400094F8451082F84310023303E04FF0FF3036
:10465000BDE8F08704F1430239463046C0470130D7
:10466000F4D02268D9F80050E36802F00602042A68
:1046700008BF5D1B2269A3680CBF25EAE57500250C
:104680009342C4BF9B1AED184FF000091A344D45F0
:1046900009D00123224639463046C0470130D5D0E3
:1046A00009F10109F3E70020BDE8F0872DE9F043A7
:1046B00017460A7E85B06E2A984606460C460C9B25
:1046C00001F1430E00F0AE8011D8632A22D009D840
:1046D000002A00F0BB80582A40F0CA8081F84520AB
:1046E000834955E0642A1ED0692A1CD0C0E0732A91
:1046F00000F0B08009D86F2A2ED0702A40F0B88020
:104700000A6842F020020A603EE0752A24D0782A26
:104710003AD0ADE01A6801F14205111D1960136825
:1047200084F84230A8E021681A6811F0800F02D0A6
:10473000111D196008E011F0400F02F10401196029
:1047400002D0B2F9003000E01368002B3CDA2D22D1
:104750005B4284F8432037E021681A6811F0800F2B
:1047600002D0111D196007E011F0400F02F10401A1
:10477000196001D0138800E01368227E5C496F2A1B
:1047800014BF0A2208221BE078225A4984F84520E7
:104790002268186812F0800F00F104051D6003D133
:1047A000550601D5038800E00368D00744BF42F0F6
:1047B000200222601BB9226822F02002226010220F
:1047C000002084F8430001E049490A226568A56099
:1047D000002D08DB206820F0040020602BB9002D9C
:1047E0007DD175460CE0002B79D07546B3FBF2F015
:1047F00002FB1033CB5C05F8013D03460028F5D1E0
:10480000082A0BD12368DA0708D5236962689A421F
:10481000DEBF302305F8013C05F1FF35C5EB0E0383
:1048200023612EE008681A68496910F0800F03D0F0
:10483000101D1860136808E010F0400F02F104002A
:104840001860136801D0198000E01960002323610B
:10485000754616E01A68111D196015686268002116
:104860002846FFF77DF908B1401B6060636804E0EB
:1048700004F1420584F8422001232361002384F8D7
:104880004330CDF800803B4603AA21463046FFF76F
:1048900097FE013002D14FF0FF3026E023692A460F
:1048A00039463046C0470130F5D023689B0710D504
:1048B000002504F1190907E001234A46394630462C
:1048C000C0470130E7D00135E368039A9B1A9D4247
:1048D000F2DBE068039B9842B8BF184605E00B780E
:1048E00084F8423004F142058AE705B0BDE8F08360
:1048F00063870008748700082DE9F04F9A468B689B
:1049000016465A1EB2F5AE7F87B083BF6FF4AE7203
:104910009B180193002386BF40F25D138B600193C7
:104920000B68884643F4F06348F81C3B4FF0000BDB
:1049300007460C4645465A46CDF810B0CDF80CB0A7
:10494000D946CDF808B0A168002900F0E5803368A9
:104950001B78492B70D016D8392B0DD8312B40D26B
:104960002D2B46D002D82B2B43D0D5E02E2B00F098
:104970009280302B23D0CFE0452B00F09580462B42
:1049800077D0412B0CE0652B00F08E800AD8542B99
:1049900075D002D84E2B34D0BEE0592B75D0612B88
:1049A00046D0B9E06E2B2CD004D8662B61D0692B91
:1049B00042D0B1E0742B62D0792B66D0ACE0206895
:1049C00010F4807F0DD0019B20F08000206009F161
:1049D0000109002B00F08780013B01310193A160A8
:1049E00081E012EB0B0F40F09780216821F4C07139
:1049F00005E02168080640F18F8021F080012160E8
:104A00006FE06AB9B9F1000F0CD1216801F4E060E0
:104A1000B0F5E06F06D121F4F0612160012260E081
:104A2000022A5DD0BBF1010F1ED0BBF1040F1AE0CA
:104A3000012A71D1022254E0BBF1000F0ED1B9F16D
:104A4000000F6CD1216801F4E060B0F5E06F6AD12D
:104A500021F4F06121604FF0010B42E0BBF1030F44
:104A600002D0BBF1050F57D10BF1010B5FFA8BFBA5
:104A700037E0BBF1020F4FD14FF0030B31E0BBF138
:104A8000060F49D14FF0070B2BE0BBF1070F43D1C5
:104A90004FF0080B25E0216888053DD521F42071F1
:104AA0002160CDF808901CE0216801F4A060B0F509
:104AB000806F04D048052FD5B9F1000F33D0880599
:104AC0005CBF0298049521F4F06158BFC0EB090067
:104AD00041F4C07158BF039021604FF0000900E01D
:104AE00003222B700135A368013BA36023690133C6
:104AF00023617368013B002B736003DD336801336E
:104B0000336020E7D4F88031059231463846984723
:104B1000059A00283FF417AFB9F1000F03D02368BE
:104B200023F480732360013A012A0ED845450AD93F
:104B3000D4F87C3115F8011D324638469847236970
:104B4000013B2361F2E70126AAE00BF1FF33062BBC
:104B500022D8BBF1020F12D9ABF1030B5FFA8BFB2A
:104B6000CBEB050B5D4517D0D4F87C3115F8011D52
:104B70003246384698472369013B2361F2E74545B1
:104B8000E1D9D4F87C3115F8011D324638469847F2
:104B90002369013B2361F2E72368DA052CD55B0525
:104BA0000CD54545CFD9D4F87C3115F8011D3246D6
:104BB000384698472369013B2361F2E715F8011C49
:104BC0002369652903F1FF3305F1FF3B23610DD014
:104BD00045290BD0D4F87C313246384698472369B2
:104BE00015F8021C013BA5F1020B2361D4F87C31BE
:104BF0003246384698475D46266816F010064ED174
:104C00002E70236803F4C063B3F5806F05D1029B57
:104C1000C3EB09035A4263B915E0039B9BB10499A6
:104C20000A2332460131384600F022FF039B049DDF
:104C3000C21A04F26F139D4228BF04F5B7751A49D2
:104C4000284600F071F800224146384600F014F979
:104C50002268DAF8003012F0020F8046894603D04D
:104C60001A1DCAF8002006E012F0040F03F1040236
:104C7000CAF8002003D01B68C3E900890BE01D6857
:104C800000F014F810B900F04BF803E04046494634
:104C900003F0FAFB2860E3680133E36000E00026DC
:104CA000304607B0BDE8F08F858700080A4631F02E
:104CB000004110B503461BD00F48A2F58014844272
:104CC00010D902F1FF420C4802F5E002824209D9F4
:104CD000B1F5801F08D3094A914207D1B3FA83F096
:104CE000400910BD042010BD032010BD002010BDE0
:104CF0000028E6D1022010BDFFFFDF7F0000F07F1B
:104D000038B5064C0023054608462360FEF7DEFC56
:104D1000431C02D1236803B12B6038BD602E0020F4
:104D2000004870470000C07F0EB400B59CB04FF43F
:104D300002711DABADF81410029006906FF00041A7
:104D40000A48049107914FF6FF7153F8042BADF810
:104D500016100068019302A902F0ECFD029B0022EC
:104D60001A701CB05DF804EB03B0704734020020E9
:104D700010B50C46B1F90E1002F0D0FE0028ABBF02
:104D8000636DA3891B1823F48053ACBF6365A381B3
:104D900010BD2DE9F0411F468B89DB0505460C4609
:104DA000164605D502230022B1F90E1002F038F99B
:104DB000A389B4F90E1023F48053A38132463B46F5
:104DC0002846BDE8F04100F02DBF10B50C46B1F902
:104DD0000E1002F025F9431CA38915BF606523F46A
:104DE000805343F48053A38118BFA38110BDB1F950
:104DF0000E1000F095BF034613F8012B002AFBD1DB
:104E0000181A0138704730B582B1451E013915F8BE
:104E1000013F11F8014FA34206D1EC431444E04294
:104E200001D0002BF3D11C46181B30BD104630BDFD
:104E30002DE9F0410F46904602F0CAFB04460D46AC
:104E4000B8F1000F11D0C7F30A53C3F16B03002B65
:104E50000BDD1B0503F17F55002405F540152246A7
:104E60002B4603F02FF8BDE8F08120462946BDE827
:104E7000F0810000000000002DE9F04F9FB00023FA
:104E800080460C4615921A934FF0000A4FF0000B23
:104E90001991199B1A780D2A05D8092A13D2002ACC
:104EA00000F0AF8112E02B2A04D02D2A04D0202A52
:104EB0000CD108E0002200E0012209925A1C19924C
:104EC0005B782BB99DE101331993E2E70023099345
:104ED000199D2B78302B5CD16B78582B01D0782B17
:104EE0004CD1099B01931AAB0093A84A1BAB19A99B
:104EF000404601F0AEFD10F00706044600F085853F
:104F0000062E05D1013500231995099300F07DBDCA
:104F10001A9A3AB135211CA802F042FC1A9940466F
:104F200002F0C5F8062E22D8DFE806F0040D0818B6
:104F30001D0D04004FF0000BDA4618E0DDF870A0FC
:104F4000DDF874B013E01D9B1B9ADDF870A023F40C
:104F5000801302F2334243EA025B08E0DFF830B22A
:104F60004FF0000A03E06FF0004B4FF0FF3A2107CB
:104F700040F14B854BF0004B00F047BD199B5A1C8C
:104F800019925B78302BF9D0002B00F03E8501237D
:104F900000E000230893199B0A93002303930593D1
:104FA00004930A22199D2E78A6F13003D9B209295B
:104FB00011D804990829D5BF0599039902FB01333B
:104FC00002FB0133D4BF05930393049B01350133E6
:104FD00004931995E6E7404602F01EF8076840463C
:104FE00002F01AF80068FFF706FF39460246284625
:104FF000FFF709FF074628B100203346049D02460B
:1050000001465AE0404602F007F80068FFF7F3FE59
:10501000199B1A181992049A1B5C002A45D1104654
:10502000302B05D1199B5A1C199201305B78F7E798
:10503000A3F13102082A46D8199A0A9202460020A2
:105040000546303B00F1010129D00A4405EB000C74
:1050500029460A2661450FD0013101F1FF3EBEF11C
:10506000080F03DC059F77430597F3E71029DEBFA0
:10507000039F77430397EDE72844082800F10105D3
:1050800005DC05980A2101FB0033059306E0102D8D
:10509000DFBF03980A2101FB003303930021199B12
:1050A000581C19905B78084602E0049D38463A4641
:1050B000A3F130010929C4D90121652B01D0452B69
:1050C00051D16DB904E0652B40F0AD84002201217F
:1050D00028B9089B002B00F09480054600E00025CD
:1050E000199C631C199363782B2B06D02D2B02D0AF
:1050F0000026069606E0012300E000230693A31C89
:105100001993A378A3F13006092E2BD8302B04D1A4
:10511000199B5E1C19965B78F8E7A3F13106082EFF
:1051200021D8A3F1300E199B4FF00A0C1F46199B92
:105130005E1C19965B78A3F13009B9F1090F04D808
:105140000CFB0E3EAEF1300EF1E7F61B082E44F6D6
:105150001F6902DCF145A8BFF146069E2EB1C9F1D8
:10516000000902E019944FF00009002D51D10028E8
:1051700040F04B84089A002A40F04784002940D12F
:105180004E2B1FD006DC492B09D03AE0A08700083F
:105190000000F07F692B02D06E2B13D031E0A749BD
:1051A00019A801F087FE60B3199BA549013B19A816
:1051B000199301F07FFE10B9199B01331993DFF8A1
:1051C0009CB21AE09F4919A801F074FEC8B1199B5E
:1051D0001B78282B0FD11CAA9B4919A801F07DFE32
:1051E000052808D11D9BDDF870A043F0FF4B4BF460
:1051F000E00B00F00ABCDFF868B24FF0000A00F0E4
:1052000004BC159B1994002B00F00A840023099319
:10521000FDE3049B0598002B08BF2B46102D2C4660
:10522000C2EB0909A8BF1024049302F0D5FD092C94
:1052300082468B4613DD854B03EBC40353E91223EF
:1052400002F040FE064603980F4602F0C5FD0246F6
:105250000B463046394602F083FC82468B460F2DC2
:1052600036DCB9F1000F00F0D08324DDB9F1160F60
:1052700007DC764D05EBC90952465B46D9E90001CA
:1052800014E0C5F12503994522DC704CC5F10F05EA
:1052900004EBC501C5EB090552465B46D1E90001A7
:1052A00004EBC50402F00EFED4E9002302F00AFE6E
:1052B00082468B46A9E319F1160F09DB634DA5EB76
:1052C000C909D9E900235046594602F025FFEFE706
:1052D0002C1B4C44002C56DD14F00F010AD05B4B04
:1052E00003EBC10152465B46D1E9000102F0EAFD41
:1052F00082468B4634F00F0400F0B680B4F59A7FF6
:105300000BDD0024A146059404942223C8F8003044
:10531000DFF848B14FF0000A7AE100234C4E241127
:10532000504659461F46012C0ADDE20704D5D6E94E
:10533000002302F0C7FD0123013764100836F2E7AD
:105340000BB182468B46424BABF1547B03EBC70754
:1053500052465B46D7E9000102F0B4FD21F000435C
:105360008B460A461B0D3B491B058B428246C8D81B
:10537000A1F580118B4286BFDFF8E8B04FF0FF3A0D
:1053800002F1547B70E06FD0644214F00F020AD037
:105390002E4B03EBC20350465946D3E9002302F0DB
:1053A000BBFE82468B4624115ED01F2C04DD0024F8
:1053B000A1460594049424E114F0100F0CBF0023BF
:1053C0006A23254E0393504659460023002C09DDDD
:1053D000E20704D5D6E9002302F074FD012364102E
:1053E0000836F3E70BB182468B46039BEBB1CBF358
:1053F0000A53C3F16B03002B594616DD1F2B0EDD3C
:10540000342BDEBF203B4FF0FF3202FA03F34FF0A4
:10541000000ACCBF4FF05C7B03EA010B05E04FF0C4
:10542000FF3202FA03F303EA0A0A0022002350467D
:10543000594602F0AFFF0028B9D117E0568700089F
:10544000E48800085E8700088C870008F888000858
:10545000C08900080000A07CB88700080000F07F29
:105460000000F8FFFFFFEF7F00230393059B0093ED
:10547000049A0A992B46404601F06BFE05900028DD
:105480003FF43FAFB9F1000FC9F10003A8BF0023FB
:105490000E93002429EAE9730F93A146059B404629
:1054A000596801F0CFFD049000283FF42EAF059B12
:1054B0001A69023203F10C0192000C30FEF7A0FBD6
:1054C0001CAB01931BAB009352465B464046CDE9B3
:1054D0000AAB02F0EEF81A9000283FF416AF012153
:1054E000404601F0C1FE814600283FF40EAF1B9BF1
:1054F00003991C9D002BADBF0E9A0F9A0E9FD718D3
:10550000B8BFD21AA3EB01032B44B249A8BF0F9A2C
:10551000013B8B42C5F1360580F28680C91A1F29EE
:10552000A5EB01054FF0010077DC00FA01F31493BD
:10553000002306937E19039BB74215441D443B4646
:10554000A8BF3346AB42A8BF2B46002BC2BFF61AFA
:10555000ED1AFF1A0E9B002B6BD1002E00F38280F8
:105560000F9B002B40F08880002D00F38F80002FD0
:1055700000F39680049A1A99404601F0CAFF044647
:1055800000283FF4C2AEC36808930023C3604946B5
:1055900001F0A3FF002880F29180089B002B40F0CF
:1055A0000D82BAF1000F40F00982CBF31303002BF8
:1055B00040F004822BF000431B0D1B05B3F1D66FA6
:1055C00040F2FC816369002B74D0214601224046E1
:1055D00001F032FF4946044601F07FFF002840F306
:1055E000ED812BF00043039A1B0D1B05002A00F0F0
:1055F0009480B3F1D66F00F39080B3F15C7F00F339
:10560000DF8122234FF0000A4FF0000BC8F8003072
:10561000059B002B40F0E581F7E16F4E1490F61AE0
:1056200000FA06F3069385E70023069301231493FB
:1056300080E749461A46404601F0B0FE8146002800
:105640003FF463AE01461A9A404601F016FE0890F8
:1056500000283FF45AAE1A99404601F028FD089BF5
:105660001A937AE732461A99404601F0E5FE1A90FD
:1056700000287FF475AF48E60F9A0499404601F080
:105680008DFE049000287FF46FAF3EE62A46049911
:10569000404601F0D1FE049000287FF468AF34E664
:1056A00049463A46404601F0C7FE814600287FF44D
:1056B00061AF2AE62369012B87DC7FE162D1089A7A
:1056C000CBF3130322B345498B425A462ED1039B99
:1056D000514663B1424B1340B3F1D46F07D81B0D51
:1056E000C3F16B034FF0FF3000FA03F301E04FF01A
:1056F000FF338B421AD13B498A4202D101333FF436
:1057000004AE374B134003F5801B4FF0000A55E100
:1057100063B9BAF1000F09D163E7A3F580136FEA0B
:10572000135B6FEA0B5B4FF0FF3A47E1069B13B147
:1057300013EA0B0F02E0149B13EA0A0F00F03E81FC
:10574000089B039A5046594653B1FFF771FB024636
:105750000B46DDE90A0102F003FA82468B462DE191
:10576000FFF766FB02460B46DDE90A0102F0F6F997
:105770000022002382468B4602F00CFE00287FF4B4
:1057800040AF1BE14946204601F0E1FF00224FF007
:10579000804306460F4602F011FE002841D0089BC8
:1057A00013B10022104B0FE0BAF1000F03D1CBF37D
:1057B00013033BB91CE0BAF1010F03D1BBF1000F99
:1057C0003FF41FAF094B0022CDE906230026064F08
:1057D0003CE000BF02FCFFFFE2FBFFFFFFFF0F000A
:1057E0000000F07FFFFFEF7F0000F03F0000F0BF00
:1057F0000022994B3046394602F0D6FD40B930467A
:1058000039460022954B02F05DFB06460F4601E04B
:10581000924F002607F1004316961793DDE91623F1
:1058200012E08E4B30463946002202F04BFB089BBB
:1058300006460F4623B901F100431090119301E091
:10584000CDE91067DDE91023CDE906232BF00045F3
:105850002D0D834B2D059D422BD1DDE90A23ABF1A4
:10586000547B50465946CDE90C2301F0B1FE024667
:105870000B46DDE9060102F025FB52465B4602F0CD
:105880006FF921F000431B0D764A1B0593428246B7
:105890000CD9754B0D9A9A4203D10C9B01333FF4FE
:1058A00034ADDFF8C4B14FF0FF3A76E001F1547B3C
:1058B0003BE0039B3BB3B5F1D46F24D85EA3D3E99F
:1058C00000233046394602F079FDB8B139463046FA
:1058D00002F0BAFD002808BF012002F07DFA089B03
:1058E00006460F4623B901F100431290139301E0DD
:1058F000CDE91267DDE91223CDE90623079B03F109
:10590000D6635B1B0793DDE90A01DDE906AB01F015
:105910005FFE02460B465046594602F0D3FADDE9D7
:105920000A2302F01DF982468B46039B002B34D1DB
:105930002BF000431B0D1B059D42CDF828B02CD148
:105940003946304602F058FD02F056FA0B46024640
:105950003946304602F002F9089BCDE9060133B919
:10596000BAF1000F03D10A9BC3F313067EB134A32F
:10597000D3E90023DDE9060102F016FD88BB32A35E
:10598000D3E90023DDE9060102F02CFD04E030A399
:10599000D3E9002302F008FD18BB1A99404601F034
:1059A00086FB0499404601F082FB4946404601F0DF
:1059B0007EFB2146404601F07AFB6FE5039B83B1F5
:1059C0002A4B0D9300230C9350465946DDE90C23D6
:1059D00002F078FA82468B4619B910B92223C8F82A
:1059E00000301A99404601F062FB0499404601F0EC
:1059F0005EFB4946404601F05AFB0599404601F0DE
:105A000056FB2146404601F052FB159B13B1159AF7
:105A1000199B1360099B1BB150460BF1004107E035
:105A20005046594604E000252A460121FFF747BBAE
:105A30001FB0BDE8F08F00BF0000C0FFFFFFDF41D7
:105A40009535A094FFFFDF3F35E5AF350000E03F1F
:105A50009535A094FFFFCF3F0000F03F0000E03FEE
:105A60000000E07FFFFF9F7CFFFFEF7F00005039C9
:105A70002DE9F04780464048D0F800900F463D465B
:105A800015F8014B09EB0400407800F0080000F025
:105A9000FF0608B12F46F2E72D2C03D1BD1C7C7800
:105AA000012603E02B2C04BF7C78BD1C13B1102B06
:105AB0000AD15BE0302C57D1287800F0DF0058285D
:105AC0004DD16C7810230235002E14BF4FF0004CDE
:105AD0006FF0004C0027BCFBF3FA384603FB1ACCEE
