:020000040800F2
:1000000000000520E10200082D0300082D03000870
:100010002D0300082D0300082D0300080000000038
:100020000000000000000000000000002D03000898
:100030002D030008000000002D0300082D03000818
:100040002D0300082D0300082D0300082D030008D0
:100050002D0300082D0300082D0300082D030008C0
:100060002D0300082D0300082D0300082D030008B0
:100070002D0300082D0300082D0300082D030008A0
:100080002D0300082D0300082D0300082D03000890
:100090002D0300082D0300082D0300082D03000880
:1000A0002D0300082D0300082D0300082D03000870
:1000B0002D0300082D0300082D0300082D03000860
:1000C0002D0300082D0300082D0300082D03000850
:1000D0002D0300082D0300082D0300082D03000840
:1000E0002D0300082D0300082D0300082D03000830
:1000F0002D0300082D0300082D0300082D03000820
:100100002D0300082D0300082D0300082D0300080F
:100110002D0300082D0300082D0300082D030008FF
:100120002D0300082D0300082D0300082D030008EF
:100130002D0300082D0300082D0300082D030008DF
:100140002D0300082D0300082D0300082D030008CF
:100150002D0300082D0300082D0300082D030008BF
:100160002D0300082D0300082D0300082D030008AF
:100170002D0300082D0300082D03000800000000D7
:100180002D0300082D0300082D0300082D0300088F
:100190002D0300082D0300082D0300082D0300087F
:1001A0002D0300082D0300082D0300082D0300086F
:1001B0002D0300082D0300082D0300082D0300085F
:1001C0002D0300082D030008044B05481B1A062BBD
:1001D00002D9044B03B11847704700BF7F020020CB
:1001E0007C0200200000000005490648091A891019
:1001F00001EBD171491002D0034B03B1184770478E
:100200007C0200207C0200200000000010B5064C9B
:10021000237843B9FFF7D8FF044B13B10448AFF379
:1002200000800123237010BD7C020020000000002C
:100230007471000808B5084B1BB108490848AFF3B2
:1002400000800848036813B9BDE80840CCE7064BB6
:10025000002BF9D09847F7E700000000800200204B
:10026000747100087802002000000000154B002B7C
:1002700008BF134B9D46A3F5803A00218B460F46DD
:100280001348144A121A02F0A9F80F4B002B00D0A1
:1002900098470E4B002B00D0984700200021040007
:1002A0000D000D48002802D00C48AFF3008001F08B
:1002B000A3FF2000290001F0C7FD01F0FBFD00BFF6
:1002C0000000080000000520000000000000000001
:1002D0007C020020C004002000000000000000009C
:1002E000DFF830D0002103E00B4B5B584350043162
:1002F0000A480B4B42189A42F6D30A4A02E00023FE
:1003000042F8043B084B9A42F9D301F04BF9FFF74E
:10031000ADFF70470000052080710008C801002073
:100320007C0200207C020020C0040020FEE7704711
:10033000074A032008B5136843F40073136000F004
:1003400017F80F2000F0C8FFFFF7F1FF002008BDED
:10035000003C0240024A136801331360704700BF3B
:1003600098020020014B1868704700BF98020020D7
:10037000074A0002D36800F4E06023F4E0631B0442
:100380001B0C43F0BF6343F400330343D360704757
:1003900000ED00E02DE9F04F0B6885B06F4E019342
:1003A0000023DFF8C0C1B646DFF8BC810122019C02
:1003B0009A4032EA040440F0C9804C6824F01009E5
:1003C000B9F1020F14D14FEAD30A03F0070B0F253E
:1003D00000EB8A0A4FEA8B0BDAF8207005FA0BF56E
:1003E00027EA05050F6907FA0BF72F43CAF82070B3
:1003F0004FEA430A0325076804F0030B05FA0AF5E0
:1004000009F1FF390BFA0AFBED43B9F1010F07EAD5
:1004100005074BEA0707076012D8876805EA07094E
:10042000CF6807FA0AF747EA0907C4F3001987609B
:1004300009FA03F9476827EA020749EA070747600C
:10044000C7683D408F6807FA0AF73D43C560E5007D
:100450007CD5DCF8445023F0030703F0030A4FF087
:100460000F0945F4804507F180474FEA8A0ACCF826
:10047000445007F59C37DCF8445005F4804503955B
:10048000039D09FA0AF5D7F808B02BEA0509344D9F
:10049000A84224D005F58065A84222D005F58065E4
:1004A000A84220D005F58065A8421ED005F58065DC
:1004B000A8421CD040451CD005F50065A8421AD0C2
:1004C00005F58065A84218D005F58065A84216D0CC
:1004D00005F58065A84214BF0A25092510E000250E
:1004E0000EE001250CE002250AE0032508E00425C2
:1004F00006E0052504E0062502E0072500E00825C2
:1005000005FA0AF514F4803F45EA0905BD606FEA73
:10051000020735680CBF3D40154314F4003FCEF888
:100520000050DEF804500CBF3D40154314F4801F0A
:100530007560B5680CBF3D401543A402CEF8085065
:10054000DEF80C5054BF3D401543F5600133102BCD
:100550007FF42CAF05B0BDE8F08F00BF003C014038
:10056000000002400038024000140240194B1A6C8F
:1005700042F0805273B51A641B6C174C03F0805321
:1005800025460193019B236843F480332360FFF7E2
:10059000E9FE06466B68104CDA0307D4FFF7E2FE6B
:1005A000801BB0F57A7FF5D9032011E0236843F46E
:1005B00000332360FFF7D6FE054663689B0306D42D
:1005C000FFF7D0FE401BB0F57A7FF6D9ECE70020AC
:1005D00002B070BD003802400070004003682DE991
:1005E000F341DD07044603D42368980770D4C5E0BF
:1005F000A44B9A6802F00C02042A07D09A6802F011
:100600000C02082A0BD15B68590208D59D4B1B6868
:100610009A03E9D56368002BE6D10120B6E1994D34
:100620002B682E4623F480332B602B6823F4802321
:100630002B602B6823F480332B60FFF793FE074673
:100640003368904D9B0307D5FFF78CFEC01BB0F5B8
:10065000FA7FF5D9032099E12B6823F480332B60CE
:100660006368B3F5803F03D12B6823F4802305E052
:10067000B3F5A02F08D12B6843F480232B602B689F
:1006800043F480332B6008E02A6822F480222A6039
:100690002A6822F480322A606BB1FFF763FE794D3D
:1006A00006462B6898039FD4FFF75CFE801BB0F5CD
:1006B000FA7FF6D9CEE7FFF755FE06462B68990379
:1006C00092D5FFF74FFE801BB0F5FA7FF6D9C1E750
:1006D0006C4B9A6812F00C0F07D09A6802F00C026B
:1006E000082A18D15B685A0215D4664A13689B071A
:1006F00002D5E368012B90D11168F82393FAA3F394
:10070000B3FA83F32069DBB221F0F80100FA03F3B6
:100710000B43136032E0E3685A4DFBB12B6843F0A2
:1007200001032B60FFF71EFE06462B6855489F0706
:1007300005D4FFF717FE801B6428F6D98AE7026804
:10074000F82393FAA3F3B3FA83F32169DBB222F01F
:10075000F80201FA03F3134303600FE02B6823F060
:1007600001032B60FFF7FEFD06462B68990705D5B0
:10077000FFF7F8FD801B6428F7D96BE723681A0799
:1007800003D423685B0767D522E063693D4D7BB1E5
:100790006B6F43F001036B67FFF7E4FD06466B6F79
:1007A0009F07EED4FFF7DEFD801B6428F7D951E7E1
:1007B0006B6F23F001036B67FFF7D4FD06466B6F89
:1007C0009807DED5FFF7CEFD801B6428F7D941E7F7
:1007D0002C4B2D4D1A6C42F080521A641B6C03F0A6
:1007E00080530193019B2B6843F480732B60FFF7C8
:1007F000B9FD06462B68D90531D5224D41F288381E
:100800002B6F2E4623F001032B672B6F23F004037D
:100810002B672B6F23F001032B67FFF7A3FD074620
:10082000336F184D9A0720D42B6F23F001032B67E9
:10083000A368012B1FD12B6F23F004032B672B6FB1
:1008400043F001032B67FFF78DFD0E4D064641F285
:1008500088372B6F9B0723D5A269AABB7CE0FFF7E3
:1008600081FD801B6428C5D9F4E6FFF77BFDC01B22
:100870004045D5D9EEE6052B08D12B6F43F0040394
:10088000DCE700BF00380240007000402A6F22F011
:1008900004022A672A6F22F001022A6733B1D2E7E5
:1008A000FFF760FD801BB842D3D9D3E6FFF75AFDAE
:1008B00041F2883706462B6F9807CDD5FFF752FDDA
:1008C000801BB842F7D9C5E6324DAB6803F00C0384
:1008D000082B3FF4A2AE2B68022A23F080732B6012
:1008E00048D1FFF73FFD07462B682A4E990135D4C2
:1008F00047F6C07292FAA2F2B2FA82F24FF4403096
:1009000090FAA0F0B0FA80F04FF0706191FAA1F186
:10091000B1FA81F1256AD2B2E369C9B22B43656AA3
:1009200043F0005305FA02F243EA0205A36A5B08AA
:100930005A1EC3B202FA03F3E26A2B4302FA01F130
:100940000B437360336843F080733360FFF70AFD35
:10095000044633689A0107D5002017E0FFF702FD2F
:10096000C01B6428C0D975E6FFF7FCFC001B642897
:10097000EFD96FE6FFF7F6FC04462B689B01EBD539
:10098000FFF7F0FC001B6428F7D963E602B0BDE86E
:10099000F08100BF003802406C4A136803F00F0377
:1009A0008B422DE9F04104460D4666D2136823F0D0
:1009B0000F030B431360136803F00F03994202D037
:1009C0000120BDE8F08101688F0706D56048836883
:1009D00023F0F002A36813438360CE070BD4216891
:1009E0004D0740F1A3805A48836823F4E052E3683E
:1009F000134383609AE06268554B012A196802D15B
:100A000011F4003F06E0022A02D111F0007F01E05C
:100A100011F0020FD4D0996841F288374C4E21F082
:100A200003010A439A60FFF79DFC63680546012BAA
:100A30000CD1B36803F00C03042BD0D0FFF792FC69
:100A4000401BB842F5D90320BDE8F081022B0FD13D
:100A5000B36803F00C03082BC1D0FFF783FC401BE5
:100A6000B842F5D9EFE7FFF77DFC401BB842EAD862
:100A7000B36813F00C0FF6D1B1E70168880706D50B
:100A80003348836823F0F002A36813438360CA07E6
:100A90000BD42E4A136823F00F032B431360136803
:100AA00003F00F039D428BD199E76268284B012A1E
:100AB000196802D111F4003F06E0022A02D111F0B8
:100AC000007F01E011F0020F3FF47AAF996841F224
:100AD00088381F4F21F003010A439A60FFF742FC58
:100AE00063680646012B0AD1BB6803F00C03042B94
:100AF000CFD0FFF737FC801B4045F5D9A3E7022B89
:100B00000FD1BB6803F00C03082BC2D0FFF72AFCFF
:100B1000801B4045F5D996E7FFF724FC801B404534
:100B200091D8BB6813F00C0FF6D1B2E70B0707D5CD
:100B3000074A2169936823F4604343EAC103936041
:100B40000F2000F0C9FB0020BDE8F081003C02400E
:100B5000003802401F498B6803F00C03042B34D08B
:100B6000082B34D1486847F6C0724B6800F03F004C
:100B700013F4800F4B6892FAA2F2B2FA82F247F6AF
:100B8000C071D2B201EA030115BF21FA02F3D140CC
:100B9000114A124A14BFB2FBF0F0B2FBF0F00D4A5A
:100BA0000CBF00FB01F343434FF44031506891FA0E
:100BB000A1F1B1FA81F100F44032C8B222FA00F09A
:100BC00001304000B3FBF0F0704703487047034822
:100BD000704700BF0038024040787D010024F400D7
:100BE00008B5FFF7B7FF094B9A68F02393FAA3F310
:100BF000B3FA83F302F0F002DBB222FA03F3044A01
:100C0000D35CD840034B186008BD00BF00380240D9
:100C1000D06C0008C801002008B5FFF7E1FF084BC1
:100C20009A684FF4E05393FAA3F3B3FA83F302F410
:100C3000E052DBB222FA03F3024AD35CD84008BD8B
:100C400000380240D06C000808B5FFF7C9FF084B18
:100C50009A684FF4604393FAA3F3B3FA83F302F470
:100C60006042DBB222FA03F3024AD35CD84008BDEB
:100C700000380240D06C00080F2303600B4B9A68C9
:100C800002F0030242609A6802F0F00282609A6801
:100C900002F4E052C2609B68DB0803F4E053036196
:100CA000034B1B6803F00F030B60704700380240D2
:100CB000003C0240704700002E4A0368904212D068
:100CC000B0F1804F0FD0A2F57C4290420BD002F5DC
:100CD0008062904207D002F58062904203D002F514
:100CE0007842904218D14A6823F070031343214A96
:100CF000904237D0B0F1804F34D01F4A904231D06B
:100D000002F5806290422DD002F58062904229D097
:100D100002F57842904225D0184A904222D002F53E
:100D2000806290421ED002F5806290421AD0A2F5F5
:100D30009832904216D002F58062904212D002F5AD
:100D4000806290420ED003608B68C3620B6883623E
:100D5000084B98420BD003F58063984207D00123DB
:100D60004361704723F44073CA681343EBE70B6990
:100D70000363F4E70000014000040040004001402C
:100D800010B50446A0B190F8393003F0FF021BB94A
:100D900080F83820FFF78EFF02232068211D84F899
:100DA0003930FFF789FF0123002084F8393010BD66
:100DB000012010BD01238A408B4010B5046A24EA4B
:100DC00003030362036A42EA0301016210BD0000EB
:100DD00010B5044601220068FFF7ECFF2368084ABB
:100DE000934203D002F58062934203D15A6C42F4DD
:100DF00000425A641A68002042F001021A6010BDD5
:100E000000000140FFF7E4BF70472DE9F041904634
:100E100004460E461D46FFF7A5FA0746B8F1000F37
:100E200036D12268D36936EA03030ED0691CF9D0A3
:100E30007DB1FFF797FAC01B8542F2D809E06B1C21
:100E400006D1D36936EA0303F9D00020BDE8F0816A
:100E5000CDB9236803201A6822F080021A601A684C
:100E600022F020021A601A6822F480721A609A68CE
:100E700022F001029A60012384F86930002384F88B
:100E80006830BDE8F081FFF76DFAC01B8542E0D9FC
:100E90002268D6E738B504460568C3692269A168A7
:100EA0002868114362690A4342EA0301814A024009
:100EB000A0690A432A606A6822F44051E2680A4342
:100EC000216A6A600143AA6822F430620A43AA6078
:100ED000794A954207D102F594327849D2F89020A8
:100EE00002F0030209E0764A95420BD102F5FA328C
:100EF0007449D2F8902002F00C02B3F5004F8A5CDE
:100F000073D0AFE0704A95420DD102F5F832D2F8B5
:100F1000902002F03002102A00F082805DD9202A51
:100F200078D0302A0EE0694A95420DD102F5F632AA
:100F3000D2F8902002F0C002402A71D04DD9802A08
:100F400068D0C02A76D080E0614A95420FD102F580
:100F5000F432D2F8902002F44072B2F5807F5FD074
:100F60003BD9B2F5007F55D0B2F5407FEAE7594A48
:100F7000954212D102F59232D2F8902002F44062EA
:100F8000B2F5806F4CD002D8002A3DD05DE0B2F5BA
:100F9000006F3FD0B2F5406FD4E74F4A95420FD172
:100FA00002F5E032D2F8902002F44052B2F5805FB0
:100FB00036D012D9B2F5005F2CD0B2F5405FC1E750
:100FC000464A954241D102F5DE32D2F8902002F431
:100FD0004042B2F5804F23D001D87AB135E0B2F566
:100FE000004F17D0B2F5404FACE7082A30D8DFE801
:100FF00002F0080E142F1A2F2F2F2400B3F5004FE4
:1010000039D1FFF709FE10E0B3F5004F36D1FFF7F5
:101010001BFE0AE0B3F5004F33D16068304B0FE0A0
:10102000B3F5004F33D1FFF795FD40006368B0FB87
:10103000F3F307E0B3F5004F31D160684FF480332C
:10104000B3FBF0F39BB2002004E0B3F5004F2ED1C8
:1010500001200023C3F3420123F00F0322680B4356
:10106000D36038BD082A22D8DFE802F005080B213A
:10107000112121211900FFF7CFFD0AE0FFF7E4FD60
:1010800007E06268174BB3FBF2F39BB20CE0FFF78B
:1010900061FD6368B0FBF3F080B2E86005E0626870
:1010A0004FF40043B3FBF2F3EB60002038BD0120A6
:1010B00038BD00BFF369FFEF00100140E06C00088D
:1010C00000440040E46C000800480040004C004030
:1010D000005000400014014000780040007C0040B7
:1010E0000048E8010024F400436ADA0710B506D589
:1010F0000468626822F40031826A0A4362609C07D5
:1011000006D50468626822F48031C26A0A436260CC
:10111000590706D50468626822F48021026B0A43ED
:1011200062601A0706D50468626822F40041426BC7
:101130000A436260DC0606D50468A26822F4805186
:10114000826B0A43A260990606D50468A26822F45D
:101150000051C26B0A43A2605A0610D50168046CA4
:101160004A68B4F5801F22F4801242EA04024A6001
:1011700005D14A6822F4C004426C22434A601B062F
:1011800006D501684B6823F40022836C13434B603F
:1011900010BD0022036810B5C26604461B6819071B
:1011A00004D423681B685B0714D509E06FF07E4305
:1011B0004FF40011FFF729FE0028F2D0032010BDE4
:1011C0006FF07E4300224FF480012046FFF71DFEA2
:1011D0000028F3D10123002084F8693084F86800E6
:1011E00010BD10B5044660B390F8693003F0FF02FB
:1011F0001BB980F86820FFF707FE2268022320460B
:1012000084F86930136823F001031360FFF742FE8E
:10121000012816D0636A13B12046FFF765FF2368E3
:1012200020465A6822F490425A609A6822F02A02B4
:101230009A601A6842F00102BDE810401A60FFF798
:10124000A8BF012010BD000030B50C4CA268A468F6
:101250001346B4F1006F0CD1131F094C094A53F81F
:10126000045F42F8045FA242F9D14FF00053034AF1
:101270009360103043F8201030BD00BF00ED00E057
:10128000C4010020FCFFFF1F38B5114B1A681C4633
:10129000D16811F0020F04D06FF00203136100F067
:1012A000F1FC2368DA68520711D56FF00402094D8A
:1012B0001A615C6A2B68E31AB3F57A7F07D3FFF7EC
:1012C00049F8034B04F57A722C601B689A6338BDA9
:1012D000F40300209C02002030B589B0264C01A9FF
:1012E00003A8FFF7C9FCFFF797FC244B01901A6C89
:1012F00042F008021A641A6C02F008020292029A82
:101300001A6A42F008021A621A6A22F008021A6285
:10131000A3F50B33069A23604FF0FF33E360184BBD
:1013200002B140000025B0FBF3F001382561A56053
:10133000606011486561FFF723FD12493220FFF715
:1013400083FF4FF48022104B29460B485A60FFF769
:1013500059FD04210848FFF755FD23680B4928462D
:101360005A6A0A6002F57A729A63DA6842F00402F5
:10137000DA6009B030BD00BFF4030020003802403D
:1013800040420F008912000800E100E09C020020AA
:10139000BFF34F8FBFF36F8F064B0022C3F850226D
:1013A0005A6942F400325A61BFF34F8FBFF36F8F17
:1013B000704700BF00ED00E0174A0023F0B5C2F807
:1013C0008430D2F8803003F00704C3F34E31C3F306
:1013D000C9030434B3FA83F505F01F05BFF34F8F3B
:1013E00001FA04FE184600FA05F610F1FF300A4F24
:1013F00046EA0E06C2F86062F5D211F1FF31EFD273
:10140000BFF34F8F7B6943F480337B61BFF34F8F12
:10141000BFF36F8FF0BD00BF00ED00E07FB50F237D
:10142000072101A8019302230293002303934FF4A1
:10143000A05304934FF480530593FFF7ADFAB0FA2D
:1014400080F0400907B05DF804FB0000174A184916
:10145000936803F00C03042B03D0082B03D0154B27
:1014600019E0154B17E05068536810F4800F50686E
:1014700003F03F0318BF104AC0F3881008BF0D4A9D
:10148000B2FBF3F3094A43435268C2F3014201320B
:101490005200B3FBF2F30B60044B084A9B68C3F3A2
:1014A0000313D25C0B68D3400B60704700380240D6
:1014B000C80100200024F40040787D01F16C000890
:1014C000184B1A6C42F0805200B51A648FB01B6C36
:1014D00003F080530193019B0123029310B94FF451
:1014E000803301E04FF4A0234FF4800203930223E2
:1014F00002A80992192208930A924FF4D8720C9309
:1015000009230B920D93FFF769F808B1002005E05D
:10151000FFF72CF80028F9D1FFF780FF0FB05DF836
:1015200004FB00BF0038024000B58FB0FFF730FF6A
:10153000FFF742FF154B002102A81A6C42F08052BF
:101540001A6410221B6C069203F080530A924FF427
:10155000D87203910193019B032309910293012304
:101560000B920593022308930C9309230D93FFF725
:1015700035F808B1002005E0FEF7F8FF0028F9D1A2
:10158000FFF74CFF0FB05DF804FB00BF00380240CE
:1015900008B50020FFF794FF18B9FFF7C5FF00B9A1
:1015A000FEE708BD194A0021D2F8883010B543F48F
:1015B0007003174CC2F88830236843F0010323609E
:1015C000A160236823F0847323F480332360114BDC
:1015D0006360236823F4802323604FF00063E1609D
:1015E00093600D4B0D4A1A60FEF7A2FEFFF7D0FE86
:1015F000FFF7E2FEFFF7CCFF236A43F00803236204
:10160000236A23F00803236210BD00BF00ED00E051
:101610000038024010300024C80100200024F400EB
:1016200010B50446002100F0DFF8012004F00F049B
:10163000A04010BD70B54B1C04460E4621800DD055
:10164000C1F3031000F01EF805463046FFF7E8FF2F
:1016500005F1100318356060A360E56070BDB0F956
:10166000000000F0E5B80129B0F9000018BF002122
:1016700000F0BAB808B5FFF7E9FEBDE80840FEF78C
:1016800057BE000000B58DB00A2800F28C80DFE85C
:1016900000F006121E2A36424E5A66727E00454BF4
:1016A00045481A6B42F001021A631B6B03F00103F9
:1016B0000193019B7BE03F4B40481A6B42F00202D2
:1016C0001A631B6B03F002030293029B6FE0394B1A
:1016D0003B481A6B42F004021A631B6B03F00403CD
:1016E0000393039B63E0334B36481A6B42F00802C6
:1016F0001A631B6B03F008030493049B57E02D4B04
:1017000031481A6B42F010021A631B6B03F010038E
:101710000593059B4BE0274B2C481A6B42F02002A7
:101720001A631B6B03F020030693069B3FE0214BDB
:1017300027481A6B42F040021A631B6B03F0400308
:101740000793079B33E01B4B22481A6B42F0800241
:101750001A631B6B03F080030893089B27E0154B6B
:101760001D481A6B42F480721A631B6B03F480737A
:101770000993099B1BE00F4B18481A6B42F4007247
:101780001A631B6B03F400730A930A9B0FE0094B67
:1017900013481A6B42F480621A631B6B03F4806374
:1017A0000B930B9B03E00F4800F0C6F900200DB02F
:1017B0005DF804FB003802400000024000040240D3
:1017C00000080240000C02400010024000140240D9
:1017D00000180240001C0240002002400024024089
:1017E00000280240016D000830B5054687B0C0F3FF
:1017F00003100C4605F00F05FFF744FF012304F02A
:101800000F0201A903FA05F5084B53F822300195A0
:101810000293C4F30213C4F3C31403930323059484
:101820000493FEF7B7FD07B030BD00BF246D00087C
:1018300038B500F00F05C0F303100C46FFF722FF88
:1018400069000323C268032C03FA01F328BF0024B4
:1018500022EA03038C40C360C3681C43C46038BDE4
:1018600008B50268114B1A6082685A60C2689A60B3
:101870000269DA6042691A6100229A61B0F91A209D
:10188000013201D1082205E0B0F9182001320CBF65
:1018900004220C2205485A61FFF7A3FC20B104483A
:1018A000BDE8084000F048B908BD00BF3004002082
:1018B000586D0008F0B50E46154689B004465C49DF
:1018C000304600F0ABF907465A49284600F0A6F921
:1018D00001463846584F00F083F9584B2060984233
:1018E00061D017D8A3F50063984244D003F5806314
:1018F00098424CD0A3F5006398426CD1504B1A6CBF
:1019000042F400321A641B6C03F400330193019B10
:1019100001235FE04B4B984251D00FD8A3F5806371
:10192000984258D1464B1A6C42F080421A641B6CA4
:1019300003F080430693069B06234BE0B8420ED08B
:10194000414B984247D13E4B5A6C42F020025A64B8
:101950005B6C03F020030593059B05233AE0384BAD
:101960005A6C42F010025A645B6C03F0100300934F
:10197000009B00232EE0324B1A6C42F480221A6442
:101980001B6C03F480230293029B022322E02C4B66
:101990001A6C42F400221A641B6C03F400230393B4
:1019A000039B032316E0264B1A6C42F480121A6440
:1019B0001B6C03F480130493049B04230AE0204B64
:1019C0001A6C42F000421A641B6C03F00043079348
:1019D000079B072363601649304600F0E3F815497A
:1019E000284600F0DFF8721C03D001213046FFF7D3
:1019F0001FFF6B1C03D001212846FFF719FF4FF48E
:101A00001653268365832046A3600023E360236189
:101A10006361FFF725FF2368BB4207D101220B4B0F
:101A200021460B481A601C2200F0B2FC09B0F0BD40
:101A3000A06D0008706D00080010014000500040CB
:101A400000380240007C004000140140A002002049
:101A5000A00400200368034AD8691360C0F3401053
:101A6000704700BF3004002010B5014604680846E6
:101A7000FFF7F0FF0028FAD0606AC0F3080010BD3D
:101A80000368034AD8691360C0F3C010704700BFF1
:101A90003004002038B5044605682046FFF7F0FF03
:101AA0000028FAD0C1F30801A96238BD054B1868B7
:101AB00030B901221A60044A044B1A60FFF70CBCCB
:101AC000704700BFE0020020000C0040A40200208C
:101AD00008B5044B1B680BB9FFF7E8FF024B586AC7
:101AE00008BD00BFE0020020000C0040034B1B6853
:101AF0005863DA6842F00202DA607047A4020020FC
:101B0000034B1A68D36823F00203D360704700BF09
:101B1000A4020020024B6FF002021B681A6170479A
:101B2000A402002008B572B6962000F0CBF89620EB
:101B300000F0C8F8F8E700000FB4064B07B504AA98
:101B40001B6852F8041BD868019200F02FFE012098
:101B500000F0B0F93002002038B50D460446C168E7
:101B6000436802B91B040B6020460121FFF77BFD8F
:101B700029462046BDE83840FFF771BD70B50E46D6
:101B800004461546FFF756FD013606D02A46204684
:101B90000021BDE87040FFF7DFBF70BD0022FFF7F6
:101BA000EDBF000010B50446013001D110BD0C316D
:101BB000B1F900305A1C0BD09C42F8D120468968FC
:101BC000FFF712FE20460021BDE81040FFF730BEAF
:101BD0000248BDE81040FFF7AFBF00BFDC6D000852
:101BE000884208B50AD0431C07D0013106D004480A
:101BF000FFF7A2FF4FF0FF3008BD084608BD00BF49
:101C0000ED6D0008B1F900305A1C05D0834201D1B6
:101C1000486870470C31F5E718467047421C10B50C
:101C2000044607D0FFF7EEFF431C044602D10248EA
:101C3000FFF782FF204610BDFE6D0008036870B5F7
:101C4000DB680446984763685A6823681AB99B683A
:101C5000BDE87040184715685B689847281A6368A4
:101C600000285A6807DC916859601B68002BEAD08D
:101C700050689847E7E7236810681B69BDE8704023
:101C8000184700000148FFF7D9BF00BF506E000899
:101C900038B50446FFF71CFF0546FFF719FF401B48
:101CA000A042FAD338BD000007EE100ADFED047A37
:101CB00067EE277AFDEEE77A17EE900AFFF7E8BFA6
:101CC000002474494FF47A735843FFF7E1BF0000D2
:101CD0001FB500211022684600F080FB05216846F0
:101CE000FFF75CFF019A039B05481A60FFF7DCFFD2
:101CF000019B039A1B0402481360FFF7D5FFF1E72D
:101D000000007A44044B1B6823B9172209210348B9
:101D1000FFF7D0BD704700BFA0020020A004002044
:101D200002284FF0000309DDC21E074951F82200C6
:101D300041F8223020B103685B68184718467047A5
:101D40004FF0FF30704700BFEC020020022870B552
:101D50000C4615460FDC0E4B1B680BB9FFF7D2FF84
:101D60006619B44205D014F8011B0A48FFF792FE29
:101D7000F7E7284670BD0338074B53F8200020B121
:101D80000368BDE870401B6818474FF0FF3070BD16
:101D9000A0020020A0040020EC020020022810B5C0
:101DA0000C460ADC0B4B1B680BB9FFF7ABFF0A486C
:101DB000FFF75AFE2070012010BD0338074B53F87F
:101DC000200020B10368BDE810409B6818474FF021
:101DD000FF3010BDA0020020A0040020EC02002073
:101DE000022807DD0338064B53F8200020B10368B2
:101DF000DB681847012070474FF0FF30704700BF85
:101E0000EC020020022807DD0338064B53F82000BF
:101E100020B103681B691847002070474FF0FF305E
:101E2000704700BFEC020020022808B504D84FF428
:101E3000005300204B6008BD00F036F80923036012
:101E40004FF0FF3008BD704708B5FFF713FCFFF7F0
:101E5000FAFFBDE80840FFF73BBF0000074A1368E0
:101E60001844EFF30881884223BF0C22044B4FF043
:101E7000FF3010602CBF1A6018467047CC0100205C
:101E8000BC040020074C054608B52368986800F09C
:101E9000D7F82368D86800F0D3F80DB1FFF742FEF9
:101EA000FEE700BF30020020014B1868704700BFFA
:101EB0003002002008B5074B044613B10021AFF3F0
:101EC0000080054B1868836A03B198472046FFF7E6
:101ED000D9FF00BF00000000BC6E00088A892DE910
:101EE000F041054610070C4659D44B68002B02DC24
:101EF0000B6C002B17DDE66AAEB102F480520023B2
:101F000092B22F682B600AB1606D15E0216A01233F
:101F10002846B047411C0FD12B686BB11D2B01D057
:101F2000162B03D12F600020BDE8F081A38943F078
:101F30004003A381BDE8F081A3895A0705D56368F2
:101F4000C01A636B0BB1236CC01A00230246E66A09
:101F5000216A2846B047431CA38906D129681D2958
:101F60003AD8214ACA40D60736D500226260D90441
:101F70002269226004D5421C01D12B6803B9606537
:101F8000616B2F600029CED004F14403994202D046
:101F9000284600F02BFA00206063BDE8F0810F694D
:101FA000002FC0D093070E6808BF4B690F6018BFA1
:101FB0000023C7EB06088B6002E00744C0EB08086B
:101FC000B8F1000FAFDD43463A46216AA66A2846BB
:101FD000B0470028F1DCA38943F04003A3814FF010
:101FE000FF30BDE8F08100BF0100402038B50B692B
:101FF00005460C46DBB118B183690BB900F072F8E5
:102000000C4B9C4201D16C6808E00B4B9C4201D107
:10201000AC6803E0094B9C4208BFEC68B4F90C3093
:102020002BB121462846BDE83840FFF757BF0020B6
:1020300038BD00BF586E0008786E0008986E000822
:10204000014620B9044B0549186800F0B7B8044BA5
:102050001868FFF7CBBF00BFBC6E0008ED1F00087B
:1020600030020020014900F0A9B800BFED1F0008B0
:10207000002310B50446036043608360818143669A
:10208000C281036143618361194608225C3000F01C
:10209000A5F9054B6362054BA362054BE362054B53
:1020A0002462236310BD00BF0135000823350008FA
:1020B0005B3500087F35000870B568234D1E5D4311
:1020C0000E4605F1740100F0D7F9044640B1002135
:1020D00080E842000C30A06005F1680200F07EF953
:1020E000204670BD836910B5044633BB8364C36466
:1020F0000365124B124A1B688262984204BF012397
:10210000836100F01FF86060204600F01BF8A060BB
:10211000204600F017F80022E06004216068FFF715
:10212000A7FF01220921A068FFF7A2FF02221221C6
:10213000E068FFF79DFF0123A36110BDBC6E00089E
:1021400065200008F8B51C4B1E68B369074613B933
:102150003046FFF7C7FF4836B4687368013B04D4C4
:10216000B4F90C507DB16834F8E733680BB13668C8
:10217000F2E704213846FFF79FFF30600028F6D1D0
:102180000C233B60F8BD4FF6FF73E3810123A3816D
:1021900065662560A560656025616561A5610822A9
:1021A000294604F15C0000F019F96563A563A56494
:1021B000E5642046F8BD00BFBC6E00082DE9F84379
:1021C0008046894600F14804002694B1A5686768F6
:1021D000013F0CD4AB89012B07D9B5F90E3001337F
:1021E00003D029464046C84706436835F0E72468CF
:1021F000EBE73046BDE8F88370B50E4B0E4CE41AA1
:10220000A41000251E46A54204D056F82530984754
:102210000135F8E704F050FD084C094BE41AA4100E
:1022200000251E46A54204D056F8253098470135B2
:10223000F8E770BD700200207002002074020020D8
:1022400070020020F0B58B899D0791B006460C46C0
:1022500026D4B1F90E10002909DAA38913F0800FF2
:102260004FF0000514BF40274FF480670DE001AA2E
:1022700002F05AFF0028F0DB029D05F47045A5F539
:1022800000514D424D414FF480673946304600F0D1
:10229000F3F860B9A3899A051DD443F00203A38122
:1022A00004F14703236023610123636113E00B4BB7
:1022B000B362A389206043F08003A381206167613A
:1022C0004DB1B4F90E10304603F05EFA18B1A3898F
:1022D00043F00103A38111B0F0BD00BF65200008E9
:1022E000024B0146186800F0C7B800BF300200205A
:1022F00001F0FF01102A2BDB10F0070F08D010F8B7
:10230000013B013A8B422DD010F0070F42B3F6D1BA
:10231000F0B441EA012141EA014122F007047FF0D3
:1023200000070023F0E80256083C85EA010586EA2A
:10233000010685FA47F5A3FA87F586FA47F6A5FA66
:1023400087F68EB9EED1F0BC01F0FF0102F0070272
:1023500032B110F8013B013A83EA010313B1F8D11D
:102360000020704701387047002D06BF35460338FE
:10237000073815F0010F07D1013015F4807F02BF37
:10238000013015F4C03F0130F0BC0138704700BF88
:1023900010B5431E0A44914204D011F8014B03F8D2
:1023A000014FF8E710BD884210B501EB020301D8D8
:1023B000421E0BE09842FBD28118D21AD34204D0BD
:1023C00013F8014D01F8014DF8E710BD994204D012
:1023D00011F8014B02F8014FF8E710BD0244034623
:1023E000934202D003F8011BFAE7704730B5002989
:1023F0003ED051F8042C0B1F1E49002AB8BF9B1871
:102400000A680C4612B95A600B6030BD9A420ED968
:1024100019685818824204BF106852685A6004BF95
:1024200009181960236030BD994203D80A465168E3
:102430000029F9D1146815199D420AD11B6823445B
:10244000D0188142136013D10868034413604B68AD
:102450000DE002D90C23036030BD18681C18A1429E
:1024600004BF0C684968596004BF001918605360C4
:1024700030BD00BFF003002070B5CD1C25F0030572
:1024800008350C2D38BF0C25002D064603DA0C2329
:102490003360002070BDA942F9D81F4B1C681A4652
:1024A0002146A1B10B685B1B0ED40B2B03D90B602B
:1024B000CC18CD501EE08C420DBF63684B68636042
:1024C000136018BF0C4615E00C464968E9E7134C49
:1024D00023681BB9304600F0DBFF206029463046F8
:1024E00000F0D6FF431CD2D0C41C24F00304A04249
:1024F0000AD1256004F10B00231D20F00700C31A48
:1025000009D05A42E25070BD211A304600F0C0FF97
:102510000130EED1BBE770BDF0030020EC030020DA
:102520009368013B002B10B4936009DA9469A342CD
:1025300002DBCBB20A2B03D15DF8044B01F0E6BEFF
:102540001368581C10601970C8B25DF8044B7047CE
:10255000F8B506460F461446D518AC4208D03A46A0
:1025600014F8011B3046FFF7DBFF431CF5D100E0F8
:102570000020F8BD2DE9F04F9DB00C46174603939F
:10258000064618B183690BB9FFF7ACFD7F4B9C423F
:1025900001D1746808E07E4B9C4201D1B46803E02D
:1025A0007C4B9C4208BFF468A38918070CD52369AB
:1025B00053B10023099320238DF8293030238DF85F
:1025C0002A30DFF8D4B144E02146304601F004FF60
:1025D0000028EED04FF0FF30D5E0039A111D1268AD
:1025E0000391002A80F28C80524243F0020007924D
:1025F000049098F800302E2B00F08480032298F885
:1026000000106548FFF774FE48B14023CBEB000093
:1026100003FA00F0049B1843049008F1010898F8AD
:1026200000105E488DF82810062208F10107FFF718
:102630005FFE002800F09580594B002B40F0888009
:10264000039B073323F0070308330393099B534489
:102650000993B846454615F8013B1BB9B8EB070985
:102660000FD003E0252BF9D0A846F3E74B463A46B6
:1026700021463046FFF76CFF01307FD0099B4B4469
:10268000099398F80030002B78D000234FF0FF32E8
:1026900004930793059206938DF853301A930127FC
:1026A000052229783F48FFF723FE05F10108049B26
:1026B00038B13C4A801A07FA00F0184304904546A6
:1026C000EEE7D90644BF20228DF853201A0744BFF5
:1026D0002B228DF853202A782A2A3FF47EAF079ABE
:1026E00000210A20A846013598F80030303B092B1C
:1026F00003D800FB02320121F4E700293FF479AF4F
:10270000079276E798F801302A2B0BD1039B1A1D0C
:102710001B680392002BB8BF4FF0FF3308F102088B
:1027200005936BE70023059308F1010019460A257C
:102730008046013098F80020303A092A03D805FB7A
:1027400001210123F4E7002B3FF458AF059155E731
:1027500003AB00932246144B04A9304600F0C2F8A4
:1027600007E003AB009322460F4B04A9304600F06C
:1027700065FBB0F1FF3F82467FF468AFA3895B063B
:102780003FF528AF09981DB0BDE8F08F586E0008DE
:10279000786E0008986E0008C66E0008CA6E0008C1
:1027A000E5280008C06E00085125000813460A46B7
:1027B000014602480068FFF7DDBE00BF300200207E
:1027C0002DE9F04788B0002B149F1299109EDDF878
:1027D0004CA01D4627F02007BBBF03F100431D4658
:1027E00000232D231446B8BF1446462F0B7003D088
:1027F000452F03D1013601E0032300E0022307AA9D
:10280000049206AA03928DE8480422462B4601F062
:10281000EFFE472F804602D1119BDB0728D5462FBC
:1028200008EB060911D198F80030302B0AD10022AC
:1028300000232046294604F075F918B9C6F10106AF
:10284000CAF80060DAF800309944002200232046DC
:10285000294604F067F908B9302202E0CDF81C904F
:1028600006E0079B994503D9591C07911A70F8E7B0
:10287000079B159AC8EB03034046136008B0BDE8F8
:10288000F08773B503460029B8BF494203F8022B0D
:10289000B4BF2D222B220929427019DD0DF1070248
:1028A00016460A2591FBF5F405FB14113031092C6D
:1028B00002F8011D2146F5DC3031541E02F8011CDE
:1028C000B4421A460AD214F8012B03F8012BF7E799
:1028D00030241A46214402F8024B5970101A02B0F3
:1028E00070BD00002DE9F04F8FB00C4616461F4614
:1028F000DDF86080054602F057FFD0F800B058467A
:1029000000F041FE00230C93D8F800300890073304
:1029100023F0070303F1080294F81890C8F8002088
:10292000D3E90023C4E91223D4E9120100F086FDA3
:10293000012819D100220023D4E9120104F0FCF887
:1029400010B12D2384F843309A4B9B4AB9F1470FBD
:102950008CBF9046984603232361236823F0040329
:1029600023604FF0000A93E0D4E9120100F066FD05
:10297000236848B9914A9249B9F1470F8CBF8846FC
:10298000904603222261E9E7D4F804E0BEF1FF3F5C
:10299000D4E9120101D106220AE0B9F1670F02D091
:1029A000B9F1470F05D1BEF1000F40F0B681012209
:1029B0006260002206920CAA43F4806305920BAA7F
:1029C0002360039201930DF12B026368029200933E
:1029D00002460B46CDF810902846FFF7F1FE09F0AD
:1029E000DF03472B804609D10B9BD81C02DB6268B2
:1029F000934230DDA9F102095FFA89F9B9F1650F57
:102A00000B9912D801394A4604F150000B91FFF797
:102A100038FF0C9A8318012A8246236102DC22685F
:102A2000D1072FD5013323612CE0B9F1660F14D102
:102A30000029636807DD216113B92268D2071DD51B
:102A400001330B4419E013B92268D00701D50233D2
:102A500013E0012311E04FF067090B9B0C9A93429E
:102A600005DB22682361D10708D5013305E0002B7F
:102A7000D4BFC3F102030123134423610B9BA3655D
:102A80004FF0000A9DF82B3013B12D2384F843300A
:102A9000009733460DAA2146284600F059F9013027
:102AA00002D14FF0FF3050E123685A0501D4236969
:102AB00065E0B9F1650F40F2D58000220023D4E92A
:102AC000120104F02FF878B301233E4A314628461C
:102AD000B8470130E5D00C9B0B9A9A420BDB236878
:102AE000D80708D423689B0740F111814FF00008F4
:102AF00004F1190906E1089B5A4631462846B847B1
:102B00000130CED04FF0000804F11A090C9B013BB4
:102B10009845E7DA01234A4631462846B84701304E
:102B2000BFD008F10108F1E70B9B002B29DC012342
:102B3000244A31462846B8470130B2D00B9B23B90E
:102B40000C9B13B92368D907CCD5089B5A4631464C
:102B50002846B8470130A4D04FF0000904F11A0A02
:102B60000B9B5B42994509DA0123524631462846C0
:102B7000B847013095D009F10109F1E70C9B4246B5
:102B8000A7E00C9AA36D9A42A8BF1A46002A914664
:102B900007DC04F11A034FF0000A29EAE9790993E6
:102BA0001CE01346314642462846B8470130F0D172
:102BB00077E700BFD16E0008D56E0008D96E000817
:102BC000DD6E0008E16E00080123099A31462846AF
:102BD000B84701303FF465AF0AF1010AA36DC9EBB4
:102BE00003029245F0DB08EB03090B9A0C9B9A4217
:102BF0000FDB2368DA070CD40C9B0B9A9844C9EBC3
:102C000008089B1A9845A8BF9846B8F1000F08DC41
:102C10000FE0089B5A4631462846B8470130EBD1B1
:102C20003FE743464A4631462846B84701303FF41D
:102C300038AF4FF0000928EAE87804F11A0A09E0F1
:102C40000123524631462846B84701303FF429AFA8
:102C500009F101090B9A0C9B9B1AC8EB03039945D8
:102C6000EEDB3FE70C9A012A01DCDB0738D50123B4
:102C7000424631462846B84701303FF412AF089B20
:102C80005A4631462846B84701303FF40AAF002281
:102C90000023D4E9120103F045FF20B14FF00008F2
:102CA00004F11A090EE00C9B08F10102013B19E046
:102CB00001234A4631462846B84701303FF4F1AE79
:102CC00008F101080C9B013B9845F1DB534604F1E8
:102CD000500231462846B84701307FF403AFE0E6A2
:102CE0000123424631462846B8470130EED1D8E6A6
:102CF00001234A4631462846B84701303FF4D1AE59
:102D000008F10108E3680D9A9B1A9845F0DBE0682A
:102D10000D9B9842B8BF184617E0002206920CAAF5
:102D200005920BAA43F4806303920DF12B022360FA
:102D3000029201930246CDF81090CDF800E00B46C8
:102D40002846FFF73DFD80464EE60FB0BDE8F08F08
:102D50002DE9F04791461F460A698B68DDF820800F
:102D60009342B8BF1346C9F8003091F84320064695
:102D70000C4612B10133C9F800302368990642BFEE
:102D8000D9F800300233C9F80030256815F006057F
:102D900010D104F1190A07E00123524639463046A2
:102DA000C04701301AD00135E368D9F800209B1ADA
:102DB0009D42F1DB94F843302268003318BF0123B1
:102DC00092060FD5E1185A1C302081F843002244A6
:102DD00094F8451082F84310023303E04FF0FF30BF
:102DE000BDE8F08704F1430239463046C047013060
:102DF000F4D02268D9F80050E36802F00602042AF1
:102E000008BF5D1B2269A3680CBF25EAE575002594
:102E10009342C4BF9B1AED184FF000091A344D4578
:102E200009D00123224639463046C0470130D5D06B
:102E300009F10109F3E70020BDE8F0872DE9F0432F
:102E400017460A7E85B06E2A984606460C460C9BAD
:102E500001F1430E00F0AE8011D8632A22D009D8C8
:102E6000002A00F0BB80582A40F0CA8081F8452033
:102E7000834955E0642A1ED0692A1CD0C0E0732A19
:102E800000F0B08009D86F2A2ED0702A40F0B880A8
:102E90000A6842F020020A603EE0752A24D0782AAF
:102EA0003AD0ADE01A6801F14205111D19601368AE
:102EB00084F84230A8E021681A6811F0800F02D02F
:102EC000111D196008E011F0400F02F104011960B2
:102ED00002D0B2F9003000E01368002B3CDA2D225A
:102EE0005B4284F8432037E021681A6811F0800FB4
:102EF00002D0111D196007E011F0400F02F104012A
:102F0000196001D0138800E01368227E5C496F2AA3
:102F100014BF0A2208221BE078225A4984F845206F
:102F20002268186812F0800F00F104051D6003D1BB
:102F3000550601D5038800E00368D00744BF42F07E
:102F4000200222601BB9226822F020022260102297
:102F5000002084F8430001E049490A226568A56021
:102F6000002D08DB206820F0040020602BB9002D24
:102F70007DD175460CE0002B79D07546B3FBF2F09D
:102F800002FB1033CB5C05F8013D03460028F5D168
:102F9000082A0BD12368DA0708D5236962689A42A8
:102FA000DEBF302305F8013C05F1FF35C5EB0E030C
:102FB00023612EE008681A68496910F0800F03D079
:102FC000101D1860136808E010F0400F02F10400B3
:102FD0001860136801D0198000E019600023236194
:102FE000754616E01A68111D19601568626800219F
:102FF0002846FFF77DF908B1401B6060636804E074
:1030000004F1420584F8422001232361002384F85F
:103010004330CDF800803B4603AA21463046FFF7F7
:1030200097FE013002D14FF0FF3026E023692A4697
:1030300039463046C0470130F5D023689B0710D58C
:10304000002504F1190907E001234A4639463046B4
:10305000C0470130E7D00135E368039A9B1A9D42CF
:10306000F2DBE068039B9842B8BF184605E00B7896
:1030700084F8423004F142058AE705B0BDE8F083E8
:10308000E36E0008F46E00082DE9F04F9A468B6855
:1030900016465A1EB2F5AE7F87B083BF6FF4AE728C
:1030A0009B180193002386BF40F25D138B60019350
:1030B0000B68884643F4F06348F81C3B4FF0000B64
:1030C00007460C4645465A46CDF810B0CDF80CB030
:1030D000D946CDF808B0A168002900F0E580336832
:1030E0001B78492B70D016D8392B0DD8312B40D2F4
:1030F0002D2B46D002D82B2B43D0D5E02E2B00F021
:103100009280302B23D0CFE0452B00F09580462BCA
:1031100077D0412B0CE0652B00F08E800AD8542B21
:1031200075D002D84E2B34D0BEE0592B75D0612B10
:1031300046D0B9E06E2B2CD004D8662B61D0692B19
:1031400042D0B1E0742B62D0792B66D0ACE020681D
:1031500010F4807F0DD0019B20F08000206009F1E9
:103160000109002B00F08780013B01310193A16030
:1031700081E012EB0B0F40F09780216821F4C071C1
:1031800005E02168080640F18F8021F08001216070
:103190006FE06AB9B9F1000F0CD1216801F4E06069
:1031A000B0F5E06F06D121F4F0612160012260E00A
:1031B000022A5DD0BBF1010F1ED0BBF1040F1AE053
:1031C000012A71D1022254E0BBF1000F0ED1B9F1F6
:1031D000000F6CD1216801F4E060B0F5E06F6AD1B6
:1031E00021F4F06121604FF0010B42E0BBF1030FCD
:1031F00002D0BBF1050F57D10BF1010B5FFA8BFB2E
:1032000037E0BBF1020F4FD14FF0030B31E0BBF1C0
:10321000060F49D14FF0070B2BE0BBF1070F43D14D
:103220004FF0080B25E0216888053DD521F4207179
:103230002160CDF808901CE0216801F4A060B0F591
:10324000806F04D048052FD5B9F1000F33D0880521
:103250005CBF0298049521F4F06158BFC0EB0900EF
:1032600041F4C07158BF039021604FF0000900E0A5
:1032700003222B700135A368013BA360236901334E
:1032800023617368013B002B736003DD33680133F6
:10329000336020E7D4F880310592314638469847AC
:1032A000059A00283FF417AFB9F1000F03D0236847
:1032B00023F480732360013A012A0ED845450AD9C8
:1032C000D4F87C3115F8011D3246384698472369F9
:1032D000013B2361F2E70126AAE00BF1FF33062B45
:1032E00022D8BBF1020F12D9ABF1030B5FFA8BFBB3
:1032F000CBEB050B5D4517D0D4F87C3115F8011DDB
:103300003246384698472369013B2361F2E7454539
:10331000E1D9D4F87C3115F8011D3246384698477A
:103320002369013B2361F2E72368DA052CD55B05AD
:103330000CD54545CFD9D4F87C3115F8011D32465E
:10334000384698472369013B2361F2E715F8011CD1
:103350002369652903F1FF3305F1FF3B23610DD09C
:1033600045290BD0D4F87C3132463846984723693A
:1033700015F8021C013BA5F1020B2361D4F87C3146
:103380003246384698475D46266816F010064ED1FC
:103390002E70236803F4C063B3F5806F05D1029BE0
:1033A000C3EB09035A4263B915E0039B9BB104992F
:1033B0000A2332460131384600F022FF039B049D68
:1033C000C21A04F26F139D4228BF04F5B7751A495B
:1033D000284600F071F800224146384600F014F902
:1033E0002268DAF8003012F0020F8046894603D0D6
:1033F0001A1DCAF8002006E012F0040F03F10402BF
:10340000CAF8002003D01B68C3E900890BE01D68DF
:1034100000F014F810B900F04BF803E040464946BC
:1034200003F0FAFB2860E3680133E36000E0002664
:10343000304607B0BDE8F08F056F00080A4631F04E
:10344000004110B503461BD00F48A2F580148442FA
:1034500010D902F1FF420C4802F5E002824209D97C
:10346000B1F5801F08D3094A914207D1B3FA83F01E
:10347000400910BD042010BD032010BD002010BD68
:103480000028E6D1022010BDFFFFDF7F0000F07FA3
:1034900038B5064C0023054608462360FEF7DEFCDF
:1034A000431C02D1236803B12B6038BDBC0400204B
:1034B000004870470000C07F0EB400B59CB04FF4C8
:1034C00002711DABADF81410029006906FF0004130
:1034D0000A48049107914FF6FF7153F8042BADF899
:1034E00016100068019302A902F0ECFD029B002275
:1034F0001A701CB05DF804EB03B070473002002076
:1035000010B50C46B1F90E1002F0D0FE0028ABBF8A
:10351000636DA3891B1823F48053ACBF6365A3813B
:1035200010BD2DE9F0411F468B89DB0505460C4691
:10353000164605D502230022B1F90E1002F038F923
:10354000A389B4F90E1023F48053A38132463B467D
:103550002846BDE8F04100F02DBF10B50C46B1F98A
:103560000E1002F025F9431CA38915BF606523F4F2
:10357000805343F48053A38118BFA38110BDB1F9D8
:103580000E1000F095BF034613F8012B002AFBD163
:10359000181A0138704730B582B1451E013915F847
:1035A000013F11F8014FA34206D1EC431444E0421D
:1035B00001D0002BF3D11C46181B30BD104630BD86
:1035C0002DE9F0410F46904602F0CAFB04460D4635
:1035D000B8F1000F11D0C7F30A53C3F16B03002BEE
:1035E0000BDD1B0503F17F55002405F54015224630
:1035F0002B4603F02FF8BDE8F08120462946BDE8B0
:10360000F0810000000000002DE9F04F9FB0002382
:1036100080460C4615921A934FF0000A4FF0000BAB
:103620001991199B1A780D2A05D8092A13D2002A54
:1036300000F0AF8112E02B2A04D02D2A04D0202ADA
:103640000CD108E0002200E0012209925A1C1992D4
:103650005B782BB99DE101331993E2E700230993CD
:10366000199D2B78302B5CD16B78582B01D0782B9F
:103670004CD1099B01931AAB0093A84A1BAB19A923
:10368000404601F0AEFD10F00706044600F08585C7
:10369000062E05D1013500231995099300F07DBD53
:1036A0001A9A3AB135211CA802F042FC1A994046F8
:1036B00002F0C5F8062E22D8DFE806F0040D08183F
:1036C0001D0D04004FF0000BDA4618E0DDF870A085
:1036D000DDF874B013E01D9B1B9ADDF870A023F495
:1036E000801302F2334243EA025B08E0DFF830B2B3
:1036F0004FF0000A03E06FF0004B4FF0FF3A210754
:1037000040F14B854BF0004B00F047BD199B5A1C14
:1037100019925B78302BF9D0002B00F03E85012305
:1037200000E000230893199B0A9300230393059359
:1037300004930A22199D2E78A6F13003D9B20929E3
:1037400011D804990829D5BF0599039902FB0133C3
:1037500002FB0133D4BF05930393049B013501336E
:1037600004931995E6E7404602F01EF807684046C4
:1037700002F01AF80068FFF706FF394602462846AD
:10378000FFF709FF074628B100203346049D024693
:1037900001465AE0404602F007F80068FFF7F3FEE2
:1037A000199B1A181992049A1B5C002A45D11046DD
:1037B000302B05D1199B5A1C199201305B78F7E721
:1037C000A3F13102082A46D8199A0A92024600202B
:1037D0000546303B00F1010129D00A4405EB000CFD
:1037E00029460A2661450FD0013101F1FF3EBEF1A5
:1037F000080F03DC059F77430597F3E71029DEBF29
:10380000039F77430397EDE72844082800F101055B
:1038100005DC05980A2101FB0033059306E0102D15
:10382000DFBF03980A2101FB003303930021199B9A
:10383000581C19905B78084602E0049D38463A46C9
:10384000A3F130010929C4D90121652B01D0452BF1
:1038500051D16DB904E0652B40F0AD840022012107
:1038600028B9089B002B00F09480054600E0002555
:10387000199C631C199363782B2B06D02D2B02D037
:103880000026069606E0012300E000230693A31C11
:103890001993A378A3F13006092E2BD8302B04D12D
:1038A000199B5E1C19965B78F8E7A3F13106082E88
:1038B00021D8A3F1300E199B4FF00A0C1F46199B1B
:1038C0005E1C19965B78A3F13009B9F1090F04D891
:1038D0000CFB0E3EAEF1300EF1E7F61B082E44F65F
:1038E0001F6902DCF145A8BFF146069E2EB1C9F161
:1038F000000902E019944FF00009002D51D1002871
:1039000040F04B84089A002A40F04784002940D1B7
:103910004E2B1FD006DC492B09D03AE0206F00085F
:103920000000F07F692B02D06E2B13D031E0A74945
:1039300019A801F087FE60B3199BA549013B19A89E
:10394000199301F07FFE10B9199B01331993DFF829
:103950009CB21AE09F4919A801F074FEC8B1199BE6
:103960001B78282B0FD11CAA9B4919A801F07DFEBA
:10397000052808D11D9BDDF870A043F0FF4B4BF4E8
:10398000E00B00F00ABCDFF868B24FF0000A00F06C
:1039900004BC159B1994002B00F00A8400230993A2
:1039A000FDE3049B0598002B08BF2B46102D2C46E9
:1039B000C2EB0909A8BF1024049302F0D5FD092C1D
:1039C00082468B4613DD854B03EBC40353E9122378
:1039D00002F040FE064603980F4602F0C5FD02467F
:1039E0000B463046394602F083FC82468B460F2D4B
:1039F00036DCB9F1000F00F0D08324DDB9F1160FE9
:103A000007DC764D05EBC90952465B46D9E9000152
:103A100014E0C5F12503994522DC704CC5F10F0572
:103A200004EBC501C5EB090552465B46D1E900012F
:103A300004EBC50402F00EFED4E9002302F00AFEF6
:103A400082468B46A9E319F1160F09DB634DA5EBFE
:103A5000C909D9E900235046594602F025FFEFE78E
:103A60002C1B4C44002C56DD14F00F010AD05B4B8C
:103A700003EBC10152465B46D1E9000102F0EAFDC9
:103A800082468B4634F00F0400F0B680B4F59A7F7E
:103A90000BDD0024A146059404942223C8F80030CD
:103AA000DFF848B14FF0000A7AE100234C4E2411B0
:103AB000504659461F46012C0ADDE20704D5D6E9D7
:103AC000002302F0C7FD0123013764100836F2E736
:103AD0000BB182468B46424BABF1547B03EBC707DD
:103AE00052465B46D7E9000102F0B4FD21F00043E5
:103AF0008B460A461B0D3B491B058B428246C8D8A4
:103B0000A1F580118B4286BFDFF8E8B04FF0FF3A95
:103B100002F1547B70E06FD0644214F00F020AD0BF
:103B20002E4B03EBC20350465946D3E9002302F063
:103B3000BBFE82468B4624115ED01F2C04DD002480
:103B4000A1460594049424E114F0100F0CBF002347
:103B50006A23254E0393504659460023002C09DD65
:103B6000E20704D5D6E9002302F074FD01236410B6
:103B70000836F3E70BB182468B46039BEBB1CBF3E0
:103B80000A53C3F16B03002B594616DD1F2B0EDDC4
:103B9000342BDEBF203B4FF0FF3202FA03F34FF02D
:103BA000000ACCBF4FF05C7B03EA010B05E04FF04D
:103BB000FF3202FA03F303EA0A0A00220023504606
:103BC000594602F0AFFF0028B9D117E0D66E0008C1
:103BD00064700008DE6E00080C6F00087870000842
:103BE000407100080000A07C386F00080000F07FE2
:103BF0000000F8FFFFFFEF7F00230393059B009376
:103C0000049A0A992B46404601F06BFE0590002865
:103C10003FF43FAFB9F1000FC9F10003A8BF002383
:103C20000E93002429EAE9730F93A146059B4046B1
:103C3000596801F0CFFD049000283FF42EAF059B9A
:103C40001A69023203F10C0192000C30FEF7A0FB5E
:103C50001CAB01931BAB009352465B464046CDE93B
:103C60000AAB02F0EEF81A9000283FF416AF0121DB
:103C7000404601F0C1FE814600283FF40EAF1B9B79
:103C800003991C9D002BADBF0E9A0F9A0E9FD7185B
:103C9000B8BFD21AA3EB01032B44B249A8BF0F9AB5
:103CA000013B8B42C5F1360580F28680C91A1F2977
:103CB000A5EB01054FF0010077DC00FA01F3149346
:103CC000002306937E19039BB74215441D443B46CF
:103CD000A8BF3346AB42A8BF2B46002BC2BFF61A83
:103CE000ED1AFF1A0E9B002B6BD1002E00F3828081
:103CF0000F9B002B40F08880002D00F38F80002F59
:103D000000F39680049A1A99404601F0CAFF0446CF
:103D100000283FF4C2AEC36808930023C36049463D
:103D200001F0A3FF002880F29180089B002B40F057
:103D30000D82BAF1000F40F00982CBF31303002B80
:103D400040F004822BF000431B0D1B05B3F1D66F2E
:103D500040F2FC816369002B74D021460122404669
:103D600001F032FF4946044601F07FFF002840F38E
:103D7000ED812BF00043039A1B0D1B05002A00F078
:103D80009480B3F1D66F00F39080B3F15C7F00F3C1
:103D9000DF8122234FF0000A4FF0000BC8F80030FB
:103DA000059B002B40F0E581F7E16F4E1490F61A69
:103DB00000FA06F3069385E7002306930123149384
:103DC00080E749461A46404601F0B0FE8146002889
:103DD0003FF463AE01461A9A404601F016FE089081
:103DE00000283FF45AAE1A99404601F028FD089B7E
:103DF0001A937AE732461A99404601F0E5FE1A9086
:103E000000287FF475AF48E60F9A0499404601F008
:103E10008DFE049000287FF46FAF3EE62A46049999
:103E2000404601F0D1FE049000287FF468AF34E6EC
:103E300049463A46404601F0C7FE814600287FF4D5
:103E400061AF2AE62369012B87DC7FE162D1089A02
:103E5000CBF3130322B345498B425A462ED1039B21
:103E6000514663B1424B1340B3F1D46F07D81B0DD9
:103E7000C3F16B034FF0FF3000FA03F301E04FF0A2
:103E8000FF338B421AD13B498A4202D101333FF4BE
:103E900004AE374B134003F5801B4FF0000A55E189
:103EA00063B9BAF1000F09D163E7A3F580136FEA94
:103EB000135B6FEA0B5B4FF0FF3A47E1069B13B1D0
:103EC00013EA0B0F02E0149B13EA0A0F00F03E8185
:103ED000089B039A5046594653B1FFF771FB0246BF
:103EE0000B46DDE90A0102F003FA82468B462DE11A
:103EF000FFF766FB02460B46DDE90A0102F0F6F920
:103F00000022002382468B4602F00CFE00287FF43C
:103F100040AF1BE14946204601F0E1FF00224FF08F
:103F2000804306460F4602F011FE002841D0089B50
:103F300013B10022104B0FE0BAF1000F03D1CBF305
:103F400013033BB91CE0BAF1010F03D1BBF1000F21
:103F50003FF41FAF094B0022CDE906230026064F90
:103F60003CE000BF02FCFFFFE2FBFFFFFFFF0F0092
:103F70000000F07FFFFFEF7F0000F03F0000F0BF88
:103F80000022994B3046394602F0D6FD40B9304602
:103F900039460022954B02F05DFB06460F4601E0D4
:103FA000924F002607F1004316961793DDE916237A
:103FB00012E08E4B30463946002202F04BFB089B44
:103FC00006460F4623B901F100431090119301E01A
:103FD000CDE91067DDE91023CDE906232BF000457C
:103FE0002D0D834B2D059D422BD1DDE90A23ABF12D
:103FF000547B50465946CDE90C2301F0B1FE0246F0
:104000000B46DDE9060102F025FB52465B4602F055
:104010006FF921F000431B0D764A1B05934282463F
:104020000CD9754B0D9A9A4203D10C9B01333FF486
:1040300034ADDFF8C4B14FF0FF3A76E001F1547BC4
:104040003BE0039B3BB3B5F1D46F24D85EA3D3E927
:1040500000233046394602F079FDB8B13946304682
:1040600002F0BAFD002808BF012002F07DFA089B8B
:1040700006460F4623B901F100431290139301E065
:10408000CDE91267DDE91223CDE90623079B03F191
:10409000D6635B1B0793DDE90A01DDE906AB01F09E
:1040A0005FFE02460B465046594602F0D3FADDE960
:1040B0000A2302F01DF982468B46039B002B34D164
:1040C0002BF000431B0D1B059D42CDF828B02CD1D1
:1040D0003946304602F058FD02F056FA0B460246C9
:1040E0003946304602F002F9089BCDE9060133B9A2
:1040F000BAF1000F03D10A9BC3F313067EB134A3B8
:10410000D3E90023DDE9060102F016FD88BB32A3E6
:10411000D3E90023DDE9060102F02CFD04E030A321
:10412000D3E9002302F008FD18BB1A99404601F0BC
:1041300086FB0499404601F082FB4946404601F067
:104140007EFB2146404601F07AFB6FE5039B83B17D
:104150002A4B0D9300230C9350465946DDE90C235E
:1041600002F078FA82468B4619B910B92223C8F8B2
:1041700000301A99404601F062FB0499404601F074
:104180005EFB4946404601F05AFB0599404601F066
:1041900056FB2146404601F052FB159B13B1159A80
:1041A000199B1360099B1BB150460BF1004107E0BE
:1041B0005046594604E000252A460121FFF747BB37
:1041C0001FB0BDE8F08F00BF0000C0FFFFFFDF4160
:1041D0009535A094FFFFDF3F35E5AF350000E03FA8
:1041E0009535A094FFFFCF3F0000F03F0000E03F77
:1041F0000000E07FFFFF9F7CFFFFEF7F0000503952
:104200002DE9F04780464048D0F800900F463D46E3
:1042100015F8014B09EB0400407800F0080000F0AD
:10422000FF0608B12F46F2E72D2C03D1BD1C7C7888
:10423000012603E02B2C04BF7C78BD1C13B1102B8E
:104240000AD15BE0302C57D1287800F0DF005828E5
:104250004DD16C7810230235002E14BF4FF0004C66
:104260006FF0004C0027BCFBF3FA384603FB1ACC76
:1042700009EB040E9EF801E01EF0040F01D0303C63
:104280000BE01EF0030E1BD0BEF1010F0CBF4FF070
:10429000370E4FF0570ECEEB0404A34210DDB7F1FA
:1042A000FF3F0AD0504506D801D1644503DC03FB2B
:1042B0000040012701E04FF0FF3715F8014BD7E729
:1042C0007B1C0CD1002E4FF0220314BF4FF0004096
:1042D0006FF00040C8F800302AB9BDE8F08706B199
:1042E000404272B107B1691E1160BDE8F087302409
:1042F000002BB1D10823AFE70A23ADE7302CA3D0C0
:10430000AAE7BDE8F08700BF34020020F8B50F46E9
:104310001446064618B183690BB9FDF7E3FE224B3C
:104320009C4201D1746808E0204B9C4201D1B468E2
:1043300003E01F4B9C4208BFF468A369A360A389F4
:104340001A0709D523693BB123682069181A6369E4
:104350009842FDB20FDB08E02146304600F03CF801
:104360000028F1D04FF0FF30F8BD21463046FDF770
:104370003DFE0028F6D1A368013BA36023685A1CC8
:1043800022601F706269431C934204D0A389DB073B
:1043900007D50A2D05D121463046FDF727FE002816
:1043A000E0D12846F8BD00BF586E0008786E0008BE
:1043B000986E000838B5074C05460846114600229D
:1043C00022601A46FDF7C2FC431C02D1236803B1E8
:1043D0002B6038BDBC040020314B70B51D6806460B
:1043E0000C4625B1AB6913B92846FDF77BFE2D4B72
:1043F0009C4201D16C6808E02B4B9C4201D1AC6817
:1044000003E02A4B9C4208BFEC68A3899AB21107CB
:104410001DD4D50602D40922326038E0500712D5E7
:10442000616B41B104F14403994202D03046FDF77B
:10443000DDFF00236363A38923F02403A38100230A
:10444000636023692360A38943F00803A381236980
:104450004BB9A38903F42073B3F5007F03D0214641
:104460003046FDF7EFFEA38913F0010205D00022CC
:10447000A26062695242A26103E0990758BF626973
:10448000A26022694AB903F0800080B230B143F0E3
:104490004003A3814FF0FF3070BD002070BD00BF0E
:1044A00030020020586E0008786E0008986E0008F0
:1044B00038B5064C0023054608462360FDF730FC5E
:1044C000431C02D1236803B12B6038BDBC0400201B
:1044D0002DE9F74F03690C699C42804600F3838005
:1044E000013C01F114074FEA840E00F1140657F85D
:1044F000245006EB0E030193013556F82430B3FB2C
:10450000F5F507EB0E09002D39D04FF0000A3846BB
:10451000B446D34650F8042B93B205FB03A34FEAED
:10452000134A9BB2C3EB0B03120CBCF800B005FBA3
:1045300002A213FA8BF34FEA124A1FFA82FBDCF84D
:104540000020CBEB124202EB23429BB243EA024330
:1045500081454FEA224B4CF8043BDBD256F80E3033
:104560006BB9019B043B9E421A4602D3C8F8104027
:1045700005E01268043B002AF8D1013CF3E740460D
:1045800001F073FB00282CDB013530464FF0000EA4
:1045900057F8041BD0F800C08AB2C2EB0E03090C16
:1045A00013FA8CF3C1EB1C4202EB23429BB243EAA9
:1045B0000243B9454FEA224E40F8043BE8D256F890
:1045C000242006EB840362B9043B9E421A4602D3C0
:1045D000C8F8104005E01268043B002AF8D1013CFD
:1045E000F3E7284600E0002003B0BDE8F08F0000AC
:1045F0002DE9F04F456A97B08246239CCDE902230E
:1046000045B91020FDF76CFECAF8240045608560AE
:104610000560C560DAF82430196859B15A684A60F3
:10462000012393408B60504601F009F9DAF82430F9
:1046300000221A60039BA04A002BBFBF0123236006
:10464000039B23F00043B8BF0393DDF80C80A4BFA5
:104650000023236028F000431B0D1B0593421DD14E
:10466000229A42F20F731360029B43B9934A944B10
:10467000C8F31300002814BF1846104600E0904805
:10468000249B002B00F04A85C37813B100F1080386
:1046900000E0C31C249A136000F040BDDDE9024530
:1046A000002200232046294602F03CFA074658B172
:1046B000229A01231360249B002B00F0228581485D
:1046C0001860013800F02ABD14AB019315AB0093BC
:1046D00022462B46504601F0B4FBC8F30A5605901B
:1046E00056B1C5F3130343F07F51204641F4401106
:1046F000A6F2FF3611971DE0159B149E1E4406F28C
:104700003243202B0ADD029A06F21240C3F1400325
:1047100022FA00F008FA03F3184304E0C3F1200082
:10472000029B03FA00F001F01FFF0123A1F1F871D1
:10473000013E11930022644B01F0D8FD58A3D3E948
:10474000002301F087FF58A3D3E9002301F0D0FD37
:10475000044630460D4601F017FF55A3D3E9002368
:1047600001F078FF02460B462046294601F0C0FDC5
:1047700004460D4602F008FA002283460023204634
:10478000294602F0D9F958B1584601F0FDFE02461B
:104790000B462046294602F0C5F908B90BF1FF3B4C
:1047A000BBF1160F0DD8494901EBCB01DDE902231E
:1047B000D1E9000102F0DEF930B10BF1FF3B00233B
:1047C00000E00123109300E01090149B9E1B731EC9
:1047D000089343BFC3F10009002308934FF0000979
:1047E000BBF1000F07DB089BCDF834B05B440893A6
:1047F0000023099306E0CBF1000309930023CBEBE0
:1048000009090D93209B092B27D8052BC4BF043B16
:104810002093209BA3F10203CCBF00250125032B8D
:1048200020D8DFE803F0060E0204012302E0012392
:1048300008E000230C93219B002B1CDD0693984677
:104840001EE000230C93219B5B4403F101080693B7
:104850004346012BB8BF012312E00125002320931A
:104860000C9501E001230C934FF0FF33069398461B
:104870000022122303E00123069398461A46219250
:10488000DAF8244000226260042101F114029A4205
:104890001ED86268013262604900F6E7AFF300801B
:1048A00061436F63A787D23FB3C8608B288AC63F36
:1048B000FB799F501344D33F0000F07F61700008E4
:1048C0006A700008E26E00080000F83F7870000887
:1048D0006168504600F07EFFDAF8243020601B68E3
:1048E0000793B8F10E0F00F25D81002D00F05A81A0
:1048F0009DED027BBBF1000F8DED0E7B31DDA04AFB
:104900000BF00F0302EBC30393ED007B4FEA2B1474
:10491000E2068DED0A7B0CD59A4BDDE90E01D3E959
:10492000082301F0C1FF04F00F04CDE902010326C2
:1049300000E00226934D6CB1E30708D5DDE90A01DA
:10494000D5E9002301F086FECDE90A0101366410A5
:104950000835F0E7DDE90A23DDE9020101F0A4FFF3
:1049600020E0CBF1000404B3854B864D04F00F0228
:1049700003EBC203D3E90023DDE90E0101F06AFE77
:10498000CDE9020124110023022654B1E70705D521
:10499000D5E9002301F05EFE0136012364100835DD
:1049A000F3E71BB1CDE9020100E00226109BEBB159
:1049B000DDE902450022744B2046294602F0BCF88E
:1049C000A0B1B8F1000F11D0069B002B40F3E68098
:1049D0000BF1FF330A9300226C4B2046294601F06D
:1049E00039FE0136CDE90201069F02E0CDF828B07C
:1049F0004746304601F0C8FDDDE9022301F02AFEFA
:104A00000022634B01F074FC0446A1F15075CFB94C
:104A10000022604BDDE9020101F068FC22462B46D2
:104A2000CDE9020102F0A6F8002840F041822246BA
:104A300005F10043DDE9020102F07EF8002840F0B4
:104A40002E82ABE00C9A4E4B791E002A4AD003EB23
:104A5000C103D3E9002300204F4901F025FF22467E
:104A60002B4601F043FC079C05460E46DDE902019A
:104A700002F08AF8129001F087FD02460B46DDE94C
:104A8000020101F033FC129B303304F8013B2A464B
:104A90003346CDE9020102F04FF8002840F02183AF
:104AA000DDE902230020384901F020FC2A46334684
:104AB00002F042F8002840F0D280079BE31ABB4284
:104AC0006CDA0022314B2846314601F0C3FD00224A
:104AD00005460E462D4BDDE9020101F0BBFDCDE997
:104AE0000201C3E703EBC10122462B46D1E90001D5
:104AF00001F0B0FD079BCDE91201DC191D46DDE98F
:104B0000020102F041F8064601F03EFD3036024651
:104B10000B46DDE9020101F0E9FB05F8016BAC424F
:104B2000CDE902014FF0000223D11B4BDDE9120158
:104B300001F0DEFB02460B46DDE9020102F01AF845
:104B4000002840F08C80DDE912230020124901F09A
:104B5000CDFB02460B46DDE9020101F0EDFFE8B1B5
:104B600014F8013C302B04F1FF3240F0BA821446B5
:104B7000F6E7064B01F06EFDCDE90201BFE700BF8D
:104B800078700008407100080000F03F00002440E9
:104B900000001C40000014400000E03FDDE90E343E
:104BA000CDE90234159B002B7CDBBBF10E0F79DCC9
:104BB0008F4B03EBCB03D3E90067219B002B14DA67
:104BC000B8F1000F11DC40F06C810022894B3046B7
:104BD000394601F03FFDDDE9022301F0C1FF454602
:104BE0004646002840F05F8166E1079C32463B461E
:104BF000DDE9020101F058FE01F0C6FF054601F0B3
:104C0000C3FC32463B4601F025FD0B460246DDE97A
:104C1000020101F06BFB05F1300E04F801EB079B7C
:104C2000C3EB040EF045CDE902012ED102460B463E
:104C300001F05EFB8046894602460B463046394607
:104C400001F07AFF78B942464B463046394601F0CA
:104C500069FF002800F04782E90704D443E2DDF849
:104C600028B000E01C4614F8012C392A04F1FF3367
:104C700007D1079A9A42F5D1079930220BF1010B1F
:104C80000A701A7801321A702DE200225A4B01F094
:104C9000E1FC00220023CDE9020101F043FF0028DE
:104CA000A4D020E20C9A002A2DD0209A012A0ADCF6
:104CB000119A12B103F2334302E0149BC3F136039D
:104CC000099D4C4615E0099B08F1FF35AB42BFBF7B
:104CD000099B0995EA1A0D9BB7BF9B185D1B0D93A5
:104CE0000025B8F1000FB9BFC8EB090400234C46FA
:104CF0004346089A01211A4450469944089200F00C
:104D00007BFE064602E0099D0C9E4C465CB1089B6A
:104D1000002B08DDA342089AA8BF2346C3EB09096C
:104D2000E41AD31A0893099B002B1DDD0C9BABB131
:104D300085B131462A46504600F0F8FE059A0146F4
:104D40000646504600F061FE05990746504600F0C1
:104D500076FD0597099B5A1B06D000E0099A059934
:104D6000504600F0E3FE05900121504600F044FE5D
:104D70000D9B05465BB31A460146504600F0D6FE31
:104D8000209B012B054618DC029B83B9039BC3F3D0
:104D9000130373B9039B23F000473F0D3F054FB149
:104DA000089B013309F101090893012702E000275C
:104DB00000E0029F0D9B73B100E000272B6905EB1B
:104DC0008303186900F0CBFDC0F1200004E0209BB4
:104DD000012BD9DD0D9F0120089B184410F01F0006
:104DE0000ED0C0F12003042B08DDC0F11C0008E048
:104DF00078700008000014400000244006D01846D7
:104E00001C30089B0344814404440893B9F1000F0B
:104E100005DD4A460599504600F0D6FE0590089BF0
:104E2000002B05DD29461A46504600F0CDFE05460A
:104E3000109BEBB12946059800F017FF002817DA00
:104E400000230A220599504600F010FD0C9B0590A6
:104E50000BF1FF3B002B00F05881002331460A2262
:104E6000504600F003FD069B002B064637DC33E07E
:104E7000B8F1000F2ADC209B022B27DDCDF818802B
:104E8000069B83B929460522504600F0EFFC0146F7
:104E90000546059800F0E9FE00280DDC03E03D46DC
:104EA00000E000252E46219B079C6FEA030B0AE0D9
:104EB000DDF828B03D463E46079B079A5C1C31232F
:104EC00013700BF1010BB0460026F7E00C9BCDF8F8
:104ED000188023B9079CB1E0209B022BD0DC002C6A
:104EE00005DD31462246504600F06EFE06469FB173
:104EF0007168504600F06EFC32690232044692003E
:104F000006F10C010C30FDF743FA01222146504610
:104F100000F05AFE804600E0B046029BDDF81C908F
:104F200003F00103089329460598FFF7D1FA3146AB
:104F3000044600F13007059800F097FE42460290C3
:104F40002946504600F0ADFEC36802463BB9014613
:104F50000990059800F089FE099A034600E00123B4
:104F600011465046099300F06AFC099B4BB9209A00
:104F70003AB9089A2AB9392F28D0029B002B1ADC9B
:104F80001BE0029A002A04DB1AD1209AC2B9089ABF
:104F9000B2B9002B11DD01220599504600F014FE34
:104FA0002946059000F061FE002802DC05D1FA07D1
:104FB00003D5392F0AD004F1310709F101040CE0BF
:104FC000002B09F101040BDD392F05D1392389F8B4
:104FD000003009F1010954E0013789F800706DE0F3
:104FE000079B069A04F8017CE31A9342A1463AD043
:104FF00000230A220599504600F038FC46450590EA
:105000004FF000034FF00A023146504604D100F041
:105010002DFC0646804686E700F028FC4146064601
:1050200000230A22504600F021FC80467BE7002343
:105030000A220599504600F019FC0590294605986A
:10504000FFF746FA00F1300704F8017B079B069A48
:10505000E31A9342EBDB079B012AACBF9B18013399
:10506000B0469946002601220599504600F0ACFD55
:105070002946059000F0F9FD002802DC15D1FB0758
:1050800013D54C4614F8013C392B04F1FF3209D1F9
:10509000079B934204D10BF1010B3123079A02E0E5
:1050A0001446EFE70133137008E04C4614F8013C56
:1050B000302B04F1FF3201D11446F7E72946504660
:1050C00000F0BDFBB8F1000F0DD02EB1464503D066
:1050D0003146504600F0B3FB4146504600F0AFFB6E
:1050E00001E0DDF828B00599504600F0A8FB002348
:1050F000229A23700BF101031360249B1BB11C60E7
:1051000001E008480AE0079808E0069B002B3FF7FB
:10511000E1AE209B022B7FF7DDAEB1E617B0BDE814
:10512000F08F00BFE16E000838B5074C002305463C
:10513000084611462360FCF777FE431C02D1236822
:1051400003B12B6038BD00BFBC040020F0B5066978
:105150004B11B34200F1140527DA11F01F0105EBE2
:10516000860605EB830201D1294616E0141D55F889
:105170002320C1F1200ECA402B46B44209D2276831
:1051800007FA0EF73A4343F8042B54F8042BCA40AD
:10519000F3E71A6052B1043308E0B2420B4605D27D
:1051A00052F8043B41F8043BF7E72B465B1B9B108E
:1051B000036103B94361F0BDA0F13003092B01D8AD
:1051C00020380AE0A0F16103052B01D8473804E03C
:1051D000A0F14103052B02D82738C0B27047002048
:1051E00070472DE9F04F8BB08A46904606930290A7
:1051F00000F0DAFA036803931846FEF7C4F9039B3C
:10520000019003444FF0000B13F8013C0793DAF8C8
:10521000003002331F4613F8010B302802D10BF186
:10522000010BF7E7FFF7C8FF0446E0B9019A0399BD
:105230003846FEF7B0F9002834D1019BF85CFE181F
:10524000FFF7BAFF80B33346187830281F4603F1C2
:105250000103F9D0FFF7B0FFB0FA80F56D093446CD
:105260004FF0010B01E000252C463A46164601326C
:105270003078FFF7A1FF0028F8D1019A0399304652
:10528000FEF789F950B954B9019BF4182246164625
:1052900001323078FFF790FF0028F8D134B1A41B19
:1052A000A40003E03E4600E0044601253378502B7D
:1052B00001D0702B2AD173782B2B08D02D2B03D043
:1052C000711C4FF0000905E04FF0010901E04FF0BB
:1052D0000009B11C0878FFF76FFF431EDBB2182BE3
:1052E00014D8A0F1100211F8010FFFF765FF431E5B
:1052F000DBB2182B04D80A2303FB0202103AF2E7B0
:10530000B9F1000F00D05242144400E03146CAF80F
:1053100000102DB1BBF1000F14BF002006207CE16E
:10532000F31B013B2946072B02DD01315B10FAE735
:10533000029800F04FFA019B00F1140A4FF00009A7
:10534000C3F101030546CDF810A0CB460893B74240
:105350002FD2731E0593079A16F8013C93420BD087
:10536000BBF1200F16D1049BC3F8009004334FF01B
:1053700000090493CB460DE0059B089A13449F4215
:10538000EED81846019A03990993FEF704F9099B90
:1053900068B1E5E716F8010CFFF70EFF00F00F000B
:1053A00000FA0BF0059B49EA00090BF1040B1E46BD
:1053B000CDE7049840F8049BCAEB000080102861F8
:1053C0004701484600F0CBFAD8F80060381AB042DE
:1053D00026DD871B3946284600F0C4FDC8B17B1E78
:1053E000591103F01F024FF001095AF8211009FA70
:1053F00002F20A420ED04B4502DC4FF0020909E0EE
:10540000B91E284600F0AEFD0028F6D04FF0030983
:1054100000E0814639462846FFF798FE3C440CE000
:1054200009DA371A29463A46029800F0CDFBE41B08
:10543000054600F1140A4FF00009D8F808309C42E4
:1054400008DD0298294600F0FAF9149A0023136047
:10545000A320E2E0D8F80400844253DA041BA642F9
:105460002EDCD8F80C30022B1AD0032B1CD0012BC9
:105470001DD1A6421BD1012E0BDC069AD8F80430B0
:10548000136001232B61CAF80030149B62201D6059
:10549000C3E0711E284600F065FD0028EDD106E04E
:1054A000159B002BE9D002E0159B002BE5D102985B
:1054B000294600F0C4F9149A002313605020ACE090
:1054C000671EB9F1000F06D13FB13946284600F0FA
:1054D00049FD814601E04FF001097A11012307F0EF
:1054E0001F0703FA07F75AF8223021461F422846C1
:1054F00018BF49F00209361BFFF728FE0227D8F82B
:10550000044000E00127B9F1000F00F08180D8F8D5
:105510000C30022B0ED0032B10D0012B76D119F0BA
:10552000020F73D0DAF8000049EA000919F0010F00
:1055300007D16BE0159BC3F101031593159B002B5D
:1055400064D0D5F810A005F114034FEA8A0903EBE3
:10555000090100201A68B2F1FF3F02D001321A603F
:1055600020E043F8040B9942F4D8AB689A4512DB6B
:1055700069680298013100F02DF92A69023205F1BB
:105580000C01834692000C30FCF702FF294602987A
:1055900000F055F95D462B695A1C05EB83032A611F
:1055A00001225A61022F05F1140211D1D8F80030FE
:1055B000013B9E4227D17111012306F01F0603FA19
:1055C00006F652F821301E420CBF022701271AE0CE
:1055D0002B699A450ADA01212846FFF7B7FDD8F86A
:1055E000083001349C423FF72CAF0BE016F01F0649
:1055F00008D09144C6F1200659F8040C00F0AFF928
:10560000B042E8DB012747F0200701E047F0100730
:10561000149B1D60069B38461C600BB0BDE8F08FE4
:10562000C2F10802920070B5C2F120064368056815
:1056300003FA06F42C43D340046040F8043F884248
:10564000F4D370BD30B5036811F8014B01334CB190
:105650001A78A2F14105192D98BF2032A242F3D049
:10566000002030BD0360012030BD2DE9F04F0B68F4
:10567000D0F800B05E1102EB860613F01F0385B070
:1056800018BF0436351F174600228246019346F89C
:10569000042CA8462C46009291461BF8011F0029B5
:1056A0003CD0084603920291FFF786FD039A00BBA7
:1056B0000299202916D8009B9945EEDD444505D274
:1056C000072A03DC41462046FFF7AAFFBC4223D944
:1056D0000023A4F1040844F8043CCDF800904446AB
:1056E0001A46DAE7292948D10BF10103CAF800303C
:1056F00014E00132082A09F1010906DDBC42CCD9C7
:10570000002344F8043C0122043C216800F00F000F
:1057100040EA01102060C0E70822BEE7B9F1000F9F
:105720002BD0444505D2072A03DC41462046FFF72B
:1057300077FFBC420CD93B4654F8042B43F8042BAA
:10574000A542F9D2002243F8042B9D42FBD20BE084
:10575000019B4BB1C3F120024FF0FF33D34056F809
:10576000042C134046F8043C2B6843B9BD4202D1D7
:1057700001232B6003E0043DF6E7042000E0052050
:1057800005B0BDE8F08F000038B5064C0023054693
:1057900008462360FCF724FB431C02D1236803B1B5
:1057A0002B6038BDBC040020004870473802002040
:1057B00038B5074C054608461146002222601A46B5
:1057C000FCF720FB431C02D1236803B12B6038BDDA
:1057D000BC04002070B5456A04460E463DB9102051
:1057E000FCF77EFD6062456085600560C560656AA6
:1057F000EB6843B1636ADB6853F8260078B102684E
:1058000043F8262017E021220421204600F0CCFB9B
:10581000636AE860DB68002BECD1002070BD0121D9
:1058200001FA06F56A1D9200204600F0BDFB002833
:10583000F3D04660856000230361C36070BD70B51E
:10584000446A06460D463CB91020FCF749FD7062DB
:10585000446084600460C4603DB1736A6A68DB6858
:1058600053F82210296043F8225070BD2DE9F04111
:105870000D691F4606460C4601F1140E0023DEF8A2
:10588000000081B202FB01710F0C000C02FB0070E2
:1058900089B2013301EB00419D424FEA10474EF8B7
:1058A000041BECDCD7B1A3689D4212DB6168304673
:1058B0000131FFF78FFF2269023204F10C018046AB
:1058C00092000C30FCF764FD21463046FFF7B7FF2D
:1058D000444604EB850301355F6125612046BDE840
:1058E000F0812DE9F8430C4615461F46092208337E
:1058F000064693FBF2F3002101229A4202DA52009B
:105900000131FAE73046FFF765FF089B4361092D37
:105910004FF00103036111DD04F10908C1462C4475
:1059200019F8013B0146303B0A223046FFF79EFF43
:10593000A145F5D108EB0504083C01E00A3409252E
:105940002D1B63199F4208DD14F8013B0146303BD3
:105950000A223046FFF78AFFF3E7BDE8F883030C1D
:105960001B0413B90004102300E0002310F07F4F44
:1059700004BF0002083310F0704F04BF000104336D
:1059800010F0404F04BF80000233002803DB4200C8
:1059900003D5581C7047184670472020704703688D
:1059A00013F007020BD0D90722D49A074BBF5B082C
:1059B0009B08036003604CBF01200220704799B22E
:1059C00009B91B0C102213F0FF0F04BF1B0A083289
:1059D000190704BF1B090432990704BF9B08023250
:1059E000D90702D45B0805D0013203601046704726
:1059F000002070472020704710B50C460121FFF7AA
:105A0000E9FE01224461026110BD2DE9F74F144601
:105A10000A6923699A42B8BF0B468846BCBFA046B4
:105A20001C46D8F81070D4F81090D8F80830D8F880
:105A3000041007EB09069E42C8BF0131FFF7CAFEFA
:105A400000F1140505EB860C2B460022634502D2BB
:105A500043F8042BFAE704F1140208F1140102EBF5
:105A6000890301EB87070093009B0192934257D96A
:105A7000B2F800B0BBF1000F23D08946AE464FF01C
:105A8000000859F8044BBEF800A0A3B20BFB03A317
:105A90004FEA144ADEF8004043444FEA14480BFB37
:105AA0000A8404EB1344F2469BB243EA04434F4595
:105AB0004FEA14484AF8043B01D9D646E1E7CEF84C
:105AC0000480019BB3F802A00432BAF1000F21D088
:105AD0002B682C4689464FF00008B9F800E0B4F86E
