:020000040800F2
:10000000000005207D1F0008C91F0008C91F000847
:10001000C91F0008C91F0008C91F00080000000010
:10002000000000000000000000000000210900089E
:10003000C91F000800000000C1090008250A0008C7
:10004000C91F0008C91F0008C91F0008C91F0008F0
:10005000C91F0008C91F0008C91F0008C91F0008E0
:10006000C91F0008C91F0008C91F0008C91F0008D0
:10007000C91F0008C91F0008C91F0008C91F0008C0
:10008000C91F0008C91F0008C91F0008C91F0008B0
:10009000C91F0008C91F0008C91F0008C91F0008A0
:1000A000C91F0008C91F0008C91F0008C91F000890
:1000B000C91F0008C91F0008C91F0008C91F000880
:1000C000C91F0008C91F0008C91F0008C91F000870
:1000D000C91F0008C91F0008C91F0008C91F000860
:1000E000C91F0008C91F0008C91F0008C91F000850
:1000F000C91F0008C91F0008C91F0008C91F000840
:10010000C91F0008C91F0008C91F0008C91F00082F
:10011000C91F0008C91F0008C91F0008C91F00081F
:10012000C91F0008C91F0008C91F0008C91F00080F
:10013000C91F0008C91F0008C91F0008C91F0008FF
:10014000C91F0008C91F0008C91F0008C91F0008EF
:10015000C91F0008C91F0008C91F0008C91F0008DF
:10016000C91F0008C91F0008C91F0008C91F0008CF
:10017000C91F0008C91F0008C91F000800000000AF
:10018000C91F0008C91F0008C91F0008C91F0008AF
:10019000C91F0008C91F0008C91F0008C91F00089F
:1001A000C91F0008C91F0008C91F0008C91F00088F
:1001B000C91F0008C91F0008C91F0008C91F00087F
:1001C000C91F0008C91F0008044B05481B1A062B4D
:1001D00002D9044B03B11847704700BFEB0200205F
:1001E000E80200200000000005490648091A8910AD
:1001F00001EBD171491002D0034B03B1184770478E
:10020000E8020020E80200200000000010B5064CC3
:10021000237843B9FFF7D8FF044B13B10448AFF379
:1002200000800123237010BDE802002000000000C0
:1002300014CB000808B5084B1BB108490848AFF3B8
:1002400000800848036813B9BDE80840CCE7064BB6
:10025000002BF9D09847F7E700000000EC020020DF
:1002600014CB0008E402002000000000154B002B16
:1002700008BF134B9D46A3F5803A00218B460F46DD
:100280001348144A121A05F059FA0F4B002B00D0EC
:1002900098470E4B002B00D0984700200021040007
:1002A0000D000D48002802D00C48AFF3008005F087
:1002B00053F82000290004F02DFD04F079FD00BF63
:1002C0000000080000000520000000000000000001
:1002D000E802002074090020000000000000000077
:1002E0002DE9F743224C0126224D4FF0000810273C
:1002F000214681464FF6FF722846CDF80480A6605D
:10030000C4F80C8084E8C00002F030FF304601F0F1
:100310007DFE022321464FF6FF722846A660C4F8F0
:100320000C8084E8880002F021FF032321464FF669
:10033000FF722846C4F80C8084E888000823A36074
:1003400002F014FF4FF408734FF6FF72214628465F
:1003500001930423A66084E88800019BE36002F017
:1003600005FF4946284602F018FF03B0BDE8F083B8
:100370000403002064030020554B9A6B42F00102F5
:1003800070B59A638EB09A6B06460EAC514802F077
:10039000010200250192019A1A6B42F480021A634D
:1003A0001A6B02F480020292029A1A6B42F0040263
:1003B0001A631A6B02F004020392039A1A6B42F05A
:1003C00008021A631A6B02F008020492049A1A6B6C
:1003D00042F010021A631A6B02F010020592059A9D
:1003E0001A6B42F020021A631A6B02F02002069286
:1003F000069A1A6B42F040021A631A6B02F040022E
:100400000792079A1A6B42F080021A6301221B6B53
:100410000B9203F080030893089B02230A930C932A
:100420000C230D93082344F8143D214602F048F8AC
:100430004CF20B7321462848099302F041F84FF61D
:10044000837321462548099302F03AF84FF63F039B
:1004500021462348099302F033F848F2331321462A
:100460002048099302F02CF8282321461E481F4CEF
:10047000099302F025F88023256320463463A360A6
:100480004FF400736560E3604FF48063E5612361BE
:100490004FF48053656263614FF48043E562A3616A
:1004A0004FF40033A66323620323A362104B23603F
:1004B00001F048FE204601F00DFE2A4605213820B5
:1004C00001F0C4FD382001F0F9FD0EB070BD00BF91
:1004D0000038024000080240000C024000100240B8
:1004E0000014024000180240001C024014030020C7
:1004F0001064024038B51A4C07211A4B04221A4DD9
:1005000020462360022369602B602B616B61AB6125
:100510001023E960002123614023616063614FF48F
:100520008073A160A3614FF40063E26023624FF423
:100530008053E1616362A162AA60FFF71DFF20465C
:10054000294602F0F3FD094C10B10123237000E0AD
:10055000207040F20360FFF7C3FE207838BD00BF73
:1005600064030020400100A098030020CC0100207B
:1005700070470000064B10B503F1180203604C33BE
:10058000044642655430436004F07EFA204610BDB4
:1005900060C30008A0F15400ECE7A0F15800E9E7BF
:1005A00010B5044604F0EEFB204610BD10B504461D
:1005B000FFF7E0FF204604F0E5FB204610BDA0F168
:1005C0005400F3E7A0F15800F0E7000010B50C4C20
:1005D00010220021204605F0B1F82046094C812167
:1005E00003F00AFF172209212046074B04F0A2F965
:1005F0002046064A0649BDE8104004F0BEBB00BFD5
:10060000B4030020CC030020ECBF0008C801002088
:10061000750500080F4B10B51A68824201D21346C7
:10062000FAE759685C18A04201BF406809181846EB
:10063000596041684418A24207D1074C2468A2427D
:100640001FBF54681268091941609842026018BFC0
:10065000186010BD400400203C0400202DE9F84340
:100660002D4B04461A681E4652B94FF0500372B61D
:1006700083F31188BFF36F8FBFF34F8F62B6FEE72E
:1006800000F0D4FD254BD3F8008018EA040F3DD1CB
:10069000002C37D004F108035A071CBF23F00703CE
:1006A0000833002B30D01E4FD7F800904B452DD883
:1006B0001C490D686C68A34203D83268954206D184
:1006C00024E02A68002AF8D029461546F2E728686F
:1006D0000E680860E11A0836102904D9E81841604C
:1006E0006B60FFF797FF6B680F49C3EB090248EA9D
:1006F000030308686B60002382423A602B6038BFB6
:100700000A6004E0264602E01E4600E0002600F0F3
:1007100035FE3046BDE8F8833C0400204C04002040
:1007200038040020400400204804002010B504468E
:10073000002832D0194A50F8043C126813420AD1FA
:100740004FF0500372B683F31188BFF36F8FBFF37E
:100750004F8F62B6FEE750F8081C51B14FF05003BE
:1007600072B683F31188BFF36F8FBFF34F8F62B6FA
:10077000FEE723EA020340F8043C00F057FD084A74
:1007800054F8041CA4F1080013680B441360FFF72D
:1007900041FFBDE8104000F0F1BD10BD4C04002049
:1007A00038040020F0B5354D2A683AB908301146B2
:1007B00016461446DFF8D4E0944629E04FF0500383
:1007C00072B683F31188BFF36F8FBFF34F8F62B69A
:1007D000FEE750F8081C4F0705D0CF1D0B4427F04B
:1007E0000707DB1B3946C6B98EE842000B44083BBD
:1007F00023F007035F1AC3F804C0C3F800C081E800
:10080000880002B111603C440136083001211A46CB
:1008100050F8043C002BDCD118E052B94FF05003E3
:1008200072B683F31188BFF36F8FBFF34F8F62B639
:10083000FEE78A42DAD34FF0500372B683F3118891
:10084000BFF36F8FBFF34F8F62B6FEE701B12A602F
:100850000B4B1C600B4B1C6054B94FF0500372B62D
:1008600083F31188BFF36F8FBFF34F8F62B6FEE73C
:100870004FF00042044B1A60F0BD00BF3C04002062
:1008800048040020380400204C04002040040020CC
:100890000C4B1B6801330AD04FF0500372B683F340
:1008A0001188BFF36F8FBFF34F8F62B6FEE74FF033
:1008B000500372B683F31188BFF36F8FBFF34F8F6E
:1008C00062B6FEE7D001002006480068006880F3A9
:1008D000088862B661B6BFF34F8FBFF36F8F00DF3A
:1008E00000BF000008ED00E0DFF80C00016841F4F3
:1008F000700101607047000088ED00E04FF08073E8
:1009000021F0010140F8202C44380364034BC163FB
:1009100083636FF002030362704700BF9108000811
:10092000074B19680868B0E8F04F80F30988BFF3F7
:100930006F8F4FF0000080F311887047AFF3008095
:10094000380500204FF0500372B683F31188BFF3CF
:100950006F8FBFF34F8F62B60B4A13680133012BC1
:1009600013600FD1094B1B6813F0FF0F0AD04FF033
:10097000500372B683F31188BFF36F8FBFF34F8FAD
:1009800062B6FEE7704700BFD001002004ED00E032
:10099000094A136853B94FF0500372B683F31188B4
:1009A000BFF36F8FBFF34F8F62B6FEE7013B13605B
:1009B0000BB983F311887047D001002000000000BC
:1009C000EFF30980BFF36F8F154B1A681EF0100FFD
:1009D00008BF20ED108A20E9F04F10604DF8043D6B
:1009E0004FF0500072B680F31188BFF34F8FBFF302
:1009F0006F8F62B600F09EFD4FF0000080F311880B
:100A000008BC19680868B0E8F04F1EF0100F08BF66
:100A1000B0EC108A80F30988BFF36F8F704700BF76
:100A20003805002008B54FF0500372B683F31188E3
:100A3000BFF36F8FBFF34F8F62B600F005FC18B1A4
:100A40004FF08052024B1A60002383F3118808BDD7
:100A500004ED00E0064B4FF47A721B68B3FBF2F32F
:100A6000044A013B13600722034B1A60704700BF22
:100A7000D401002014E000E010E000E0234B13B5A7
:100A80001A780021D2B20192FF221A701B78204AF4
:100A9000DBB28DF803309DF8033003F05003137080
:100AA00007221C4B1A609DF80300541E000608D54F
:100AB0009DF8032001215200D2B28DF80320224676
:100AC000F1E701B11A601A68120202F4E0621A60DA
:100AD000019B0E4ADBB213700F4B1A6842F470028E
:100AE0001A601A6842F070421A60FFF7B3FF0022E2
:100AF0000A4B1A60FFF7F8FE094A136843F04043B7
:100B00001360FFF7E1FEFFF7C3FE00BF00E400E063
:100B1000500400205404002020ED00E0D00100200B
:100B200034EF00E0EFF305830F2B10D9124A9B5CE2
:100B3000124A12789A420AD94FF0500372B683F3E0
:100B40001188BFF36F8FBFF34F8F62B6FEE70C4B78
:100B50000C4A1B68126803F4E06393420AD94FF011
:100B6000500372B683F31188BFF36F8FBFF34F8FBB
:100B700062B6FEE7704700BFF0E300E050040020DB
:100B80000CED00E054040020F8B50F4CFFF7DAFE3E
:100B90002568ADB90D4F0E4E384601F0ACF9304620
:100BA00001F0A9F90B4B2A460C211F600A200A4BC1
:100BB0001E6000F04DFF206010B1084901F064F99B
:100BC000BDE8F840FFF7E4BE880400205C04002084
:100BD00070040020580400208C040020F6BF000898
:100BE000914208B54160006106D8D21A83699A42E1
:100BF0000DD2011D074B05E09A4201D2994206D25F
:100C0000011D054B186801F090F9002008BD012076
:100C100008BD00BF8C0400205804002007B5FFF772
:100C2000B3FF0E4B1B685BB10D4B4FF482720D4945
:100C3000019302230C480093002300F0DDF950B922
:100C40004FF0500372B683F31188BFF36F8FBFF379
:100C50004F8F62B6FEE703B05DF804FB8804002006
:100C600090040020FBBF0008510D000830B5154668
:100C700085B01A46034650B94FF0500372B683F35D
:100C80001188BFF36F8FBFF34F8F62B6FEE70D4C35
:100C90002068A0B105290191029503930BDC00F0B7
:100CA00059FD0023022801A920680CBF089A1A46A2
:100CB00000F0F4FE03E0002301A900F0BBFF05B043
:100CC00030BD00BF880400202DE9F7431E4E4FF0D1
:100CD0000008374633681A686AB3DB68DC681D6849
:100CE00004F10409484601F038F9636A2046984740
:100CF000E369012BEED1A3692B449D4206D26360C8
:100D000049462461386801F010F9E3E70023CDF883
:100D100000802A4620461946FFF7A8FF0028D9D1AF
:100D20004FF0500372B683F31188BFF36F8FBFF398
:100D30004F8F62B6FEE7054A0349106813600860EA
:100D400003B0BDE8F08300BF580400208C040020ED
:100D50002DE9F04F704D89B0DFF8CC812F462B681C
:100D6000D3F800B0BBF1000F03D0DB68D3F80090DC
:100D700000E0D94600F05AFA00F060FA674B82466C
:100D80001A681E46904205D203930124FFF79CFF88
:100D9000039B00E00024C3F800A0002C4ED1BBF15F
:100DA000000F30D0CA4535D300F0E8FA3B68DB6865
:100DB000D3F80CB00BF1040001F0CFF8DBF81C30D5
:100DC000012B1BD1DBF818104B46524658464944BC
:100DD000FFF706FF90B1009423464A462146584645
:100DE000FFF744FF50B94FF0500372B683F31188F8
:100DF000BFF36F8FBFF34F8F62B6FEE7DBF824308F
:100E0000584698474CE0464B1B681A68B2FA82F283
:100E1000520900E02246434BCAEB0901186801F071
:100E200047F800F0ABFA00283AD14FF08053C8F8E9
:100E30000030BFF34F8FBFF36F8F31E000F09EFAA9
:100E40002EE0002305A9D9F800001A4600F05AFF49
:100E5000002884D0059B002BF3DB079C636913B14A
:100E6000201D01F07AF800F0E9F9336883469842D2
:100E700001D2FFF729FF059AC6F800B0092AE0D889
:100E80000123934013F4047A30D113F0C70F0AD032
:100E9000A1695A46069B20461944FFF7A1FE40B9B6
:100EA000DFF88090CDE79B06CBD52046FFF73EFCD0
:100EB000F6E7636A20469847E369012BF0D1A269FF
:100EC000534606992046CDF800A00A445146FFF744
:100ED000CDFE0028E4D14FF0500372B683F31188A1
:100EE000BFF36F8FBFF34F8F62B6FEE70699A16124
:100EF00051B94FF0500372B683F31188BFF36F8F6F
:100F0000BFF34F8F62B6FEE75B465A465944204610
:100F1000FFF766FEC4E700BF5804002084040020E9
:100F20008C0400208804002004ED00E0064A1368C9
:100F30001968064B11B94FF0FF3203E01268D2680E
:100F4000D26852681A607047980400203C0500205F
:100F5000F8B51C4B04461C4D0F461E68286804302B
:100F600000F0FBFF2B4640B92A68184DD16A0122D8
:100F700028688A4020EA02022A60621C07D137B141
:100F8000196813480431BDE8F84000F0C2BF34448A
:100F90001B680D4AA6425C6007D90E4B18681168A1
:100FA000BDE8F840043100F0C0BF0B4B1868116871
:100FB000043100F0BAFF094B1A68944200D21C6059
:100FC000F8BD00BF40050020380500209005002036
:100FD0007C05002044050020980400203C050020EA
:100FE0004FF0500372B683F31188BFF36F8FBFF3D6
:100FF0004F8F62B6FEE700002DE9F84F950080465E
:101000000F46994628460B9EFFF728FB824600288C
:1010100000F0A8805820FFF721FB044688B1C0F8F3
:1010200030A02A465046A52104F088FBA5F1040A09
:10103000256B7B1E04F133020937AA442AF0070A04
:1010400005E05046FFF772FB8CE09F4206D013F894
:10105000011F02F8011F19780029F6D10A9D4FF0EF
:10106000000B271D042D84F83DB03846C4F84CB061
:1010700028BF0425E562A564C5F1050500F046FF1B
:1010800004F1180000F042FFC4F850B024614A4651
:10109000A56141466462504684F854B0FFF72EFCC7
:1010A000206006B13460FFF74DFC304B304E1A68BB
:1010B000DFF8E88001321A60356815BB34601B68C0
:1010C000012B27D108EB0500143500F014FF642D27
:1010D000F8D1DFF8CC90274D484600F00CFF2846A9
:1010E00000F009FF244800F006FF244800F003FF49
:1010F000234800F000FF234BC3F80090224B1D60F3
:1011000008E0224B1B682BB93368DA6AE36A9A421B
:1011100000D834601E4A01251E491368013313604C
:10112000E26A236405FA02F00B68034314200B60A3
:10113000394600FB028000F0ECFEFFF729FC134B60
:101140001B6863B13368DA6AE36A9A4207D24FF0E8
:101150008052114B1A60BFF34F8FBFF36F8F284639
:10116000BDE8F88F4FF0FF30BDE8F88F6005002034
:1011700038050020640500204805002020050020D7
:101180007C05002098040020440500209C040020D9
:101190005C0500209005002004ED00E0BC04002068
:1011A000A404002013B51B4B002482221A4901938A
:1011B000234600941948FFF71FFF01281AD1FFF7B3
:1011C0002DFD012816D14FF0500372B683F311881C
:1011D000BFF36F8FBFF34F8F62B64FF0FF32104BEC
:1011E0001A60104B1860104B1C6002B0BDE8104034
:1011F000FFF744BC01300AD14FF0500372B683F3BD
:101200001188BFF36F8FBFF34F8F62B6FEE702B056
:1012100010BD00BF7805002003C00008BD14000801
:101220003C0500209C04002040050020024A136871
:1012300001331360704700BFA0040020014B186801
:10124000704700BF40050020414B1B682DE9F74F58
:10125000002B3DD13F4B1C6801341C60CCB93E4B88
:101260001A68126852B14FF0500372B683F31188B6
:10127000BFF36F8FBFF34F8F62B6FEE7374A19682F
:10128000106818601160364A136801331360FFF765
:101290004DFE344D4FF0000B334E2B6801959C42B0
:1012A000324F0BD3DFF8B080DFF8CC90D8F80020B5
:1012B0001268A2B94FF0FF32019B1A603A68D16AF6
:1012C00014224A43B258022A28BF4FF0010B34E0DF
:1012D000274A4FF0000B1368013313602DE0D8F854
:1012E0000020D268D56869688C4202D2019B1960DF
:1012F000E4E705F1040A504600F02FFEA96A19B18F
:1013000005F1180000F029FEE86A0123D9F8001061
:1013100003FA00FE4EEA01014FF0140EC9F8001066
:1013200051460EFB006000F0F4FD3868E96AC26ABD
:10133000914228BF4FF0010BB8E70E4A1268002A0D
:1013400018BF4FF0010B584603B0BDE8F08F00BF47
:10135000A00400204005002098040020440500203F
:10136000940400203C050020BC0400203805002027
:10137000B804002094050020900500202DE9F843D2
:10138000324C236853B94FF0500372B683F311887F
:10139000BFF36F8FBFF34F8F62B6FEE7FFF7D2FA4E
:1013A0002368013B236024680CB1002449E0284BEA
:1013B0001B68002BF9D0DFF8B090264FDFF8AC8027
:1013C000D9F8003003B3D9F80C300125DC68261DAC
:1013D00004F1180000F0C1FD304600F0BEFDE26AE5
:1013E0003B68142005FA02F100FB02800B433146F2
:1013F0003B6000F08EFD184BE26A1B68DB6A9A4284
:10140000DED3164B1D60DBE70CB1FFF78FFD144BED
:101410001C681D4644B1114E0127FFF715FF00B1AE
:101420003760013CF9D12C600C4B1B68002BBCD001
:101430004FF080520B4B1A60BFF34F8FBFF36F8F8B
:101440000124FFF7A5FA2046BDE8F883A004002098
:10145000600500209005002038050020940500203C
:10146000B804002004ED00E048050020BC04002082
:1014700008B540B94FF080520E4B1A60BFF34F8F42
:10148000BFF36F8F08BD0C4B196851B14FF050037B
:1014900072B683F31188BFF36F8FBFF34F8F62B6BD
:1014A000FEE7FFF7C3FEFFF753FDFFF767FF0028D6
:1014B000E0D008BD04ED00E0A0040020184D2E4649
:1014C00080B5184F2B68F3B1FFF7B0FE3C68FFF70B
:1014D00055FF002CF6D0FFF735FA124BDB68DC68BD
:1014E000201D00F03AFD104A1368013B1360336879
:1014F000013B3360FFF74CFA206BFFF717F92046EA
:10150000FFF714F9DEE7094B1B68012BD9D94FF01F
:101510008052074B1A60BFF34F8FBFF36F8FD0E736
:10152000340500202005002060050020BC040020B8
:1015300004ED00E0184B1A68184B10B50AB10122EF
:1015400027E01A60164B1B68B3FA83F3DBB2142250
:101550001449C3F11F035A438C58881854B94FF0EB
:10156000500372B683F31188BFF36F8FBFF34F8FB1
:1015700062B6FEE74468083264680A4494424460F4
:1015800004BF62684260142202FB03135B68DA68DE
:10159000054B1A6010BD00BFA00400209405002078
:1015A00090050020BC0400203805002010B50C4632
:1015B00050B94FF0500372B683F31188BFF36F8FA9
:1015C000BFF34F8F62B6FEE7054B1968183100F084
:1015D000ACFC20460121BDE81040FFF7B9BC00BFBC
:1015E0003805002038B50D46144650B94FF0500369
:1015F00072B683F31188BFF36F8FBFF34F8F62B65C
:10160000FEE7074B1968183100F083FC002C2146D7
:101610000CBF28464FF0FF30BDE83840FFF798BCBC
:1016200038050020C36870B5DC6854B94FF050032A
:1016300072B683F31188BFF36F8FBFF34F8F62B61B
:10164000FEE704F11805284600F087FC114B1B68E3
:1016500083B9261D304600F080FC0F49E56A01235E
:101660000A681420AB4013430B6031460B4B00FB60
:10167000053001E029460A4800F04BFC094BE26ABC
:101680001B68DB6A9A4203D90120074B186070BDC2
:10169000002070BDA004002090050020BC040020A4
:1016A00048050020380500209405002008B508B939
:1016B000FFF796FC034B1B680360034B1B684360FA
:1016C00008BD00BF940400204005002038B50D4639
:1016D000044650B94FF0500372B683F31188BFF33C
:1016E0006F8FBFF34F8F62B6FEE751B94FF05003D3
:1016F00072B683F31188BFF36F8FBFF34F8F62B65B
:10170000FEE7FFF71FF90E4B19682B685A1C10D023
:101710000C4A206812689042626801D091420AD255
:10172000881A834207D9521A204613442B60FFF7C8
:10173000BDFF002400E00124FFF72AF9204638BD50
:1017400040050020940400200122014B1A607047DC
:1017500094050020054B1B6833B1054B1B68002B1B
:101760000CBF022000207047012070479C0400201D
:10177000A00400202DE9F0410446002838D01D4D7A
:10178000C36A2A68D26A934232D28269002A04DB91
:101790002A68D26AC2F105028261174E1427626973
:1017A00007FB03639A4220D104F10408404600F08D
:1017B000D4FB124B48B9E06A4743F2592AB90122D7
:1017C0001968824021EA02021A602A680120414613
:1017D000D26AE26290401C6820431860142000FB2B
:1017E0000260BDE8F04100F094BB2B68DB6AE36265
:1017F000BDE8F08138050020BC04002090050020E1
:10180000F8B5044608B90020F8BD244B1B6898427F
:101810000AD04FF0500372B683F31188BFF36F8F75
:10182000BFF34F8F62B6FEE7C36C53B94FF050035E
:1018300072B683F31188BFF36F8FBFF34F8F62B619
:10184000FEE7C16A013B826CC3649142DBD0002B8E
:10185000D9D1051D124E284600F07FFB114A50B920
:10186000E76A1421794373582BB901231068BB40F0
:1018700020EA03031360A36C1068C3F10501E3625F
:10188000A161012404FA03F10843294610601420E1
:1018900000FB036000F03DFB2046F8BD380500204A
:1018A000BC04002090050020044B1A681AB1196886
:1018B000CA6C0132CA641868704700BF380500203E
:1018C00070B51546026C0446866B32B905682DBBAF
:1018D0004068FFF795FF656027E065B9806803F011
:1018E00007FFA268236C134462689342A36017D376
:1018F0002368A36014E0C06803F0FAFE236CE2687A
:101900005B4221681A448A42E2603EBF62689B18CB
:10191000E360022D06D13EB1013E03E0104604E033
:10192000284602E0002000E030460136A66370BD84
:10193000034608461A6C10B462B1D9685C68114459
:10194000A142D9605DF8044B24BF1968D960D968F9
:1019500003F0CEBE5DF8044B704770B50446FEF749
:10196000F1FF94F8455004F12406EDB26BB2002B60
:101970000ADD636A43B13046FFF754FE08B1FFF752
:10198000E3FE013DEDB2F1E7FF2304F1100684F818
:101990004530FEF7FDFFFEF7D5FF94F84450EDB259
:1019A0006BB2002B0ADD236943B13046FFF73AFEE4
:1019B00008B1FFF7C9FE013DEDB2F1E7FF2384F85E
:1019C0004430BDE87040FEF7E3BF000038B50D4677
:1019D000044650B94FF0500372B683F31188BFF339
:1019E0006F8FBFF34F8F62B6FEE7FEF7ABFF206C41
:1019F000E36B22684343A260D1181B1A1344616051
:101A00000021E360FF23A16384F8443084F845306B
:101A10007DB92369ABB104F11000FFF703FE80B17B
:101A20004FF08052094B1A60BFF34F8FBFF36F8F97
:101A300007E004F1100000F05EFA04F1240000F069
:101A40005AFAFEF7A5FF012038BD00BF04ED00E003
:101A5000F8B50D461746064650B94FF0500372B61A
:101A600083F31188BFF36F8FBFF34F8F62B6FEE72A
:101A700048435030FEF7F2FD044668B10DB92060CE
:101A800002E000F150030360E66301212564204673
:101A9000FFF79CFF84F84C702046F8BD2DE9FF4706
:101AA000894601921F46044650B94FF0500372B662
:101AB00083F31188BFF36F8FBFF34F8F62B6FEE7DA
:101AC00061B9036C53B14FF0500372B683F31188C0
:101AD000BFF36F8FBFF34F8F62B6FEE7022F0DD1BA
:101AE000E36B012B0AD04FF0500372B683F31188D9
:101AF000BFF36F8FBFF34F8F62B6FEE7FFF72AFE8B
:101B000010B9019E0EB172E000264FF00008DFF818
:101B1000FCA0FEF717FFA26BE36B9A4201D3022FE2
:101B200017D13A4649462046FFF7CAFE636A1BB101
:101B300004F12400FFF776FD38B14FF08052334BAB
:101B40001A60BFF34F8FBFF36F8FFEF721FF0120A5
:101B500058E0019D1DB9FEF71BFF284652E016B95B
:101B600002A8FFF7A3FDFEF713FFFFF75FFBFEF7E9
:101B7000E9FE94F84430FF2B01D184F8448094F8B6
:101B80004530FF2B01D184F84580FEF701FF01A904
:101B900002A8FFF79BFD18BBFEF7D4FEA66BE56B12
:101BA000FEF7F6FEAE4215D1019904F11000FFF7E1
:101BB000FDFC2046FFF7D1FEFFF7E0FB08B1012650
:101BC000A7E74FF08053CAF80030BFF34F8FBFF341
:101BD0006F8FF4E72046FFF7C0FEFFF7CFFBEEE77D
:101BE0002046FFF7BAFEFFF7C9FB00200AE04FF0DE
:101BF000500372B683F31188BFF36F8FBFF34F8F1B
:101C000062B6FEE704B0BDE8F08700BF04ED00E077
:101C100010B5024600210120FFF71AFF044638B133
:101C2000002343601A4603601946C360FFF736FF7E
:101C3000204610BD2DE9F843884691461F460446CC
:101C400050B94FF0500372B683F31188BFF36F8F12
:101C5000BFF34F8F62B6FEE761B9036C53B14FF02B
:101C6000500372B683F31188BFF36F8FBFF34F8FAA
:101C700062B6FEE7022F0DD1E36B012B0AD04FF0C5
:101C8000500372B683F31188BFF36F8FBFF34F8F8A
:101C900062B6FEE7FEF746FFEFF311864FF0500302
:101CA00072B683F31188BFF36F8FBFF34F8F62B6A5
:101CB000A26BE36B9A4201D3022F1DD194F84550D9
:101CC0003A4641462046EDB2FFF7FAFDFF2D0DD111
:101CD000636A7BB104F12400FFF7A4FC50B1B9F1B1
:101CE000000F07D00120C9F8000006E00135EDB271
:101CF00084F84550012000E0002086F31188BDE8FB
:101D0000F88300002DE9FF47884601929946044672
:101D100050B94FF0500372B683F31188BFF36F8F41
:101D2000BFF34F8F62B6FEE761B9036C53B14FF05A
:101D3000500372B683F31188BFF36F8FBFF34F8FD9
:101D400062B6FEE7FFF706FD10B9019E0EB18AE00C
:101D500000260027DFF82CA1FEF7F4FDA56B3DB3AC
:101D600041462046E668FFF7E3FDB9F1000F0BD1CD
:101D7000013D2368A56313B9FFF796FD60602369F1
:101D800093B104F1100004E0636AE66063B104F10A
:101D90002400FFF747FC38B14FF08052394B1A60EE
:101DA000BFF34F8FBFF36F8FFEF7F2FD012065E0A9
:101DB000019D15B9FEF7ECFD53E016B902A8FFF737
:101DC00075FCFEF7E5FDFFF731FAFEF7BBFD94F871
:101DD0004430FF2B01D184F8447094F84530FF2B38
:101DE00001D184F84570FEF7D3FD01A902A8FFF7E1
:101DF0006DFC50BBFEF7A6FDA56BFEF7C9FDF5B95E
:101E0000236833B9FEF79EFD6068FFF7B3FCFEF769
:101E1000BFFD019904F12400FFF7C8FB2046FFF73E
:101E20009CFDFFF7ABFA08B1012695E74FF0805310
:101E3000CAF80030BFF34F8FBFF36F8FF4E720462F
:101E4000FFF78BFDFFF79AFAEEE72046FFF785FDD7
:101E5000FFF794FAFEF776FDA56BFEF799FD002DCE
:101E6000E2D128460AE04FF0500372B683F311889E
:101E7000BFF36F8FBFF34F8F62B6FEE704B0BDE8CC
:101E8000F08700BF04ED00E00023084A30B552F8A7
:101E9000335002EBC30425B9044A606042F83310A2
:101EA00030BD0133082BF2D130BD00BF68080020DF
:101EB00070B504460D461646FEF744FD94F84430CE
:101EC000FF2B02D1002384F8443094F84530FF2BD7
:101ED00002D1002384F84530FEF75AFDA36B2BB9DD
:101EE0003246294604F12400FFF77CFB2046BDE87A
:101EF0007040FFF732BD00F108034FF0FF3243603E
:101F0000C3600361002382600360704700230361A4
:101F1000704743689A684B608A609A68516099601C
:101F2000036808610133036070470A68531C30B5C9
:101F300001D1036907E000F108035C682568AA4243
:101F400001D32346F9E75A684A6091608B60596073
:101F5000036808610133036030BD4168826803692A
:101F60008A60826851605968884208BF5A600022BE
:101F7000026118680138186070470000DFF830D03F
:101F8000002103E00B4B5B58435004310A480B4BD4
:101F900042189A42F6D30A4A02E0002342F8043B70
:101FA000084B9A42F9D301F037FEFEF75FF970470C
:101FB0000000052020CB0008C8010020E802002016
:101FC000E802002074090020FEE77047074A03205A
:101FD00008B5136843F40073136000F025F80F2070
:101FE00001F0B8FCFFF7F1FF002008BD003C024003
:101FF000024A136801331360704700BF9805002040
:10200000014B1868704700BF9805002013B5019078
:10201000FFF7F6FF0446FFF7F3FF019B001B984212
:10202000F9D302B010BD0000074A0002D36800F4E3
:10203000E06023F4E0631B041B0C43F0BF6343F434
:1020400000330343D360704700ED00E0194BDB68B9
:10205000C3F3022330B5C3F107041D1D042C28BFB0
:102060000424062D4FF001058CBF033B002305FA25
:1020700004F4002804F1FF3404EA010404FA03F430
:1020800005FA03F303F1FF3302EA030242EA040212
:102090004FEA021205DA00F00F00D2B2064B1A54D2
:1020A00030BD00F16040D2B200F5614080F80023FD
:1020B00030BD00BF00ED00E014ED00E04209012357
:1020C00000F01F0003FA00F0014B43F822007047B4
:1020D00000E100E030B500282FD001680223184A43
:1020E00080F835300B6844681A4083681C43C36825
:1020F0001C4303691C4343691C4383691C43C36934
:102100001C43036A23431343426A042A01BF046B3E
:10211000C56A2C432343042A0B604B6923F0070351
:1021200043EA020304BF826A134301224B61002386
:10213000C36480F83520184630BD012030BD00BF93
:102140003F8010F010B5002800F0B18190F83530D4
:10215000022B00F0AC8103681A6822F001021A60B9
:1021600000221A605A609A60DA601A6121225A616C
:10217000AF4A934217D9183293420AD0AD498B42E5
:1021800009D018318B4214BF4FF080714FF4802179
:1021900003E0A94901E04FF48071A84C9342E1604B
:1021A00050D120215BE0A64A934218D902F556721D
:1021B00093420AD0A3498B4209D018318B4214BFF5
:1021C0004FF080714FF4802103E09B4901E04FF410
:1021D00080719A4C9342A16046D1202151E09A4AE5
:1021E000934217D9183293420AD098498B4209D0AA
:1021F00018318B4214BF4FF080714FF4802103E0FF
:102200008D4901E04FF48071914C9342E1603DD1E2
:10221000202148E08F4A93420AD08F498B4209D04F
:1022200018318B4214BF4FF080714FF4802103E0CE
:10223000814901E04FF48071854C9342A16037D110
:10224000202142E07B498B4207D018318B4214BFDA
:102250004FF000614FF4001101E04FF40061934230
:10226000E16037D1082142E076498B4207D018312E
:102270008B4214BF4FF000614FF4001101E04FF4A6
:1022800000619342A16038D1082143E06F498B423D
:1022900007D018318B4214BF4FF000614FF400118A
:1022A00001E04FF400619342E16039D1082144E03C
:1022B00069498B4207D018318B4214BF4FF000613F
:1022C0004FF4001101E04FF400619342A1603AD154
:1022D000082145E057498B4207D018318B4214BF83
:1022E0004FF000714FF4002101E04FF40071534CA6
:1022F0009342E1603AD1594944E052498B4207D0B8
:1023000018318B4214BF4FF000714FF4002101E0EF
:102310004FF40071494C9342A16038D14F4942E0DB
:102320004A498B4207D018318B4214BF4FF00071DD
:102330004FF4002101E04FF40071454C9342E160FD
:1023400036D1464940E044498B4207D018318B4290
:1023500014BF4FF000714FF4002101E04FF4007101
:102360003B4C9342A16034D13C493EE031498B4221
:1023700007D018318B4214BF4FF480014FF48031E5
:1023800000E040219342E16034D110233FE02D4929
:102390008B4207D018318B4214BF4FF480014FF4A9
:1023A000803100E040219342A16032D110233DE012
:1023B00026498B4207D018318B4214BF4FF480015D
:1023C0004FF4803100E040219342E16048D1102376
:1023D00053E021498B4207D018318B4214BF4FF490
:1023E00080014FF4803100E040219342A16047D149
:1023F000102352E00F4A934207D0183293420CBF89
:102400004FF480134FF0806301E04FF480630B4A78
:1024100034E00C4A934207D0183293420CBF4FF479
:1024200080134FF0806301E04FF48063034A35E08E
:102430005864024088640240040080000064024046
:10244000B860024028640240586002408860024040
:1024500000600240106002402860024001008000DD
:10246000144A934207D0183293420CBF4FF48013A2
:102470004FF0806301E04FF480630F4AD3600EE0B9
:102480000E4A934207D0183293420CBF4FF4801388
:102490004FF0806301E04FF48063074A93600023AC
:1024A000C36480F8343080F83530184610BD012000
:1024B00010BD00BF886002400060024028600240FA
:1024C0002DE9F04F0B6885B06F4E01930023DFF8C4
:1024D000C0C1B646DFF8BC810122019C9A4032EAB5
:1024E000040440F0C9804C6824F01009B9F1020FCF
:1024F00014D14FEAD30A03F0070B0F2500EB8A0A29
:102500004FEA8B0BDAF8207005FA0BF527EA050580
:102510000F6907FA0BF72F43CAF820704FEA430AF6
:102520000325076804F0030B05FA0AF509F1FF39E2
:102530000BFA0AFBED43B9F1010F07EA05074BEA75
:102540000707076012D8876805EA0709CF6807FA06
:102550000AF747EA0907C4F30019876009FA03F983
:10256000476827EA020749EA07074760C7683D400E
:102570008F6807FA0AF73D43C560E5007CD5DCF8B3
:10258000445023F0030703F0030A4FF00F0945F40A
:10259000804507F180474FEA8A0ACCF8445007F596
:1025A0009C37DCF8445005F480450395039D09FAF7
:1025B0000AF5D7F808B02BEA0509344DA84224D013
:1025C00005F58065A84222D005F58065A84220D097
:1025D00005F58065A8421ED005F58065A8421CD08F
:1025E00040451CD005F50065A8421AD005F5806568
:1025F000A84218D005F58065A84216D005F580657B
:10260000A84214BF0A25092510E000250EE0012587
:102610000CE002250AE0032508E0042506E0052574
:1026200004E0062502E0072500E0082505FA0AF582
:1026300014F4803F45EA0905BD606FEA020735687A
:102640000CBF3D40154314F4003FCEF80050DEF8B7
:1026500004500CBF3D40154314F4801F7560B568ED
:102660000CBF3D401543A402CEF80850DEF80C50D4
:1026700054BF3D401543F5600133102B7FF42CAF60
:1026800005B0BDE8F08F00BF003C014000000240F3
:102690000038024000140240024A136843F4807379
:1026A0001360704700700040194B1A6C42F0805262
:1026B00073B51A641B6C174C03F0805325460193C5
:1026C000019B236843F480332360FFF799FC06469F
:1026D0006B68104CDA0307D4FFF792FC801BB0F54F
:1026E0007A7FF5D9032011E0236843F40033236097
:1026F000FFF786FC054663689B0306D4FFF780FC62
:10270000401BB0F57A7FF6D9ECE7002002B070BD2F
:10271000003802400070004003682DE9F341DD07F6
:10272000044603D42368980770D4C5E0A44B9A6884
:1027300002F00C02042A07D09A6802F00C02082A60
:102740000BD15B68590208D59D4B1B689A03E9D5EC
:102750006368002BE6D10120B6E1994D2B682E4627
:1027600023F480332B602B6823F480232B602B68A9
:1027700023F480332B60FFF743FC07463368904D0A
:102780009B0307D5FFF73CFCC01BB0F5FA7FF5D9DA
:10279000032099E12B6823F480332B606368B3F541
:1027A000803F03D12B6823F4802305E0B3F5A02FED
:1027B00008D12B6843F480232B602B6843F48033CB
:1027C0002B6008E02A6822F480222A602A6822F41A
:1027D00080322A606BB1FFF713FC794D06462B68F7
:1027E00098039FD4FFF70CFC801BB0F5FA7FF6D955
:1027F000CEE7FFF705FC06462B68990392D5FFF755
:10280000FFFB801BB0F5FA7FF6D9C1E76C4B9A68E5
:1028100012F00C0F07D09A6802F00C02082A18D1A7
:102820005B685A0215D4664A13689B0702D5E368B1
:10283000012B90D11168F82393FAA3F3B3FA83F331
:102840002069DBB221F0F80100FA03F30B431360B7
:1028500032E0E3685A4DFBB12B6843F001032B6073
:10286000FFF7CEFB06462B6855489F0705D4FFF7B8
:10287000C7FB801B6428F6D98AE70268F82393FA1D
:10288000A3F3B3FA83F32169DBB222F0F80201FA71
:1028900003F3134303600FE02B6823F001032B6065
:1028A000FFF7AEFB06462B68990705D5FFF7A8FB97
:1028B000801B6428F7D96BE723681A0703D42368C1
:1028C0005B0767D522E063693D4D7BB16B6F43F0D9
:1028D00001036B67FFF794FB06466B6F9F07EED40F
:1028E000FFF78EFB801B6428F7D951E76B6F23F04D
:1028F00001036B67FFF784FB06466B6F9807DED515
:10290000FFF77EFB801B6428F7D941E72C4B2D4D48
:102910001A6C42F080521A641B6C03F080530193CE
:10292000019B2B6843F480732B60FFF769FB06461D
:102930002B68D90531D5224D41F288382B6F2E46B0
:1029400023F001032B672B6F23F004032B672B6FFE
:1029500023F001032B67FFF753FB0746336F184D36
:102960009A0720D42B6F23F001032B67A368012B58
:102970001FD12B6F23F004032B672B6F43F0010350
:102980002B67FFF73DFB0E4D064641F288372B6F54
:102990009B0723D5A269AABB7CE0FFF731FB801B14
:1029A0006428C5D9F4E6FFF72BFBC01B4045D5D9F9
:1029B000EEE6052B08D12B6F43F00403DCE700BFE4
:1029C00000380240007000402A6F22F004022A679B
:1029D0002A6F22F001022A6733B1D2E7FFF710FB1A
:1029E000801BB842D3D9D3E6FFF70AFB41F2883700
:1029F00006462B6F9807CDD5FFF702FB801BB84228
:102A0000F7D9C5E6324DAB6803F00C03082B3FF451
:102A1000A2AE2B68022A23F080732B6048D1FFF707
:102A2000EFFA07462B682A4E990135D447F6C07253
:102A300092FAA2F2B2FA82F24FF4403090FAA0F089
:102A4000B0FA80F04FF0706191FAA1F1B1FA81F122
:102A5000256AD2B2E369C9B22B43656A43F00053D9
:102A600005FA02F243EA0205A36A5B085A1EC3B2E2
:102A700002FA03F3E26A2B4302FA01F10B4373609B
:102A8000336843F080733360FFF7BAFA0446336863
:102A90009A0107D5002017E0FFF7B2FAC01B64289F
:102AA000C0D975E6FFF7ACFA001B6428EFD96FE6D2
:102AB000FFF7A6FA04462B689B01EBD5FFF7A0FAB7
:102AC000001B6428F7D963E602B0BDE8F08100BFBF
:102AD000003802406C4A136803F00F038B422DE963
:102AE000F04104460D4666D2136823F00F030B43F2
:102AF0001360136803F00F03994202D00120BDE870
:102B0000F08101688F0706D56048836823F0F002E2
:102B1000A36813438360CE070BD421684D0740F1AF
:102B2000A3805A48836823F4E052E3681343836028
:102B30009AE06268554B012A196802D111F4003FEE
:102B400006E0022A02D111F0007F01E011F0020F2D
:102B5000D4D0996841F288374C4E21F003010A43E2
:102B60009A60FFF74DFA63680546012B0CD1B368F4
:102B700003F00C03042BD0D0FFF742FA401BB842FD
:102B8000F5D90320BDE8F081022B0FD1B36803F023
:102B90000C03082BC1D0FFF733FA401BB842F5D91C
:102BA000EFE7FFF72DFA401BB842EAD8B36813F0FD
:102BB0000C0FF6D1B1E70168880706D53348836862
:102BC00023F0F002A36813438360CA070BD42E4A94
:102BD000136823F00F032B431360136803F00F03F4
:102BE0009D428BD199E76268284B012A196802D16E
:102BF00011F4003F06E0022A02D111F0007F01E04B
:102C000011F0020F3FF47AAF996841F288381F4FF4
:102C100021F003010A439A60FFF7F2F96368064660
:102C2000012B0AD1BB6803F00C03042BCFD0FFF7B4
:102C3000E7F9801B4045F5D9A3E7022B0FD1BB680C
:102C400003F00C03082BC2D0FFF7DAF9801B4045D4
:102C5000F5D996E7FFF7D4F9801B404591D8BB68BA
:102C600013F00C0FF6D1B2E70B0707D5074A21691D
:102C7000936823F4604343EAC10393600F2000F09C
:102C800069FE0020BDE8F081003C024000380240AF
:102C90001F498B6803F00C03042B34D0082B34D16C
:102CA000486847F6C0724B6800F03F0013F4800F8D
:102CB0004B6892FAA2F2B2FA82F247F6C071D2B22F
:102CC00001EA030115BF21FA02F3D140114A124A69
:102CD00014BFB2FBF0F0B2FBF0F00D4A0CBF00FBEA
:102CE00001F343434FF44031506891FAA1F1B1FA36
:102CF00081F100F44032C8B222FA00F00130400005
:102D0000B3FBF0F07047034870470348704700BFBB
:102D10000038024040787D010024F40008B5FFF738
:102D2000B7FF094B9A68F02393FAA3F3B3FA83F33E
:102D300002F0F002DBB222FA03F3044AD35CD8407B
:102D4000034B186008BD00BF0038024008C00008EF
:102D5000D401002008B5FFF7E1FF084B9A684FF453
:102D6000E05393FAA3F3B3FA83F302F4E052DBB235
:102D700022FA03F3024AD35CD84008BD003802406F
:102D800008C0000808B5FFF7C9FF084B9A684FF460
:102D9000604393FAA3F3B3FA83F302F46042DBB225
:102DA00022FA03F3024AD35CD84008BD003802403F
:102DB00008C000080F2303600B4B9A6802F003025F
:102DC00042609A6802F0F00282609A6802F4E0526F
:102DD000C2609B68DB0803F4E0530361034B1B688C
:102DE00003F00F030B60704700380240003C0240C4
:102DF0007047026838B5D368044623F0A003D36057
:102E0000FFF7FEF805462368DB689B0607D4FFF74B
:102E1000F7F8401BB0F57A7FF5D9032038BD0020C4
:102E200038BD38B503680446DA68520601D500207B
:102E300038BD4FF0FF32DA60FFF7E2F8054623684D
:102E4000DB685B06F3D4FFF7DBF8401BB0F57A7F55
:102E5000F5D9032038BD10B5044600283DD0437F86
:102E600003F0FF0213B90277FFF7C2FF0223CA2261
:102E70002046637723685A6253225A62FFF7D1FFD4
:102E8000236820B1FF225A620423637725E09A6801
:102E900022F4E00222F040029A60626899681143CD
:102EA0002269114362690A43A1689A60E2681A6163
:102EB0001A6942EA01421A61DA6822F08002DA6095
:102EC000DA6C22F00802DA64A269D96C0A43DA6487
:102ED000FF225A620123637710BD012010BD002339
:102EE000092803D90A380133C0B2F9E740EA0310D0
:102EF000C0B27047F8B5037F06460F460225012B86
:102F000064D00123457703770368BD7808789B6810
:102F10004978AAB913F0400308BF3B72FFF7DFFFFF
:102F200004460846FFF7DBFF02462846FFF7D7FFB7
:102F30003B7A40EA034040EA044040EA02240AE0C7
:102F4000090213F0400341EA004408BF3B72387A9B
:102F5000254345EA00443368CA2230465A62532268
:102F60005A62FFF75EFF3368054630B1FF225A62AE
:102F700004237377002333771FE004F07F3020F0C1
:102F8000FE4018609A6822F480229A60FA68996874
:102F900011433A690A439A60DA6822F08002DA60E3
:102FA0009B689B060BD43046FFF723FF38B133688C
:102FB000FF225A62042335777377012506E03368D0
:102FC000FF225A6201237377002333772846F8BD26
:102FD000F8B5037F06460225012B57D0012345771C
:102FE00003774B78C8788D780F78002A47D1DA06B6
:102FF00003D523F010020A324A70FFF770FF04462F
:103000004878FFF76CFF02462846FFF768FF40EA62
:10301000473040EA044040EA02243368CA2230467E
:103020005A6253225A62FFF7FCFE3368054630B1FC
:10303000FF225A62042373770023337715E024F0CC
:103040007F4020F0C0005860DA6822F08002DA6029
:103050009B689B060BD43046FFF7CBFE38B1336834
:10306000FF225A6204233577737701250EE0336817
:10307000FF225A62012373770023337706E01B0295
:1030800043EA0040284340EA4734C6E72846F8BDF3
:1030900000F00F03000900EB800003EB4000C0B21A
:1030A0007047036870B5986A1D68486005F07F3303
:1030B00005F07F0523F0FE438D701E0CC3F306243C
:1030C00006F03F0006F040064C7008700E7252B9D0
:1030D000FFF7DEFF08702046FFF7DAFF487028464A
:1030E000FFF7D6FF8870002070BD38B503685C68B4
:1030F00024F07F4304F03F0423F0C0038C70180CCD
:10310000C3F30425C3F34233C8704D700B7052B93A
:10311000FFF7BEFFC8702846FFF7BAFF4870204689
:10312000FFF7B6FF8870002038BD704738B50D46F0
:103130000446C8B190F82C3003F0FF021BB980F8A8
:103140002D20FFF7F2FF0223211D206884F82C3088
:1031500000F0FDFA62682946206800F03BFB01237D
:10316000002084F82C3038BD012038BD38B5044625
:1031700090F82C000D46C0B202280DD00223206822
:1031800084F82C3000F071FB2B680020022B0CBF60
:103190000523012384F82C3038BD10B5044690F87F
:1031A0002C00C0B2022809D00223206884F82C30F9
:1031B00000F081FB0123002084F82C3010BD704703
:1031C0002E4A0368904212D0B0F1804F0FD0A2F582
:1031D0007C4290420BD002F58062904207D002F50B
:1031E0008062904203D002F57842904218D14A683A
:1031F00023F070031343214A904237D0B0F1804F3F
:1032000034D01F4A904231D002F5806290422DD0D6
:1032100002F58062904229D002F57842904225D092
:10322000184A904222D002F5806290421ED002F5E8
:10323000806290421AD0A2F59832904216D002F5E0
:103240008062904212D002F5806290420ED00360FC
:103250008B68C3620B688362084B98420BD003F5FE
:103260008063984207D001234361704723F4407381
:10327000CA681343EBE70B690363F4E700000140FE
:10328000000400400040014010B50446A0B190F891
:10329000393003F0FF021BB980F83820FFF78FFFA9
:1032A00002232068211D84F83930FFF789FF0123AC
:1032B000002084F8393010BD012010BD01238A4060
:1032C0008B4010B5046A24EA03030362036A42EAEE
:1032D0000301016210BD000010B504460122006820
:1032E000FFF7ECFF2368084A934203D002F580629F
:1032F000934203D15A6C42F400425A641A68002087
:1033000042F001021A6010BD00000140FFF7E4BF67
:1033100070472DE9F041904604460E461D46FEF7E3
:103320006FFE0746B8F1000F36D12268D36936EA3E
:1033300003030ED0691CF9D07DB1FEF761FEC01BFE
:103340008542F2D809E06B1C06D1D36936EA030343
:10335000F9D00020BDE8F081CDB9236803201A68B8
:1033600022F080021A601A6822F020021A601A689D
:1033700022F480721A609A6822F001029A60012396
:1033800084F86930002384F86830BDE8F081FEF7E6
:1033900037FEC01B8542E0D92268D6E738B504461F
:1033A0000568C3692269A1682868114362690A43F4
:1033B00042EA0301814A0240A0690A432A606A681E
:1033C00022F44051E2680A43216A6A600143AA6814
:1033D00022F430620A43AA60794A954207D102F585
:1033E00094327849D2F8902002F0030209E0764A3C
:1033F00095420BD102F5FA327449D2F8902002F0CE
:103400000C02B3F5004F8A5C73D0AFE0704A95426E
:103410000DD102F5F832D2F8902002F03002102AD5
:1034200000F082805DD9202A78D0302A0EE0694AE7
:1034300095420DD102F5F632D2F8902002F0C0028A
:10344000402A71D04DD9802A68D0C02A76D080E039
:10345000614A95420FD102F5F432D2F8902002F47D
:103460004072B2F5807F5FD03BD9B2F5007F55D076
:10347000B2F5407FEAE7594A954212D102F59232FD
:10348000D2F8902002F44062B2F5806F4CD002D89E
:10349000002A3DD05DE0B2F5006F3FD0B2F5406F3D
:1034A000D4E74F4A95420FD102F5E032D2F890208E
:1034B00002F44052B2F5805F36D012D9B2F5005F07
:1034C0002CD0B2F5405FC1E7464A954241D102F5A2
:1034D000DE32D2F8902002F44042B2F5804F23D081
:1034E00001D87AB135E0B2F5004F17D0B2F5404FB0
:1034F000ACE7082A30D8DFE802F0080E142F1A2FA4
:103500002F2F2400B3F5004F39D1FFF723FC10E033
:10351000B3F5004F36D1FFF735FC0AE0B3F5004FA5
:1035200033D16068304B0FE0B3F5004F33D1FFF774
:10353000AFFB40006368B0FBF3F307E0B3F5004F67
:1035400031D160684FF48033B3FBF0F39BB20020BD
:1035500004E0B3F5004F2ED101200023C3F3420154
:1035600023F00F0322680B43D36038BD082A22D80A
:10357000DFE802F005080B21112121211900FFF7D6
:10358000E9FB0AE0FFF7FEFB07E06268174BB3FBBD
:10359000F2F39BB20CE0FFF77BFB6368B0FBF3F048
:1035A00080B2E86005E062684FF40043B3FBF2F3D9
:1035B000EB60002038BD012038BD00BFF369FFEF8C
:1035C0000010014018C00008004400401CC0000862
:1035D00000480040004C00400050004000140140F2
:1035E00000780040007C00400048E8010024F4001E
:1035F000436ADA0710B506D50468626822F4003120
:10360000826A0A4362609C0706D50468626822F4F5
:103610008031C26A0A436260590706D5046862684D
:1036200022F48021026B0A4362601A0706D50468FF
:10363000626822F40041426B0A436260DC0606D5F0
:103640000468A26822F48051826B0A43A260990642
:1036500006D50468A26822F40051C26B0A43A26036
:103660005A0610D50168046C4A68B4F5801F22F42C
:10367000801242EA04024A6005D14A6822F4C0047A
:10368000426C22434A601B0606D501684B6823F44E
:103690000022836C13434B6010BD0022036810B5F9
:1036A000C26604461B68190704D423681B685B07BD
:1036B00014D509E06FF07E434FF40011FFF729FEA7
:1036C0000028F2D0032010BD6FF07E4300224FF49B
:1036D00080012046FFF71DFE0028F3D101230020C2
:1036E00084F8693084F8680010BD10B5044660B3F2
:1036F00090F8693003F0FF021BB980F86820FFF7EB
:1037000007FE22680223204684F86930136823F0FC
:1037100001031360FFF742FE012816D0636A13B15C
:103720002046FFF765FF236820465A6822F490423E
:103730005A609A6822F02A029A601A6842F00102DE
:10374000BDE810401A60FFF7A8BF012010BD0B684C
:103750000A6A012B8B682DE9F047D1F804E0CF68A5
:103760000E694D698C69D1F81CA0D1F824900168CC
:1037700013D04EEA030E21F4FF484EEA070728F063
:103780007F083E4335432C4344EA0A010A4342EA98
:10379000090343EA0803036019E04EEA030E21F42B
:1037A000FF4C4AEA02024EEA07072CF07F0C42EA7D
:1037B000090942683E4349EA0C0122F4FF4C3543B3
:1037C0002CF07F0C01602C4344EA0C044460002080
:1037D000BDE8F087012A4B69CA68D1F818C02DE905
:1037E000F0430E684D688C68D1F810901AD0876845
:1037F000013E013D013C07F07047013A013B374370
:1038000047EA051646EA042545EA023409F1FF3283
:1038100044EA024141EA03520CF1FF3342EA0363F6
:1038200083601FE0C16806F1FF3E6F1E661E01F057
:10383000704809F1FF35013B013A4EEA08081B05C3
:1038400048EA071E43EA02324EEA062747EA0546DF
:103850000CF1FF3546EA0565866806F07046C560DE
:10386000324382600020BDE8F083002373B5064632
:103870000193154691E809000343C86843EA4020D4
:103880008B68013B40EA43130193019B3361FEF7D0
:10389000B7FB0446B06910F020000AD06B1C01D1C0
:1038A000012006E025B1FEF7ABFB001B8542F7D2F5
:1038B000032002B070BD436943EA41014161002029
:1038C0007047000030B50C4CA268A4681346B4F1F0
:1038D000006F0CD1131F094C094A53F8045F42F8DA
:1038E000045FA242F9D14FF00053034A93601030B5
:1038F00043F8201030BD00BF00ED00E0C4010020FF
:10390000FCFFFF1F38B5114B1A681C46D16811F037
:10391000020F04D06FF00203136100F007FE23686A
:10392000DA68520711D56FF00402094D1A615C6A1A
:103930002B68E31AB3F57A7F07D3FEF759FB034BE5
:1039400004F57A722C601B689A6338BDA8080020C1
:103950009C05002030B589B0264C01A903A8FFF7CB
:1039600029FAFFF7F7F9244B01901A6C42F008028C
:103970001A641A6C02F008020292029A1A6A42F061
:1039800008021A621A6A22F008021A62A3F50B33BF
:10399000069A23604FF0FF33E360184B02B14000FA
:1039A0000025B0FBF3F001382561A5606060114887
:1039B0006561FFF769FC12493220FFF783FF4FF47E
:1039C0008022104B29460B485A60FFF79FFC0421C8
:1039D0000848FFF79BFC23680B4928465A6A0A608F
:1039E00002F57A729A63DA6842F00402DA6009B08A
:1039F00030BD00BFA80800200038024040420F0040
:103A00000539000800E100E09C050020BFF34F8F5E
:103A1000BFF36F8F064B0022C3F850225A6942F45D
:103A200000325A61BFF34F8FBFF36F8F704700BFF3
:103A300000ED00E0174A0023F0B5C2F88430D2F858
:103A4000803003F00704C3F34E31C3F3C9030434D9
:103A5000B3FA83F505F01F05BFF34F8F01FA04FE9B
:103A6000184600FA05F610F1FF300A4F46EA0E0636
:103A7000C2F86062F5D211F1FF31EFD2BFF34F8F80
:103A80007B6943F480337B61BFF34F8FBFF36F8F4C
:103A9000F0BD00BF00ED00E0174A1849936803F03D
:103AA0000C03042B03D0082B03D0154B19E0154B46
:103AB00017E05068536810F4800F506803F03F031C
:103AC00018BF104AC0F3881008BF0D4AB2FBF3F3C9
:103AD000094A43435268C2F3014201325200B3FB28
:103AE000F2F30B60044B084A9B68C3F30313D25CE8
:103AF0000B68D3400B60704700380240D4010020AF
:103B00000024F40040787D0129C000081F4B1A6C86
:103B100042F0805210B51A6492B01B6C03F08053CF
:103B20000093009B0123069310B94FF4803301E00A
:103B30004FF4A02307934FF48003022406A80D93AB
:103B400019230C940E934FF4D87310940F930923F8
:103B50001193FEF7E1FD08B1002014E0FEF7A4FD8B
:103B60000028F9D10F230390072101A801934FF4F6
:103B7000A053029404934FF480530593FEF7AAFFD9
:103B8000B0FA80F0400912B010BD00BF003802400A
:103B900070B592B00024FFF739FF0225FFF74AFF06
:103BA000174B012606A81A6C42F080521A641B6C4F
:103BB000099603F0805307940C950093009B032310
:103BC0000D940693102310950A930E934FF4D87317
:103BD0000F9309231193FEF79FFDFEF765FD0F2359
:103BE000072101A801934FF4A053029504934FF4C9
:103BF000805303940593FEF76DFF304612B070BDFD
:103C00000038024008B50020FFF780FF18B9FFF721
:103C1000BFFF00B9FEE708BD194A0021D2F888307D
:103C200010B543F47003174CC2F88830236843F092
:103C300001032360A160236823F0847323F480339D
:103C40002360114B6360236823F4802323604FF0CB
:103C50000063E16093600D4B0D4A1A60FEF7B6F900
:103C6000FFF7D4FEFFF7E6FEFFF7CCFF236A43F031
:103C700008032362236A23F00803236210BD00BFF8
:103C800000ED00E00038024010300024D401002094
:103C90000024F40010B50446002100F0DFF80120F4
:103CA00004F00F04A04010BD70B54B1C04460E4636
:103CB00021800DD0C1F3031000F01EF805463046F8
:103CC000FFF7E8FF05F1100318356060A360E560B9
:103CD00070BDB0F9000000F0E5B80129B0F90000AE
:103CE00018BF002100F0BAB808B5FFF7D5FEBDE84F
:103CF0000840FEF76BB9000000B58DB00A2800F24D
:103D00008C80DFE800F006121E2A36424E5A667298
:103D10007E00454B45481A6B42F001021A631B6B4B
:103D200003F001030193019B7BE03F4B40481A6B7A
:103D300042F002021A631B6B03F002030293029B20
:103D40006FE0394B3B481A6B42F004021A631B6B5D
:103D500003F004030393039B63E0334B36481A6B71
:103D600042F008021A631B6B03F008030493049BE0
:103D700057E02D4B31481A6B42F010021A631B6B4F
:103D800003F010030593059B4BE0274B2C481A6B5F
:103D900042F020021A631B6B03F020030693069B7C
:103DA0003FE0214B27481A6B42F040021A631B6B1D
:103DB00003F040030793079B33E01B4B22481A6B29
:103DC00042F080021A631B6B03F080030893089B88
:103DD00027E0154B1D481A6B42F480721A631B6B67
:103DE00003F480730993099B1BE00F4B18481A6B6F
:103DF00042F400721A631B6B03F400730A930A9B6C
:103E00000FE0094B13481A6B42F480621A631B6B74
:103E100003F480630B930B9B03E00F4800F0BAFAA6
:103E200000200DB05DF804FB0038024000000240A5
:103E30000004024000080240000C02400010024052
:103E40000014024000180240001C02400020024002
:103E5000002402400028024039C0000830B5054661
:103E600087B0C0F303100C4605F00F05FFF744FFC1
:103E7000012304F00F0201A903FA05F5084B53F8DA
:103E8000223001950293C4F30213C4F3C3140393C5
:103E9000032305940493FEF713FB07B030BD00BF66
:103EA0005CC0000838B500F00F05C0F303100C46E5
:103EB000FFF722FF69000323C268032C03FA01F312
:103EC00028BF002422EA03038C40C360C3681C435C
:103ED000C46038BD344BF0B51E688FB0002E60D181
:103EE0000127324C324D1F60324B2B60236C43F064
:103EF00080532364236C03F080530193019BFEF7EE
:103F0000CBFB236F02A843F480332367236F23F492
:103F1000803323670423089602930497FEF7FCFB83
:103F200070B9A36823F4F813A360A36823F4F8130B
:103F3000A360236F43F4807323674FF400431AE0B8
:103F40000C2302A80896029304960797FEF7E4FB59
:103F500010B1194800F01EFA144B9A6822F4F812B6
:103F60009A609A6822F4F8129A601A6F42F400720A
:103F70001A674FF4FA430D49DB090D480A6F013BFC
:103F800042F400420A6700227F21EB606A60A96068
:103F90002A616A61AA61FEF75EFF10B1074800F06E
:103FA000F9F90FB0F0BD00BFC00500200038024095
:103FB000A00500200028004090C00008BCC00008F8
:103FC000014B1868704700BFC005002010B5154CA4
:103FD00090B0154B002202A920462360FFF761F83C
:103FE000002201A92046FFF780F89DF8043010A8B0
:103FF0000D939DF80530013B0B939DF806300A9315
:104000009DF8073064330C939DF8083009939DF8B0
:10401000093008939DF80A3040F8243D01F072FC05
:1040200010B010BDA00500200028004030B589B0B8
:10403000184D194A002408AB2A6043F81C0D184695
:1040400001F0B0F98369224602A98DF808300369AE
:1040500001338DF80930C3688DF80A304369643B39
:104060008DF80B3083688DF80C3043688DF80D3077
:104070000368284606948DF80E30402307948DF887
:104080001430FEF7A5FF224603A92846FEF732FFAB
:1040900009B030BDA00500200028004008B5026826
:1040A000114B1A6082685A60C2689A600269DA60CD
:1040B00042691A6100229A61B0F91A20013201D1D5
:1040C000082205E0B0F9182001320CBF04220C22AE
:1040D00005485A61FFF709FB20B10448BDE80840D4
:1040E00000F058B908BD00BFE4080020E2C0000895
:1040F000F0B50E46154689B004465C49304600F0DE
:10410000BBF907465A49284600F0B6F90146384639
:10411000584F00F093F9584B2060984261D017D85F
:10412000A3F50063984244D003F5806398424CD0D5
:10413000A3F5006398426CD1504B1A6C42F40032E4
:104140001A641B6C03F400330193019B01235FE0AD
:104150004B4B984251D00FD8A3F58063984258D169
:10416000464B1A6C42F080421A641B6C03F0804389
:104170000693069B06234BE0B8420ED0414B984273
:1041800047D13E4B5A6C42F020025A645B6C03F0FC
:1041900020030593059B05233AE0384B5A6C42F007
:1041A00010025A645B6C03F010030093009B002321
:1041B0002EE0324B1A6C42F480221A641B6C03F41A
:1041C00080230293029B022322E02C4B1A6C42F4C0
:1041D00000221A641B6C03F400230393039B032344
:1041E00016E0264B1A6C42F480121A641B6C03F41E
:1041F00080130493049B04230AE0204B1A6C42F0C2
:1042000000421A641B6C03F000430793079B0723CB
:1042100063601649304600F0F3F81549284600F06F
:10422000EFF8721C03D001213046FFF73BFE6B1CF8
:1042300003D001212846FFF735FE4FF4165326839D
:1042400065832046A3600023E36023616361FFF779
:1042500025FF2368BB4207D101220B4B21460B48A7
:104260001A601C2201F044FA09B0F0BD38C1000800
:10427000FCC000080010014000500040003802401F
:10428000007C004000140140E80500205409002093
:104290008160FFF703BF0000034B19604168034BC7
:1042A00043F82120704700BFE4050020C40500202A
:1042B0000368034AD8691360C0F34010704700BF19
:1042C000E408002010B5014604680846FFF7F0FF37
:1042D0000028FAD0606AC0F3080010BD0368034AE2
:1042E000D8691360C0F3C010704700BFE408002015
:1042F00038B5044605682046FFF7F0FF0028FAD0DD
:10430000C1F30801A96238BD054B186830B9012214
:104310001A60044A044B1A60FFF71CBB704700BFC9
:1043200028060020000C0040EC05002008B5044BD6
:104330001B680BB9FFF7E8FF024B586A08BD00BFC6
:1043400028060020000C0040034B1B685863DA6805
:1043500042F00202DA607047EC050020034B1A6855
:10436000D36823F00203D360704700BFEC05002040
:10437000024B6FF002021B681A617047EC050020C7
:1043800008B572B6962000F0E2F8962000F0DFF84B
:10439000F8E700000FB4064B07B504AA1B6852F8F3
:1043A000041BD868019201F0FFFD012000F000FD20
:1043B0004C02002038B50D460446C168436802B976
:1043C0001B040B6020460121FFF787FC294620468D
:1043D000BDE83840FFF77DBC70B50E460446154673
:1043E000FFF762FC013606D02A4620460021BDE8D0
:1043F0007040FFF7DFBF70BD0022FFF7EDBF000088
:1044000010B50446013001D110BD0C31B1F90030B6
:104410005A1C0BD09C42F8D120468968FFF71EFD3C
:1044200020460021BDE81040FFF73CBD0248BDE832
:104430001040FFF7AFBF00BF80C10008884208B539
:104440000AD0431C07D0013106D00448FFF7A2FF71
:104450004FF0FF3008BD084608BD00BF91C10008FD
:10446000B1F900305A1C05D0834201D14868704729
:104470000C31F5E718467047421C10B5044607D0CA
:10448000FFF7EEFF431C044602D10248FFF782FF0C
:10449000204610BDA2C10008064B1B6810B504469B
:1044A00003B19847044B1B681BB12046BDE8104080
:1044B000184710BDD8010020E4010020074B1B68FD
:1044C00010B504461BB1984708B9FFF7E5FF044B48
:1044D000186800B1804704B1206010BDDC010020E5
:1044E000E0010020036870B5DB6804469847636804
:1044F0005A6823681AB99B68BDE870401847156868
:104500005B689847281A636800285A6807DC916836
:1045100059601B68002BEAD050689847E7E723688A
:1045200010681B69BDE87040184700000148FFF79C
:10453000D9BF00BFF4C1000838B50446FFF7F6FE46
:104540000546FFF7F3FE401BA042FAD338BD4FF4F7
:104550007A735843FFF7F0BF084C08B5E3684FF48F
:104560007A7062681A60FCF783FF6368E2684FF450
:104570007A701B041360FCF77BFFEFE7B4030020A5
:1045800030B591B0FBF7B6FF6B4B04AC05460FCBD3
:1045900084E80F002046694CFCF704F90120FDF780
:1045A00037FB4FF4E1312060654800F00FFA00233B
:1045B0004FF0FF3220681946FDF7A4FB012823D1F4
:1045C0000020FFF77BFF10AB43F8340D184600F0D6
:1045D000E9FE202103465B4A0DEB010002F092FE4A
:1045E000242308AA584900935848594B00F05EFA12
:1045F000584B59491A68554800F058FA002320686A
:104600001A461946FDF74AFA4DBB2B464FF0FF32CA
:1046100029462068FDF776FB01284CD12846FFF794
:104620004DFF10AB43F8340D184600F0BBFE2021BF
:104630000346444A0DEB010002F064FE272308AA5A
:10464000414900934148424B00F030FA43493F480A
:1046500037A3D3E9002300F029FA2B4625E00023F5
:104660004FF0FF3220681946FDF74CFB012822D19C
:104670000020FFF723FF10AB43F8340D184600F07D
:1046800091FE202103462F4A0DEB010002F03AFE75
:104690002B2308AA2C4900932C482D4B00F006FA36
:1046A0002F492A4800F002FA002324481A461946E6
:1046B0000068FDF7F3F900234FF0FF322068194638
:1046C000FDF720FB012825D10020FFF7F7FE10ABF6
:1046D00043F8340D184600F065FE20210346194AC0
:1046E0000DEB010002F00EFE2E2308AA16490093DE
:1046F0001648174B00F0DAF9049B4FF400021949F1
:10470000124800F0D3F900230C481A4619460068F5
:10471000FDF7C4F9144B4FF4FA72144901930523C1
:10472000134800930023FCF767FCFCF73BFDFEE712
:10473000BFE55BBEE5FB5840FCC10008C803002094
:10474000CC0300200CC200082AC20008200400206C
:1047500021C20008D40100203EC200086FC2000838
:10476000A9C20008C5C20008C403002002C3000893
:1047700059450008094B036083686BB1084A136808
:10478000984202D14368136070475A68904201D042
:104790001346FAE742685A60704700BF14C3000826
:1047A0003406002010B50446FFF7E4FF204600F071
:1047B000E9FA204610BD0000054B8160036000232C
:1047C0000273436019B1034B1A6818604260704766
:1047D00014C30008340600200A4B70B506460D4687
:1047E0001C686CB1A06848B12A46314603F046FA0D
:1047F00020B9A06803F03AFA854201D06468F0E776
:10480000204670BD34060020007B704703680122FB
:1048100000211B6970B505469847431C04460ED01D
:104820002B680222002128461B6998472B68064600
:1048300000221B69214628469847304670BD70BD4E
:10484000074B002210B5044640F8043BFFF7B4FFC5
:10485000044B204603F1080234332260636010BD2C
:1048600038C400081CC30008074B03F108023433A6
:1048700010B50446026040F8043FFFF77BFF204676
:1048800000F036F9204610BD1CC30008002310B507
:104890000360044643600A782F2A13D14A788AB10C
:1048A000481C1946206023681A782F2A02D1013348
:1048B000236004E01AB1013301312360F3E7FFF70D
:1048C0008BFF6060204610BD00687047406808B5E7
:1048D00020B1FFF799FF431E5842584108BD10B55B
:1048E0000446FFF7F3FF00B1606810BD406808B5EB
:1048F00020B1FFF789FFB0FA80F0400908BD10B57C
:104900000446FFF7F3FF10B1606800B1043810BD32
:104910004068003018BF0120704700F05FB8A0F178
:104920005400FFF7FABF00F05CB8A0F15400FFF7A5
:10493000FABF000038B504461D4600F021F82946AC
:1049400004F1540000F07EF8054B204603F1080204
:10495000226003F1200254336265A36538BD00BFB5
:1049600058C300081823594343185A6B1B6A0AB9E5
:104970002BB118471BB1014418462431104770472A
:10498000F8B505460F4B04460E4645F8043B17465E
:1049900000211C22284600F0D1FE00233A46314671
:1049A000236228466363A363E3644FF416532365CD
:1049B000FFF79EFB284622460349FFF76DFC204681
:1049C000F8BD00BFBCC300086549000838B50446FF
:1049D0000D460430FFF75CFC256538BD0430FFF759
:1049E00071BC10B50C460430FFF782FC204610BDA8
:1049F000F8B507460D468E180C46B44208D03B6801
:104A0000384614F8011B5B6A98470130F5D12646F9
:104A1000701BF8BDF8B506460D468F180C46BC4213
:104A200008D0336830469B6A9847431C02D004F88C
:104A3000010BF4E7601BF8BD0020704700207047B1
:104A4000002070471FB50446FFF7FAFE0B4B01A884
:104A50000B4903F108023C336360002322602246C5
:104A6000636102F051FB074901A800F0C1FB6061DE
:104A700000F080F9204604B010BD00BFC4C3000898
:104A800008C400080CC40008074B03F108023C33BB
:104A900010B5044602604360406900F0EFF920461B
:104AA000FFF7E2FE204610BDC4C300080EB433B5C4
:104AB00005AB0446406953F8045B019300F098FA93
:104AC000019A2946606901F06FFA02B0BDE83040F2
:104AD00003B07047044B1B6823B917220921034810
:104AE000FFF706BB704700BFE8050020540900200F
:104AF000074B084A03600023194610B552F82340BB
:104B0000A04208BF42F823100133402BF6D110BD5C
:104B100038C4000838060020F7B50E462C49054673
:104B200002F085FB044610B9FFF7D4FF4CE0294999
:104B3000284602F07CFB18B9FFF7CCFF012443E0C4
:104B40002549284602F073FB18B9FFF7C3FF02247A
:104B50003AE00024214B53F8242072B10134402C58
:104B6000F9D107E029466846FFF790FE6846FFF74F
:104B7000CFFE60B94FF0FF3426E02B783A2BF1D10D
:104B80006A461749284602F0E3FA009816E068469C
:104B9000FFF7ACFE18B16846FFF7B1FE0EE06846BD
:104BA000FFF79DFE05460028E4D0036868469F682D
:104BB000FFF78AFE324601462846B8470028D9D07A
:104BC000064B43F824000334204603B0F0BD00BF79
:104BD0000FC4000828C4000816C4000838060020C6
:104BE00008C4000802284FF0000309DDC21E07496F
:104BF00051F8220041F8223020B103685B68184761
:104C0000184670474FF0FF30704700BF380600204D
:104C1000022870B50C4615460FDC0E4B1B680BB90D
:104C2000FFF758FF6619B44205D014F8011B0A4873
:104C3000FFF75EFBF7E7284670BD0338074B53F8D4
:104C4000200020B10368BDE870401B6818474FF092
:104C5000FF3070BDE8050020540900203806002010
:104C6000022810B50C460ADC0B4B1B680BB9FFF78A
:104C700031FF0A48FFF726FB2070012010BD0338E2
:104C8000074B53F8200020B10368BDE810409B6833
:104C900018474FF0FF3010BDE805002054090020F0
:104CA00038060020022807DD0338064B53F82000A1
:104CB00020B10368DB681847012070474FF0FF30D0
:104CC000704700BF38060020022807DD0338064B76
:104CD00053F8200020B103681B6918470020704773
:104CE0004FF0FF30704700BF38060020022808B59B
:104CF00004D84FF4005300204B6008BD00F052F878
:104D0000092303604FF0FF3008BD08B5012000F013
:104D10004FF8704708B5FEF7E7FFFFF7FAFFBDE869
:104D20000840FFF72DBC0000074A13681844EFF352
:104D30000881884223BF0C22044B4FF0FF301060E3
:104D40002CBF1A6018467047E80100207009002047
:104D5000074C054608B52368986800F049F92368B0
:104D6000D86800F045F90DB1FFF70AFBFEE700BF78
:104D70004C020020002102F032B90B4601461846D1
:104D800000F002B800F05CBC10B5054C13462CB125
:104D90000A4601460220AFF3008010BD204610BD38
:104DA00000000000014B1868704700BF4C02002053
:104DB00008B5074B044613B10021AFF30080054B43
:104DC0001868836A03B198472046FFF7C1FF00BF08
:104DD00000000000C0C4000870B505460C4609B9C3
:104DE000002070BD18B183690BB900F053F9204B56
:104DF0009C4201D16C6808E01E4B9C4201D1AC681A
:104E000003E01D4B9C4208BFEC68B4F90C30002B4A
:104E1000E6D02146284600F039F8236B064633B128
:104E2000216A284698470028B8BF4FF0FF36A3896B
:104E30001B0603D52169284600F0D6FE616B41B1FF
:104E400004F14403994202D0284600F0CDFE00232D
:104E50006363A16C21B1284600F0C6FE0023A36461
:104E600000F084F90023A38100F081F9304670BD81
:104E70005CC400087CC400089CC40008024B0146C6
:104E80001868FFF7A9BF00BF4C0200208A892DE9EE
:104E9000F041054610070C4659D44B68002B02DC44
:104EA0000B6C002B17DDE66AAEB102F480520023D2
:104EB00092B22F682B600AB1606D15E0216A012360
:104EC0002846B047411C0FD12B686BB11D2B01D078
:104ED000162B03D12F600020BDE8F081A38943F099
:104EE0004003A381BDE8F081A3895A0705D5636813
:104EF000C01A636B0BB1236CC01A00230246E66A2A
:104F0000216A2846B047431CA38906D129681D2978
:104F10003AD8214ACA40D60736D500226260D90461
:104F20002269226004D5421C01D12B6803B9606557
:104F3000616B2F600029CED004F14403994202D066
:104F4000284600F051FE00206063BDE8F0810F6943
:104F5000002FC0D093070E6808BF4B690F6018BFC1
:104F60000023C7EB06088B6002E00744C0EB08088B
:104F7000B8F1000FAFDD43463A46216AA66A2846DB
:104F8000B0470028F1DCA38943F04003A3814FF030
:104F9000FF30BDE8F08100BF0100402038B50B694B
:104FA00005460C46DBB118B183690BB900F072F805
:104FB0000C4B9C4201D16C6808E00B4B9C4201D128
:104FC000AC6803E0094B9C4208BFEC68B4F90C30B4
:104FD0002BB121462846BDE83840FFF757BF0020D7
:104FE00038BD00BF5CC400087CC400089CC4000835
:104FF000014620B9044B0549186800F08FB9044BED
:105000001868FFF7CBBF00BFC0C400089D4F000861
:105010004C020020014900F081B900BF9D4F0008FB
:10502000002310B5044603604360836081814366BA
:10503000C281036143618361194608225C3000F03C
:105040007DFB054B6362054BA362054BE362054B99
:105050002462236310BD00BFA5710008CB71000856
:10506000037200082772000870B568234D1E5D4367
:105070000E4605F1740100F0FDFD044640B100212B
:1050800080E842000C30A06005F1680200F056FB99
:10509000204670BD836910B5044633BB8364C36486
:1050A0000365124B124A1B688262984204BF0123B7
:1050B000836100F01FF86060204600F01BF8A060DC
:1050C000204600F017F80022E06004216068FFF736
:1050D000A7FF01220921A068FFF7A2FF02221221E7
:1050E000E068FFF79DFF0123A36110BDC0C4000865
:1050F00015500008F8B51C4B1E68B369074613B974
:105100003046FFF7C7FF4836B4687368013B04D4E4
:10511000B4F90C507DB16834F8E733680BB13668E8
:10512000F2E704213846FFF79FFF30600028F6D1F0
:105130000C233B60F8BD4FF6FF73E3810123A3818D
:1051400065662560A560656025616561A5610822C9
:10515000294604F15C0000F0F1FA6563A563A564DB
:10516000E5642046F8BD00BFC0C400087047704722
:10517000F7B50F46114601AA054604F061FE064642
:1051800008B9002029E02846FFF7B4FF04460028AC
:10519000F7D04FF4DB73019A3946284601F0A2FE9E
:1051A000002806DA0025FFF7E1FFA581FFF7DFFF02
:1051B000E7E70B4B63620B4BA3620B4BE3620B4BBA
:1051C0002363F305E081A681246205D50223002232
:1051D0002146284600F014F8204603B0F0BD00BF79
:1051E000A5710008CB71000803720008277200083F
:1051F000024B0A4601461868FFF7BABF4C0200206E
:1052000000F000B82DE9F8430C4690461E460546CE
:1052100018B183690BB9FFF73DFF3D4B9C4201D1AB
:105220006C6808E03B4B9C4201D1AC6803E03A4B10
:105230009C4208BFEC68A38903F48473B3F5847FB0
:1052400003D121462846FFF7A9FEE76A0FB91D23BF
:105250002BE0012E04D0022E2BD056B3162324E0CF
:1052600021462846FFF79AFEA28902F4805292B2A4
:105270000AB1606D05E0216A33462846B847411CF3
:1052800014D0A3895A0706D56368C01A636B4BB163
:10529000236CC01A06E01B0704D5236813B12269EA
:1052A0009B1A18448044002603E02B604FF0FF391E
:1052B0002BE023691BB92146284600F06BF92146F3
:1052C0002846FFF76BFE81460028EFD13346424661
:1052D000216A2846B8470130E8D0616B41B104F13A
:1052E0004403994202D0284600F07EFC0023636309
:1052F00023692360A389002123F402636160A381F1
:10530000082204F15C0000F019FA4846BDE8F88371
:105310005CC400087CC400089CC400082DE9F84364
:105320008046894600F14804002694B1A568676864
:10533000013F0CD4AB89012B07D9B5F90E300133ED
:1053400003D029464046C84706436835F0E724683D
:10535000EBE73046BDE8F88370B50E4B0E4CE41A0F
:10536000A41000251E46A54204D056F825309847C3
:105370000135F8E706F02EFE084C094BE41AA4109C
:1053800000251E46A54204D056F825309847013521
:10539000F8E770BDD8020020D8020020E00200200B
:1053A000D802002038B5074B1C68E36B05461BB9D3
:1053B000242000F03DF9E063E16B2846BDE8384069
:1053C00000F002B84C0200202DE9F0410C46804666
:1053D00005F0E2F821460746404605F0E1F8466947
:1053E00006F26C76B307044605D1642296FBF2F30D
:1053F00002FB13634BB94FF4C87596FBF5F305FB3D
:105400001365B5FA85F35B0900E001235F4A302597
:1054100005FB032503F02AFC03F02AFC5C4B1B6808
:10542000F3B17B689E4205D13968D8F80030FA693B
:1054300041B90AE0304603F071FB0028F4D14FF087
:10544000FF330DE0934208DB01E0934207DABA6BC9
:105450009342ACBF0023012302E0002300E00123BC
:105460002362236A012B0CBFF96B396A4FF4616325
:105470003C2091FBF3F603FB1613616893FBF0F2FB
:1054800000FB12302368891AA26861601B1A921B04
:105490003B2B2360A26003DD013161603C3B04E0F3
:1054A000002B03DA013961603C33236063683B2BD6
:1054B00003DD0132A2603C3B04E0002B03DA013A39
:1054C000A2603C336360A368172B22DDE2690132DE
:1054D000E261A2690132062AC8BF0022A261E26825
:1054E000183B0132A3602369E26055F823108A4219
:1054F00046DD01330C2B0CBF63692361A2EB010273
:10550000E26001BF013300222261636108BFE261F2
:1055100036E0002B34DAE269013AE261A269013A2D
:1055200048BF0622A261E2681833013AE260A36034
:1055300032BB2369013B01D423611DE00B232361AE
:1055400063695A1E12F0030F626103F26B7305D197
:10555000642193FBF1F201FB12324AB94FF4C87196
:1055600093FBF1F201FB1233B3FA83F35B0900E022
:10557000012303F5B673E361236955F82330E36033
:1055800003F075FB2046BDE8F08100BF24C500088C
:105590005C080020F0B58B899D0791B006460C464B
:1055A00026D4B1F90E10002909DAA38913F0800F6F
:1055B0004FF0000514BF40274FF480670DE001AAAB
:1055C00004F076FC0028F0DB029D05F47045A5F59B
:1055D00000514D424D414FF480673946304600F04E
:1055E00049FB60B9A3899A051DD443F00203A38146
:1055F00004F14703236023610123636113E00B4B34
:10560000B362A389206043F08003A38120616761B6
:105610004DB1B4F90E10304605F05AF818B1A3890F
:1056200043F00103A38111B0F0BD00BF1550000885
:10563000024B0146186800F01DBB00BF4C02002061
:10564000024B0146186800F0CFBA00BF4C020020A0
:1056500001F0FF01102A2BDB10F0070F08D010F823
:10566000013B013A8B422DD010F0070F42B3F6D127
:10567000F0B441EA012141EA014122F007047FF040
:1056800000070023F0E80256083C85EA010586EA97
:10569000010685FA47F5A3FA87F586FA47F6A5FAD3
:1056A00087F68EB9EED1F0BC01F0FF0102F00702DF
:1056B00032B110F8013B013A83EA010313B1F8D18A
:1056C0000020704701387047002D06BF354603386B
:1056D000073815F0010F07D1013015F4807F02BFA4
:1056E000013015F4C03F0130F0BC0138704700BFF5
:1056F00010B5431E0A44914204D011F8014B03F83F
:10570000014FF8E710BD884210B501EB020301D844
:10571000421E0BE09842FBD28118D21AD34204D029
:1057200013F8014D01F8014DF8E710BD994204D07E
:1057300011F8014B02F8014FF8E710BD024403468F
:10574000934202D003F8011BFAE77047F7B50168EE
:105750003B29044611D93C22684603F031FD019AE9
:1057600063680099002A0B446360BBBF3C3203F1BD
:10577000FF3322602260B8BF636061683B2911D9A2
:105780003C22684603F01CFD019AA168009B002A98
:105790000B44A360BBBF3C3203F1FF336260626025
:1057A000B8BFA360A168172911D91822684603F071
:1057B00007FD019AE168009B002A0B44E360BBBF30
:1057C000183203F1FF33A260A260B8BFE360216921
:1057D0000B2911D90C22684603F0F2FC019A616989
:1057E000009B002A0B446361BBBF0C3203F1FF3303
:1057F00022612261B8BF63616369990712D1642194
:1058000093FBF1F201FB123272B903F26C734FF4A5
:10581000C87193FBF1F201FB1233002B14BF1C2360
:105820001D2302E01C2300E01D23E268002A06DDA0
:10583000334F4FF0000E64254FF4C87639E0304FF7
:105840000B2664204FF4C875D4F80CE0BEF1000FAD
:1058500053DC216901392161013118D16369266165
:10586000591E8A0761610FD191FBF0F200FB121102
:1058700061B903F26B7393FBF5F205FB1233002B56
:1058800014BF1C231D2302E01C2300E01D232269FA
:10589000012A14BF57F822201A467244E260D3E767
:1058A0008B422ADA18460132091A0C2AE160226179
:1058B00008D02269E168012AF2D057F8220081421B
:1058C000F1DC1AE06369C4F810E05A1C91076261C8
:1058D0000FD192FBF5F105FB112262B903F26D7352
:1058E00093FBF6F206FB1233002B14BF1C231D237F
:1058F000DFE71C23DDE71D23DBE703B0F0BD00BFBE
:10590000F4C400082DE9F047054604F045FE814641
:105910002846FFF71BFF95E80C003C2101FB032301
:10592000AA68EC684FF4616808FB02312B69AB4A46
:1059300052F82320013C012B14446B6911DD9E07B2
:105940000FD1642093FBF0F200FB123242B903F254
:105950006C764FF4C87296FBF2F002FB106202B94B
:10596000013403F51C52103244F620608242EC618F
:105970001F4600F22E81462B22DD462240F26D1C8E
:1059800064264FF4C87E900710D192FBF6F006FB18
:10599000102070B902F26C7898FBFEF00EFB1080BC
:1059A000002814BF60464FF4B77004E040F26D1059
:1059B00001E04FF4B770013293420444E3D144E074
:1059C00043D0452240F26D1E64264FF4C8779A42B8
:1059D0001ADD900710D192FBF6F006FB102070B98B
:1059E00002F26C7C9CFBF7F007FB10C0002814BF90
:1059F00070464FF4B77004E040F26D1001E04FF4D0
:105A0000B770241A013AE2E7452BA8BF45239E0749
:105A10001F4614D1642293FBF2F302FB13738BB97C
:105A200007F26C704FF4C87390FBF3F203FB1203A0
:105A3000002B40F26D1308BF4FF4B77304E040F23F
:105A40006D1301E04FF4B773E41A654800FB0418C6
:105A500003F00CF903F00CF9624B1E68002E00F005
:105A6000A4802B6A6869012BA8BF01239A46D9F844
:105A7000043000F26C7098420DD1D9F83820D9F872
:105A80002030D9F83C00D9F81C10D61AB045A1EB4B
:105A9000000105DA07E003F041F80028EDD176E0D7
:105AA000121A904573DBD9F8002012B1884577DBD4
:105AB00001E0884507DAB045ACBF00260126BAF1FF
:105AC000000F04DA64E0BAF1000F63DB01268AEA12
:105AD000060ABAF1010F5BD11B1A06B95B422A68AC
