:020000040800F2
:10000000000005208D1C0008D91C0008D91C000820
:10001000D91C0008D91C0008D91C000800000000E9
:100020000000000000000000000000003106000891
:10003000D91C000800000000D106000835070008A0
:10004000D91C0008D91C0008D91C0008D91C0008BC
:10005000D91C0008D91C0008D91C0008D91C0008AC
:10006000D91C0008D91C0008D91C0008D91C00089C
:10007000D91C0008D91C0008D91C0008D91C00088C
:10008000D91C0008D91C0008D91C0008D91C00087C
:10009000D91C0008D91C0008D91C0008D91C00086C
:1000A000D91C0008D91C0008D91C0008D91C00085C
:1000B000D91C0008D91C0008D91C0008D91C00084C
:1000C000D91C0008D91C0008D91C0008D91C00083C
:1000D000D91C0008D91C0008D91C0008D91C00082C
:1000E000D91C0008D91C0008D91C0008D91C00081C
:1000F000D91C0008D91C0008D91C0008D91C00080C
:10010000D91C0008D91C0008D91C0008D91C0008FB
:10011000D91C0008D91C0008D91C0008D91C0008EB
:10012000D91C0008D91C0008D91C0008D91C0008DB
:10013000D91C0008D91C0008D91C0008D91C0008CB
:10014000D91C0008D91C0008D91C0008D91C0008BB
:10015000D91C0008D91C0008D91C0008D91C0008AB
:10016000D91C0008D91C0008D91C0008D91C00089B
:10017000D91C0008D91C0008D91C00080000000088
:10018000D91C0008D91C0008D91C0008D91C00087B
:10019000D91C0008D91C0008D91C0008D91C00086B
:1001A000D91C0008D91C0008D91C0008D91C00085B
:1001B000D91C0008D91C0008D91C0008D91C00084B
:1001C000D91C0008D91C0008044B05481B1A062B33
:1001D00002D9044B03B11847704700BFE702002063
:1001E000E40200200000000005490648091A8910B1
:1001F00001EBD171491002D0034B03B1184770478E
:10020000E4020020E40200200000000010B5064CCB
:10021000237843B9FFF7D8FF044B13B10448AFF379
:1002200000800123237010BDE402002000000000C4
:10023000ACBF000808B5084B1BB108490848AFF32C
:1002400000800848036813B9BDE80840CCE7064BB6
:10025000002BF9D09847F7E700000000E8020020E3
:10026000ACBF0008E002002000000000154B002B8E
:1002700008BF134B9D46A3F5803A00218B460F46DD
:100280001348144A121A04F0F9FC0F4B002B00D04B
:1002900098470E4B002B00D0984700200021040007
:1002A0000D000D48002802D00C48AFF3008004F088
:1002B000EDFA2000290003F0C7FF04F013F800BF97
:1002C0000000080000000520000000000000000001
:1002D000E4020020D03000200000000000000000F8
:1002E00070470000064B10B503F1180203604C3351
:1002F000044642655430436003F060FE204610BD62
:10030000FCB70008A0F15400ECE7A0F15800E9E7C1
:1003100010B5044603F0D0FF204610BD10B50446CA
:10032000FFF7E0FF204603F0C7FF204610BDA0F115
:100330005400F3E7A0F15800F0E7000038B5134C83
:10034000102500212A46204604F098FC2046104C37
:10035000172103F08DFB2A460021204604F08EFC75
:1003600020460C4C1E2103F083FB0B4B3922382115
:10037000204603F079FD094A0949204603F097FF1A
:10038000012001F0CDFA074B186038BD180300209A
:1003900000030020280300202CB50008C80100201D
:1003A000E5020008140300200F4B10B51A688242C2
:1003B00001D21346FAE759685C18A04201BF4068B1
:1003C00009181846596041684418A24207D1074CE1
:1003D0002468A2421FBF54681268091941609842FC
:1003E000026018BF186010BD9C0300209803002015
:1003F0002DE9F041044600F0A1FD4249424D0B6851
:100400000BBB424A5607424E1BBFD01D02F520537C
:100410004FF4205320F007001CBF02461B1A002097
:10042000134432607060083B23F007031860586083
:10043000981A0B601360374B50601860364B186089
:100440004FF000432B602F68274247D1002C46D045
:1004500004F1080358071CBF23F007030833002BDF
:100460003AD02D4A16689046B34237D8284A1568C4
:100470006868834203D809688D4206D12EE02C6853
:10048000002CF8D02A462546F2E729681468116046
:10049000C21A102A11D9E81841070AD04FF05003A8
:1004A00072B683F31188BFF36F8FBFF34F8F62B6BD
:1004B000FEE742606B60FFF777FF6B680834154911
:1004C000F21A1F4308680023C8F8002082426F60B8
:1004D0002B6038BF0A6002E01C4600E0002400F0F8
:1004E000D5FD63070AD04FF0500372B683F311882D
:1004F000BFF36F8FBFF34F8F62B6FEE72046BDE8B4
:10050000F08100BF98030020A42B0020A40300204A
:100510009C030020A82B00209403002010B5044663
:10052000002832D0194A50F8043C126813420AD10C
:100530004FF0500372B683F31188BFF36F8FBFF390
:100540004F8F62B6FEE750F8081C51B14FF05003D0
:1005500072B683F31188BFF36F8FBFF34F8F62B60C
:10056000FEE723EA020340F8043C00F0E7FC084AF7
:1005700054F8041CA4F1080013680B441360FFF73F
:1005800013FFBDE8104000F081BD10BDA42B00207A
:10059000940300200C4B1B6801330AD04FF050032A
:1005A00072B683F31188BFF36F8FBFF34F8F62B6BC
:1005B000FEE74FF0500372B683F31188BFF36F8FDD
:1005C000BFF34F8F62B6FEE7CC01002006480068FB
:1005D000006880F3088862B661B6BFF34F8FBFF33F
:1005E0006F8F00DF00BF000008ED00E0DFF80C00B7
:1005F000016841F4700101607047000088ED00E07F
:100600004FF0807321F0010140F8202C443803643E
:10061000034BC16383636FF002030362704700BF43
:100620009505000800000000000000000000000028
:10063000074B19680868B0E8F04F80F30988BFF3EA
:100640006F8F4FF0000080F311887047AFF3008088
:10065000942C00204FF0500372B683F31188BFF33F
:100660006F8FBFF34F8F62B60B4A13680133012BB4
:1006700013600FD1094B1B6813F0FF0F0AD04FF026
:10068000500372B683F31188BFF36F8FBFF34F8FA0
:1006900062B6FEE7704700BFCC01002004ED00E029
:1006A000094A136853B94FF0500372B683F31188A7
:1006B000BFF36F8FBFF34F8F62B6FEE7013B13604E
:1006C0000BB983F311887047CC01002000000000B3
:1006D000EFF30980BFF36F8F154B1A681EF0100FF0
:1006E00008BF20ED108A20E9F04F10604DF8043D5E
:1006F0004FF0500072B680F31188BFF34F8FBFF3F5
:100700006F8F62B600F09EFD4FF0000080F31188FD
:1007100008BC19680868B0E8F04F1EF0100F08BF59
:10072000B0EC108A80F30988BFF36F8F704700BF69
:10073000942C002008B54FF0500372B683F3118853
:10074000BFF36F8FBFF34F8F62B600F005FC18B197
:100750004FF08052024B1A60002383F3118808BDCA
:1007600004ED00E0064B4FF47A721B68B3FBF2F322
:10077000044A013B13600722034B1A60704700BF15
:10078000D001002014E000E010E000E0234B13B59E
:100790001A780021D2B20192FF221A701B78204AE7
:1007A000DBB28DF803309DF8033003F05003137073
:1007B00007221C4B1A609DF80300541E000608D542
:1007C0009DF8032001215200D2B28DF80320224669
:1007D000F1E701B11A601A68120202F4E0621A60CD
:1007E000019B0E4ADBB213700F4B1A6842F4700281
:1007F0001A601A6842F070421A60FFF7B3FF0022D5
:100800000A4B1A60FFF7F2FE094A136843F04043AF
:100810001360FFF7DBFEFFF7BDFE00BF00E400E062
:10082000AC2B0020B02B002020ED00E0CC010020FC
:1008300034EF00E0EFF305830F2B10D9124A9B5CD5
:10084000124A12789A420AD94FF0500372B683F3D3
:100850001188BFF36F8FBFF34F8F62B6FEE70C4B6B
:100860000C4A1B68126803F4E06393420AD94FF004
:10087000500372B683F31188BFF36F8FBFF34F8FAE
:1008800062B6FEE7704700BFF0E300E0AC2B00204B
:100890000CED00E0B02B0020F8B50F4CFFF7DAFEAE
:1008A0002568ADB90D4F0E4E384601F0ACF9304613
:1008B00001F0A9F90B4B2A460C211F600A200A4BB4
:1008C0001E6000F04DFF206010B1084901F064F98E
:1008D000BDE8F840FFF7E4BEE42B0020B82B002071
:1008E000CC2B0020B42B0020E82B002036B50008CC
:1008F000914208B54160006106D8D21A83699A42D4
:100900000DD2011D074B05E09A4201D2994206D251
:10091000011D054B186801F090F9002008BD012069
:1009200008BD00BFE82B0020B42B002007B5FFF75F
:10093000B3FF0E4B1B685BB10D4B4FF482720D4938
:10094000019302230C480093002300F0DDF950B915
:100950004FF0500372B683F31188BFF36F8FBFF36C
:100960004F8F62B6FEE703B05DF804FBE42B002076
:10097000EC2B00203BB50008610A000830B5154695
:1009800085B01A46034650B94FF0500372B683F350
:100990001188BFF36F8FBFF34F8F62B6FEE70D4C28
:1009A0002068A0B105290191029503930BDC00F0AA
:1009B00059FD0023022801A920680CBF089A1A4695
:1009C00000F0F4FE03E0002301A900F0BBFF05B036
:1009D00030BD00BFE42B00202DE9F7431E4E4FF041
:1009E0000008374633681A686AB3DB68DC681D683C
:1009F00004F10409484601F038F9636A2046984733
:100A0000E369012BEED1A3692B449D4206D26360BA
:100A100049462461386801F010F9E3E70023CDF876
:100A200000802A4620461946FFF7A8FF0028D9D1A2
:100A30004FF0500372B683F31188BFF36F8FBFF38B
:100A40004F8F62B6FEE7054A0349106813600860DD
:100A500003B0BDE8F08300BFB42B0020E82B0020DA
:100A60002DE9F04F704D89B0DFF8CC812F462B680F
:100A7000D3F800B0BBF1000F03D0DB68D3F80090CF
:100A800000E0D94600F05AFA00F060FA674B82465F
:100A90001A681E46904205D203930124FFF79CFF7B
:100AA000039B00E00024C3F800A0002C4ED1BBF152
:100AB000000F30D0CA4535D300F0E8FA3B68DB6858
:100AC000D3F80CB00BF1040001F0CFF8DBF81C30C8
:100AD000012B1BD1DBF818104B46524658464944AF
:100AE000FFF706FF90B1009423464A462146584638
:100AF000FFF744FF50B94FF0500372B683F31188EB
:100B0000BFF36F8FBFF34F8F62B6FEE7DBF8243081
:100B1000584698474CE0464B1B681A68B2FA82F276
:100B2000520900E02246434BCAEB0901186801F064
:100B300047F800F0ABFA00283AD14FF08053C8F8DC
:100B40000030BFF34F8FBFF36F8F31E000F09EFA9C
:100B50002EE0002305A9D9F800001A4600F05AFF3C
:100B6000002884D0059B002BF3DB079C636913B13D
:100B7000201D01F07AF800F0E9F9336883469842C5
:100B800001D2FFF729FF059AC6F800B0092AE0D87C
:100B90000123934013F4047A30D113F0C70F0AD025
:100BA000A1695A46069B20461944FFF7A1FE40B9A9
:100BB000DFF88090CDE79B06CBD52046FFF7AEFC53
:100BC000F6E7636A20469847E369012BF0D1A269F2
:100BD000534606992046CDF800A00A445146FFF737
:100BE000CDFE0028E4D14FF0500372B683F3118894
:100BF000BFF36F8FBFF34F8F62B6FEE70699A16117
:100C000051B94FF0500372B683F31188BFF36F8F61
:100C1000BFF34F8F62B6FEE75B465A465944204603
:100C2000FFF766FEC4E700BFB42B0020E02B0020D6
:100C3000E82B0020E42B002004ED00E0064A1368B6
:100C40001968064B11B94FF0FF3203E01268D26801
:100C5000D26852681A607047F42B0020982C00204C
:100C6000F8B51C4B04461C4D0F461E68286804301E
:100C700000F0FBFF2B4640B92A68184DD16A0122CB
:100C800028688A4020EA02022A60621C07D137B134
:100C9000196813480431BDE8F84000F0C2BF34447D
:100CA0001B680D4AA6425C6007D90E4B1868116894
:100CB000BDE8F840043100F0C0BF0B4B1868116864
:100CC000043100F0BAFF094B1A68944200D21C604C
:100CD000F8BD00BF9C2C0020942C0020EC2C0020A0
:100CE000D82C0020A02C0020F42B0020982C0020D1
:100CF0004FF0500372B683F31188BFF36F8FBFF3C9
:100D00004F8F62B6FEE700002DE9F84F9500804650
:100D10000F46994628460B9EFFF76AFB824600283D
:100D200000F0A8805820FFF763FB044688B1C0F8A4
:100D300030A02A465046A52103F0A0FFA5F1040AE1
:100D4000256B7B1E04F133020937AA442AF0070AF7
:100D500005E05046FFF7E2FB8CE09F4206D013F817
:100D6000011F02F8011F19780029F6D10A9D4FF0E2
:100D7000000B271D042D84F83DB03846C4F84CB054
:100D800028BF0425E562A564C5F1050500F046FF0E
:100D900004F1180000F042FFC4F850B024614A4644
:100DA000A56141466462504684F854B0FFF728FCC0
:100DB000206006B13460FFF74DFC304B304E1A68AE
:100DC000DFF8E88001321A60356815BB34601B68B3
:100DD000012B27D108EB0500143500F014FF642D1A
:100DE000F8D1DFF8CC90274D484600F00CFF28469C
:100DF00000F009FF244800F006FF244800F003FF3C
:100E0000234800F000FF234BC3F80090224B1D60E5
:100E100008E0224B1B682BB93368DA6AE36A9A420E
:100E200000D834601E4A01251E491368013313603F
:100E3000E26A236405FA02F00B68034314200B6096
:100E4000394600FB028000F0ECFEFFF729FC134B53
:100E50001B6863B13368DA6AE36A9A4207D24FF0DB
:100E60008052114B1A60BFF34F8FBFF36F8F28462C
:100E7000BDE8F88F4FF0FF30BDE8F88FBC2C0020A4
:100E8000942C0020C02C0020A42C00207C2C0020BE
:100E9000D82C0020F42B0020A02C0020F82B0020C0
:100EA000B82C0020EC2C002004ED00E0182C0020D1
:100EB000002C002013B51B4B002482221A490193F9
:100EC000234600941948FFF71FFF01281AD1FFF7A6
:100ED0002DFD012816D14FF0500372B683F311880F
:100EE000BFF36F8FBFF34F8F62B64FF0FF32104BDF
:100EF0001A60104B1860104B1C6002B0BDE8104027
:100F0000FFF744BC01300AD14FF0500372B683F3AF
:100F10001188BFF36F8FBFF34F8F62B6FEE702B049
:100F200010BD00BFD42C002043B50008CD1100082F
:100F3000982C0020F82B00209C2C0020024A1368DB
:100F400001331360704700BFFC2B0020014B186871
:100F5000704700BF9C2C0020414B1B682DE9F74FC8
:100F6000002B3DD13F4B1C6801341C60CCB93E4B7B
:100F70001A68126852B14FF0500372B683F31188A9
:100F8000BFF36F8FBFF34F8F62B6FEE7374A196822
:100F9000106818601160364A136801331360FFF758
:100FA0004DFE344D4FF0000B334E2B6801959C42A3
:100FB000324F0BD3DFF8B080DFF8CC90D8F80020A8
:100FC0001268A2B94FF0FF32019B1A603A68D16AE9
:100FD00014224A43B258022A28BF4FF0010B34E0D2
:100FE000274A4FF0000B1368013313602DE0D8F847
:100FF0000020D268D56869688C4202D2019B1960D2
:10100000E4E705F1040A504600F02FFEA96A19B181
:1010100005F1180000F029FEE86A0123D9F8001054
:1010200003FA00FE4EEA01014FF0140EC9F8001059
:1010300051460EFB006000F0F4FD3868E96AC26AB0
:10104000914228BF4FF0010BB8E70E4A1268002A00
:1010500018BF4FF0010B584603B0BDE8F08F00BF3A
:10106000FC2B00209C2C0020F42B0020A02C002026
:10107000F02B0020982C0020182C0020942C00200D
:10108000142C0020F02C0020EC2C00202DE9F8433B
:10109000324C236853B94FF0500372B683F3118872
:1010A000BFF36F8FBFF34F8F62B6FEE7FFF7D2FA41
:1010B0002368013B236024680CB1002449E0284BDD
:1010C0001B68002BF9D0DFF8B090264FDFF8AC801A
:1010D000D9F8003003B3D9F80C300125DC68261D9F
:1010E00004F1180000F0C1FD304600F0BEFDE26AD8
:1010F0003B68142005FA02F100FB02800B433146E5
:101100003B6000F08EFD184BE26A1B68DB6A9A4276
:10111000DED3164B1D60DBE70CB1FFF78FFD144BE0
:101120001C681D4644B1114E0127FFF715FF00B1A1
:101130003760013CF9D12C600C4B1B68002BBCD0F4
:101140004FF080520B4B1A60BFF34F8FBFF36F8F7E
:101150000124FFF7A5FA2046BDE8F883FC2B002008
:10116000BC2C0020EC2C0020942C0020F02C002023
:10117000142C002004ED00E0A42C0020182C0020EA
:1011800008B540B94FF080520E4B1A60BFF34F8F35
:10119000BFF36F8F08BD0C4B196851B14FF050036E
:1011A00072B683F31188BFF36F8FBFF34F8F62B6B0
:1011B000FEE7FFF7C3FEFFF753FDFFF767FF0028C9
:1011C000E0D008BD04ED00E0FC2B0020184D2E46B9
:1011D00080B5184F2B68F3B1FFF7B0FE3C68FFF7FE
:1011E00055FF002CF6D0FFF735FA124BDB68DC68B0
:1011F000201D00F03AFD104A1368013B136033686C
:10120000013B3360FFF74CFA206BFFF787F920466C
:10121000FFF784F9DEE7094B1B68012BD9D94FF0A2
:101220008052074B1A60BFF34F8FBFF36F8FD0E729
:10123000902C00207C2C0020BC2C0020182C00209E
:1012400004ED00E0184B1A68184B10B50AB10122E2
:1012500027E01A60164B1B68B3FA83F3DBB2142243
:101260001449C3F11F035A438C58881854B94FF0DE
:10127000500372B683F31188BFF36F8FBFF34F8FA4
:1012800062B6FEE74468083264680A4494424460E7
:1012900004BF62684260142202FB03135B68DA68D1
:1012A000054B1A6010BD00BFFC2B0020F02C002065
:1012B000EC2C0020182C0020942C002010B50C469B
:1012C00050B94FF0500372B683F31188BFF36F8F9C
:1012D000BFF34F8F62B6FEE7054B1968183100F077
:1012E000ACFC20460121BDE81040FFF7B9BC00BFAF
:1012F000942C002038B50D46144650B94FF05003D9
:1013000072B683F31188BFF36F8FBFF34F8F62B64E
:10131000FEE7074B1968183100F083FC002C2146CA
:101320000CBF28464FF0FF30BDE83840FFF798BCAF
:10133000942C0020C36870B5DC6854B94FF050039A
:1013400072B683F31188BFF36F8FBFF34F8F62B60E
:10135000FEE704F11805284600F087FC114B1B68D6
:1013600083B9261D304600F080FC0F49E56A012351
:101370000A681420AB4013430B6031460B4B00FB53
:10138000053001E029460A4800F04BFC094BE26AAF
:101390001B68DB6A9A4203D90120074B186070BDB5
:1013A000002070BDFC2B0020EC2C0020182C00200D
:1013B000A42C0020942C0020F02C002008B508B9A3
:1013C000FFF796FC034B1B680360034B1B684360ED
:1013D00008BD00BFF02B00209C2C002038B50D4626
:1013E000044650B94FF0500372B683F31188BFF32F
:1013F0006F8FBFF34F8F62B6FEE751B94FF05003C6
:1014000072B683F31188BFF36F8FBFF34F8F62B64D
:10141000FEE7FFF71FF90E4B19682B685A1C10D016
:101420000C4A206812689042626801D091420AD248
:10143000881A834207D9521A204613442B60FFF7BB
:10144000BDFF002400E00124FFF72AF9204638BD43
:101450009C2C0020F02B00200122014B1A607047C9
:10146000F02C0020054B1B6833B1054B1B68002B8B
:101470000CBF02200020704701207047F82B00208D
:10148000FC2B00202DE9F0410446002838D01D4DEA
:10149000C36A2A68D26A934232D28269002A04DB84
:1014A0002A68D26AC2F105028261174E1427626966
:1014B00007FB03639A4220D104F10408404600F080
:1014C000D4FB124B48B9E06A4743F2592AB90122CA
:1014D0001968824021EA02021A602A680120414606
:1014E000D26AE26290401C6820431860142000FB1E
:1014F0000260BDE8F04100F094BB2B68DB6AE36258
:10150000BDE8F081942C0020182C0020EC2C002049
:10151000F8B5044608B90020F8BD244B1B68984272
:101520000AD04FF0500372B683F31188BFF36F8F68
:10153000BFF34F8F62B6FEE7C36C53B94FF0500351
:1015400072B683F31188BFF36F8FBFF34F8F62B60C
:10155000FEE7C16A013B826CC3649142DBD0002B81
:10156000D9D1051D124E284600F07FFB114A50B913
:10157000E76A1421794373582BB901231068BB40E3
:1015800020EA03031360A36C1068C3F10501E36252
:10159000A161012404FA03F10843294610601420D4
:1015A00000FB036000F03DFB2046F8BD942C0020BA
:1015B000182C0020EC2C0020044B1A681AB1196872
:1015C000CA6C0132CA641868704700BF942C0020AE
:1015D00070B51546026C0446866B32B905682DBBA2
:1015E0004068FFF795FF656027E065B9806803F004
:1015F0001FFBA268236C134462689342A36017D355
:101600002368A36014E0C06803F012FB236CE26857
:101610005B4221681A448A42E2603EBF62689B18BE
:10162000E360022D06D13EB1013E03E0104604E026
:10163000284602E0002000E030460136A66370BD77
:10164000034608461A6C10B462B1D9685C6811444C
:10165000A142D9605DF8044B24BF1968D960D968EC
:1016600003F0E6BA5DF8044B704770B50446FEF728
:10167000F1FF94F8455004F12406EDB26BB2002B53
:101680000ADD636A43B13046FFF754FE08B1FFF745
:10169000E3FE013DEDB2F1E7FF2304F1100684F80B
:1016A0004530FEF7FDFFFEF7D5FF94F84450EDB24C
:1016B0006BB2002B0ADD236943B13046FFF73AFED7
:1016C00008B1FFF7C9FE013DEDB2F1E7FF2384F851
:1016D0004430BDE87040FEF7E3BF000038B50D466A
:1016E000044650B94FF0500372B683F31188BFF32C
:1016F0006F8FBFF34F8F62B6FEE7FEF7ABFF206C34
:10170000E36B22684343A260D1181B1A1344616043
:101710000021E360FF23A16384F8443084F845305E
:101720007DB92369ABB104F11000FFF703FE80B16E
:101730004FF08052094B1A60BFF34F8FBFF36F8F8A
:1017400007E004F1100000F05EFA04F1240000F05C
:101750005AFAFEF7A5FF012038BD00BF04ED00E0F6
:10176000F8B50D461746064650B94FF0500372B60D
:1017700083F31188BFF36F8FBFF34F8F62B6FEE71D
:1017800048435030FEF734FE044668B10DB920607E
:1017900002E000F150030360E66301212564204666
:1017A000FFF79CFF84F84C702046F8BD2DE9FF47F9
:1017B000894601921F46044650B94FF0500372B655
:1017C00083F31188BFF36F8FBFF34F8F62B6FEE7CD
:1017D00061B9036C53B14FF0500372B683F31188B3
:1017E000BFF36F8FBFF34F8F62B6FEE7022F0DD1AD
:1017F000E36B012B0AD04FF0500372B683F31188CC
:10180000BFF36F8FBFF34F8F62B6FEE7FFF72AFE7D
:1018100010B9019E0EB172E000264FF00008DFF80B
:10182000FCA0FEF717FFA26BE36B9A4201D3022FD5
:1018300017D13A4649462046FFF7CAFE636A1BB1F4
:1018400004F12400FFF776FD38B14FF08052334B9E
:101850001A60BFF34F8FBFF36F8FFEF721FF012098
:1018600058E0019D1DB9FEF71BFF284652E016B94E
:1018700002A8FFF7A3FDFEF713FFFFF75FFBFEF7DC
:10188000E9FE94F84430FF2B01D184F8448094F8A9
:101890004530FF2B01D184F84580FEF701FF01A9F7
:1018A00002A8FFF79BFD18BBFEF7D4FEA66BE56B05
:1018B000FEF7F6FEAE4215D1019904F11000FFF7D4
:1018C000FDFC2046FFF7D1FEFFF7E0FB08B1012643
:1018D000A7E74FF08053CAF80030BFF34F8FBFF334
:1018E0006F8FF4E72046FFF7C0FEFFF7CFFBEEE770
:1018F0002046FFF7BAFEFFF7C9FB00200AE04FF0D1
:10190000500372B683F31188BFF36F8FBFF34F8F0D
:1019100062B6FEE704B0BDE8F08700BF04ED00E06A
:1019200010B5024600210120FFF71AFF044638B126
:10193000002343601A4603601946C360FFF736FF71
:10194000204610BD2DE9F843884691461F460446BF
:1019500050B94FF0500372B683F31188BFF36F8F05
:10196000BFF34F8F62B6FEE761B9036C53B14FF01E
:10197000500372B683F31188BFF36F8FBFF34F8F9D
:1019800062B6FEE7022F0DD1E36B012B0AD04FF0B8
:10199000500372B683F31188BFF36F8FBFF34F8F7D
:1019A00062B6FEE7FEF746FFEFF311864FF05003F5
:1019B00072B683F31188BFF36F8FBFF34F8F62B698
:1019C000A26BE36B9A4201D3022F1DD194F84550CC
:1019D0003A4641462046EDB2FFF7FAFDFF2D0DD104
:1019E000636A7BB104F12400FFF7A4FC50B1B9F1A4
:1019F000000F07D00120C9F8000006E00135EDB264
:101A000084F84550012000E0002086F31188BDE8ED
:101A1000F88300002DE9FF47884601929946044665
:101A200050B94FF0500372B683F31188BFF36F8F34
:101A3000BFF34F8F62B6FEE761B9036C53B14FF04D
:101A4000500372B683F31188BFF36F8FBFF34F8FCC
:101A500062B6FEE7FFF706FD10B9019E0EB18AE0FF
:101A600000260027DFF82CA1FEF7F4FDA56B3DB39F
:101A700041462046E668FFF7E3FDB9F1000F0BD1C0
:101A8000013D2368A56313B9FFF796FD60602369E4
:101A900093B104F1100004E0636AE66063B104F1FD
:101AA0002400FFF747FC38B14FF08052394B1A60E1
:101AB000BFF34F8FBFF36F8FFEF7F2FD012065E09C
:101AC000019D15B9FEF7ECFD53E016B902A8FFF72A
:101AD00075FCFEF7E5FDFFF731FAFEF7BBFD94F864
:101AE0004430FF2B01D184F8447094F84530FF2B2B
:101AF00001D184F84570FEF7D3FD01A902A8FFF7D4
:101B00006DFC50BBFEF7A6FDA56BFEF7C9FDF5B950
:101B1000236833B9FEF79EFD6068FFF7B3FCFEF75C
:101B2000BFFD019904F12400FFF7C8FB2046FFF731
:101B30009CFDFFF7ABFA08B1012695E74FF0805303
:101B4000CAF80030BFF34F8FBFF36F8FF4E7204622
:101B5000FFF78BFDFFF79AFAEEE72046FFF785FDCA
:101B6000FFF794FAFEF776FDA56BFEF799FD002DC1
:101B7000E2D128460AE04FF0500372B683F3118891
:101B8000BFF36F8FBFF34F8F62B6FEE704B0BDE8BF
:101B9000F08700BF04ED00E00023084A30B552F89A
:101BA000335002EBC30425B9044A606042F8331095
:101BB00030BD0133082BF2D130BD00BFC42F00204F
:101BC00070B504460D461646FEF744FD94F84430C1
:101BD000FF2B02D1002384F8443094F84530FF2BCA
:101BE00002D1002384F84530FEF75AFDA36B2BB9D0
:101BF0003246294604F12400FFF77CFB2046BDE86D
:101C00007040FFF732BD00F108034FF0FF32436030
:101C1000C360036100238260036070470023036197
:101C2000704743689A684B608A609A68516099600F
:101C3000036808610133036070470A68531C30B5BC
:101C400001D1036907E000F108035C682568AA4236
:101C500001D32346F9E75A684A6091608B60596066
:101C6000036808610133036030BD4168826803691D
:101C70008A60826851605968884208BF5A600022B1
:101C8000026118680138186070470000DFF830D032
:101C9000002103E00B4B5B58435004310A480B4BC7
:101CA00042189A42F6D30A4A02E0002342F8043B63
:101CB000084B9A42F9D301F0EBFAFEF7D7FA7047D6
:101CC00000000520B8BF0008C8010020E402002081
:101CD000E4020020D0300020FEE77047074A0320CE
:101CE00008B5136843F40073136000F017F80F2071
:101CF00001F06CF9FFF7F1FF002008BD003C024045
:101D0000024A136801331360704700BFF42C0020AF
:101D1000014B1868704700BFF42C0020074A0002EE
:101D2000D36800F4E06023F4E0631B041B0C43F071
:101D3000BF6343F400330343D360704700ED00E01A
:101D40002DE9F04F0B6885B06F4E01930023DFF84B
:101D5000C0C1B646DFF8BC810122019C9A4032EA3C
:101D6000040440F0C9804C6824F01009B9F1020F56
:101D700014D14FEAD30A03F0070B0F2500EB8A0AB0
:101D80004FEA8B0BDAF8207005FA0BF527EA050508
:101D90000F6907FA0BF72F43CAF820704FEA430A7E
:101DA0000325076804F0030B05FA0AF509F1FF396A
:101DB0000BFA0AFBED43B9F1010F07EA05074BEAFD
:101DC0000707076012D8876805EA0709CF6807FA8E
:101DD0000AF747EA0907C4F30019876009FA03F90B
:101DE000476827EA020749EA07074760C7683D4096
:101DF0008F6807FA0AF73D43C560E5007CD5DCF83B
:101E0000445023F0030703F0030A4FF00F0945F491
:101E1000804507F180474FEA8A0ACCF8445007F51D
:101E20009C37DCF8445005F480450395039D09FA7E
:101E30000AF5D7F808B02BEA0509344DA84224D09A
:101E400005F58065A84222D005F58065A84220D01E
:101E500005F58065A8421ED005F58065A8421CD016
:101E600040451CD005F50065A8421AD005F58065EF
:101E7000A84218D005F58065A84216D005F5806502
:101E8000A84214BF0A25092510E000250EE001250F
:101E90000CE002250AE0032508E0042506E00525FC
:101EA00004E0062502E0072500E0082505FA0AF50A
:101EB00014F4803F45EA0905BD606FEA0207356802
:101EC0000CBF3D40154314F4003FCEF80050DEF83F
:101ED00004500CBF3D40154314F4801F7560B56875
:101EE0000CBF3D401543A402CEF80850DEF80C505C
:101EF00054BF3D401543F5600133102B7FF42CAFE8
:101F000005B0BDE8F08F00BF003C0140000002407A
:101F10000038024000140240024A136843F4807300
:101F20001360704700700040194B1A6C42F08052E9
:101F300073B51A641B6C174C03F08053254601934C
:101F4000019B236843F480332360FFF7E1FE0646DC
:101F50006B68104CDA0307D4FFF7DAFE801BB0F58C
:101F60007A7FF5D9032011E0236843F4003323601E
:101F7000FFF7CEFE054663689B0306D4FFF7C8FE55
:101F8000401BB0F57A7FF6D9ECE7002002B070BDB7
:101F9000003802400070004003682DE9F341DD077E
:101FA000044603D42368980770D4C5E0A44B9A680C
:101FB00002F00C02042A07D09A6802F00C02082AE8
:101FC0000BD15B68590208D59D4B1B689A03E9D574
:101FD0006368002BE6D10120B6E1994D2B682E46AF
:101FE00023F480332B602B6823F480232B602B6831
:101FF00023F480332B60FFF78BFE07463368904D48
:102000009B0307D5FFF784FEC01BB0F5FA7FF5D917
:10201000032099E12B6823F480332B606368B3F5C8
:10202000803F03D12B6823F4802305E0B3F5A02F74
:1020300008D12B6843F480232B602B6843F4803352
:102040002B6008E02A6822F480222A602A6822F4A1
:1020500080322A606BB1FFF75BFE794D06462B6834
:1020600098039FD4FFF754FE801BB0F5FA7FF6D992
:10207000CEE7FFF74DFE06462B68990392D5FFF792
:1020800047FE801BB0F5FA7FF6D9C1E76C4B9A6822
:1020900012F00C0F07D09A6802F00C02082A18D12F
:1020A0005B685A0215D4664A13689B0702D5E36839
:1020B000012B90D11168F82393FAA3F3B3FA83F3B9
:1020C0002069DBB221F0F80100FA03F30B4313603F
:1020D00032E0E3685A4DFBB12B6843F001032B60FB
:1020E000FFF716FE06462B6855489F0705D4FFF7F5
:1020F0000FFE801B6428F6D98AE70268F82393FA5A
:10210000A3F3B3FA83F32169DBB222F0F80201FAF8
:1021100003F3134303600FE02B6823F001032B60EC
:10212000FFF7F6FD06462B68990705D5FFF7F0FD8A
:10213000801B6428F7D96BE723681A0703D4236848
:102140005B0767D522E063693D4D7BB16B6F43F060
:1021500001036B67FFF7DCFD06466B6F9F07EED44C
:10216000FFF7D6FD801B6428F7D951E76B6F23F08A
:1021700001036B67FFF7CCFD06466B6F9807DED552
:10218000FFF7C6FD801B6428F7D941E72C4B2D4D86
:102190001A6C42F080521A641B6C03F08053019356
:1021A000019B2B6843F480732B60FFF7B1FD06465B
:1021B0002B68D90531D5224D41F288382B6F2E4638
:1021C00023F001032B672B6F23F004032B672B6F86
:1021D00023F001032B67FFF79BFD0746336F184D74
:1021E0009A0720D42B6F23F001032B67A368012BE0
:1021F0001FD12B6F23F004032B672B6F43F00103D8
:102200002B67FFF785FD0E4D064641F288372B6F91
:102210009B0723D5A269AABB7CE0FFF779FD801B51
:102220006428C5D9F4E6FFF773FDC01B4045D5D936
:10223000EEE6052B08D12B6F43F00403DCE700BF6B
:1022400000380240007000402A6F22F004022A6722
:102250002A6F22F001022A6733B1D2E7FFF758FD57
:10226000801BB842D3D9D3E6FFF752FD41F288373D
:1022700006462B6F9807CDD5FFF74AFD801BB84265
:10228000F7D9C5E6324DAB6803F00C03082B3FF4D9
:10229000A2AE2B68022A23F080732B6048D1FFF78F
:1022A00037FD07462B682A4E990135D447F6C07290
:1022B00092FAA2F2B2FA82F24FF4403090FAA0F011
:1022C000B0FA80F04FF0706191FAA1F1B1FA81F1AA
:1022D000256AD2B2E369C9B22B43656A43F0005361
:1022E00005FA02F243EA0205A36A5B085A1EC3B26A
:1022F00002FA03F3E26A2B4302FA01F10B43736023
:10230000336843F080733360FFF702FD044633689F
:102310009A0107D5002017E0FFF7FAFCC01B6428DC
:10232000C0D975E6FFF7F4FC001B6428EFD96FE60F
:10233000FFF7EEFC04462B689B01EBD5FFF7E8FCAA
:10234000001B6428F7D963E602B0BDE8F08100BF46
:10235000003802406C4A136803F00F038B422DE9EA
:10236000F04104460D4666D2136823F00F030B4379
:102370001360136803F00F03994202D00120BDE8F7
:10238000F08101688F0706D56048836823F0F0026A
:10239000A36813438360CE070BD421684D0740F137
:1023A000A3805A48836823F4E052E36813438360B0
:1023B0009AE06268554B012A196802D111F4003F76
:1023C00006E0022A02D111F0007F01E011F0020FB5
:1023D000D4D0996841F288374C4E21F003010A436A
:1023E0009A60FFF795FC63680546012B0CD1B36832
:1023F00003F00C03042BD0D0FFF78AFC401BB8423B
:10240000F5D90320BDE8F081022B0FD1B36803F0AA
:102410000C03082BC1D0FFF77BFC401BB842F5D959
:10242000EFE7FFF775FC401BB842EAD8B36813F03A
:102430000C0FF6D1B1E70168880706D533488368E9
:1024400023F0F002A36813438360CA070BD42E4A1B
:10245000136823F00F032B431360136803F00F037B
:102460009D428BD199E76268284B012A196802D1F5
:1024700011F4003F06E0022A02D111F0007F01E0D2
:1024800011F0020F3FF47AAF996841F288381F4F7C
:1024900021F003010A439A60FFF73AFC636806469D
:1024A000012B0AD1BB6803F00C03042BCFD0FFF73C
:1024B0002FFC801B4045F5D9A3E7022B0FD1BB6849
:1024C00003F00C03082BC2D0FFF722FC801B404511
:1024D000F5D996E7FFF71CFC801B404591D8BB68F7
:1024E00013F00C0FF6D1B2E70B0707D5074A2169A5
:1024F000936823F4604343EAC10393600F2000F024
:1025000065FD0020BDE8F081003C0240003802403B
:102510001F498B6803F00C03042B34D0082B34D1F3
:10252000486847F6C0724B6800F03F0013F4800F14
:102530004B6892FAA2F2B2FA82F247F6C071D2B2B6
:1025400001EA030115BF21FA02F3D140114A124AF0
:1025500014BFB2FBF0F0B2FBF0F00D4A0CBF00FB71
:1025600001F343434FF44031506891FAA1F1B1FABD
:1025700081F100F44032C8B222FA00F0013040008C
:10258000B3FBF0F07047034870470348704700BF43
:102590000038024040787D010024F40008B5FFF7C0
:1025A000B7FF094B9A68F02393FAA3F3B3FA83F3C6
:1025B00002F0F002DBB222FA03F3044AD35CD84003
:1025C000034B186008BD00BF0038024048B5000842
:1025D000D001002008B5FFF7E1FF084B9A684FF4DF
:1025E000E05393FAA3F3B3FA83F302F4E052DBB2BD
:1025F00022FA03F3024AD35CD84008BD00380240F7
:1026000048B5000808B5FFF7C9FF084B9A684FF4B2
:10261000604393FAA3F3B3FA83F302F46042DBB2AC
:1026200022FA03F3024AD35CD84008BD00380240C6
:1026300048B500080F2303600B4B9A6802F00302B1
:1026400042609A6802F0F00282609A6802F4E052F6
:10265000C2609B68DB0803F4E0530361034B1B6813
:1026600003F00F030B60704700380240003C02404B
:102670007047026838B5D368044623F0A003D360DE
:10268000FFF746FB05462368DB689B0607D4FFF788
:102690003FFB401BB0F57A7FF5D9032038BD002001
:1026A00038BD38B503680446DA68520601D5002003
:1026B00038BD4FF0FF32DA60FFF72AFB054623688A
:1026C000DB685B06F3D4FFF723FB401BB0F57A7F92
:1026D000F5D9032038BD10B5044600283DD0437F0E
:1026E00003F0FF0213B90277FFF7C2FF0223CA22E9
:1026F0002046637723685A6253225A62FFF7D1FF5C
:10270000236820B1FF225A620423637725E09A6888
:1027100022F4E00222F040029A6062689968114354
:102720002269114362690A43A1689A60E2681A61EA
:102730001A6942EA01421A61DA6822F08002DA601C
:10274000DA6C22F00802DA64A269D96C0A43DA640E
:10275000FF225A620123637710BD012010BD0023C0
:10276000092803D90A380133C0B2F9E740EA031057
:10277000C0B27047F8B5037F06460F460225012B0D
:1027800064D00123457703770368BD7808789B6898
:102790004978AAB913F0400308BF3B72FFF7DFFF87
:1027A00004460846FFF7DBFF02462846FFF7D7FF3F
:1027B0003B7A40EA034040EA044040EA02240AE04F
:1027C000090213F0400341EA004408BF3B72387A23
:1027D000254345EA00443368CA2230465A625322F0
:1027E0005A62FFF75EFF3368054630B1FF225A6236
:1027F00004237377002333771FE004F07F3020F049
:10280000FE4018609A6822F480229A60FA689968FB
:1028100011433A690A439A60DA6822F08002DA606A
:102820009B689B060BD43046FFF723FF38B1336813
:10283000FF225A62042335777377012506E0336857
:10284000FF225A6201237377002333772846F8BDAD
:10285000F8B5037F06460225012B57D001234577A3
:1028600003774B78C8788D780F78002A47D1DA063D
:1028700003D523F010020A324A70FFF770FF0446B6
:102880004878FFF76CFF02462846FFF768FF40EAEA
:10289000473040EA044040EA02243368CA22304606
:1028A0005A6253225A62FFF7FCFE3368054630B184
:1028B000FF225A62042373770023337715E024F054
:1028C0007F4020F0C0005860DA6822F08002DA60B1
:1028D0009B689B060BD43046FFF7CBFE38B13368BC
:1028E000FF225A6204233577737701250EE033689F
:1028F000FF225A62012373770023337706E01B021D
:1029000043EA0040284340EA4734C6E72846F8BD7A
:1029100000F00F03000900EB800003EB4000C0B2A1
:102920007047036870B5986A1D68486005F07F338A
:1029300005F07F0523F0FE438D701E0CC3F30624C3
:1029400006F03F0006F040064C7008700E7252B957
:10295000FFF7DEFF08702046FFF7DAFF48702846D1
:10296000FFF7D6FF8870002070BD38B503685C683B
:1029700024F07F4304F03F0423F0C0038C70180C54
:10298000C3F30425C3F34233C8704D700B7052B9C2
:10299000FFF7BEFFC8702846FFF7BAFF4870204611
:1029A000FFF7B6FF8870002038BD70472E4A0368D5
:1029B000904212D0B0F1804F0FD0A2F57C429042ED
:1029C0000BD002F58062904207D002F580629042FF
:1029D00003D002F57842904218D14A6823F0700380
:1029E0001343214A904237D0B0F1804F34D01F4A70
:1029F000904231D002F5806290422DD002F5806283
:102A0000904229D002F57842904225D0184A90424F
:102A100022D002F5806290421ED002F58062904280
:102A20001AD0A2F59832904216D002F580629042F8
:102A300012D002F5806290420ED003608B68C362B0
:102A40000B688362084B98420BD003F58063984271
:102A500007D001234361704723F44073CA681343CE
:102A6000EBE70B690363F4E700000140000400405A
:102A70000040014010B50446A0B190F8393003F091
:102A8000FF021BB980F83820FFF78FFF0223206870
:102A9000211D84F83930FFF789FF0123002084F8D5
:102AA000393010BD012010BD01238A408B4010B584
:102AB000046A24EA03030362036A42EA030101622F
:102AC00010BD000010B5044601220068FFF7ECFFBE
:102AD0002368084A934203D002F58062934203D1EF
:102AE0005A6C42F400425A641A68002042F0010213
:102AF0001A6010BD00000140FFF7E4BF70472DE9E8
:102B0000F041904604460E461D46FFF701F9074680
:102B1000B8F1000F36D12268D36936EA03030ED02C
:102B2000691CF9D07DB1FFF7F3F8C01B8542F2D8DC
:102B300009E06B1C06D1D36936EA0303F9D0002003
:102B4000BDE8F081CDB9236803201A6822F0800225
:102B50001A601A6822F020021A601A6822F4807241
:102B60001A609A6822F001029A60012384F86930A1
:102B7000002384F86830BDE8F081FFF7C9F8C01B76
:102B80008542E0D92268D6E738B504460568C369AE
:102B90002269A1682868114362690A4342EA030175
:102BA000814A0240A0690A432A606A6822F44051BF
:102BB000E2680A43216A6A600143AA6822F430622B
:102BC0000A43AA60794A954207D102F594327849BE
:102BD000D2F8902002F0030209E0764A95420BD128
:102BE00002F5FA327449D2F8902002F00C02B3F5E3
:102BF000004F8A5C73D0AFE0704A95420DD102F568
:102C0000F832D2F8902002F03002102A00F08280D0
:102C10005DD9202A78D0302A0EE0694A95420DD13C
:102C200002F5F632D2F8902002F0C002402A71D0AC
:102C30004DD9802A68D0C02A76D080E0614A95427A
:102C40000FD102F5F432D2F8902002F44072B2F5BE
:102C5000807F5FD03BD9B2F5007F55D0B2F5407F81
:102C6000EAE7594A954212D102F59232D2F8902001
:102C700002F44062B2F5806F4CD002D8002A3DD0F9
:102C80005DE0B2F5006F3FD0B2F5406FD4E74F4A38
:102C900095420FD102F5E032D2F8902002F4405272
:102CA000B2F5805F36D012D9B2F5005F2CD0B2F504
:102CB000405FC1E7464A954241D102F5DE32D2F883
:102CC000902002F44042B2F5804F23D001D87AB16F
:102CD00035E0B2F5004F17D0B2F5404FACE7082A07
:102CE00030D8DFE802F0080E142F1A2F2F2F2400FF
:102CF000B3F5004F39D1FFF76DFC10E0B3F5004F8D
:102D000036D1FFF77FFC0AE0B3F5004F33D160689E
:102D1000304B0FE0B3F5004F33D1FFF7F9FB400024
:102D20006368B0FBF3F307E0B3F5004F31D160689F
:102D30004FF48033B3FBF0F39BB2002004E0B3F513
:102D4000004F2ED101200023C3F3420123F00F03D3
:102D500022680B43D36038BD082A22D8DFE802F08E
:102D600005080B21112121211900FFF733FC0AE08E
:102D7000FFF748FC07E06268174BB3FBF2F39BB226
:102D80000CE0FFF7C5FB6368B0FBF3F080B2E860CE
:102D900005E062684FF40043B3FBF2F3EB60002000
:102DA00038BD012038BD00BFF369FFEF00100140BE
:102DB00058B50008004400405CB5000800480040D9
:102DC000004C0040005000400014014000780040DA
:102DD000007C00400048E8010024F400436ADA0760
:102DE00010B506D50468626822F40031826A0A438D
:102DF00062609C0706D50468626822F48031C26A6A
:102E00000A436260590706D50468626822F480218B
:102E1000026B0A4362601A0706D50468626822F4EE
:102E20000041426B0A436260DC0606D50468A26872
:102E300022F48051826B0A43A260990606D5046889
:102E4000A26822F40051C26B0A43A2605A0610D550
:102E50000168046C4A68B4F5801F22F4801242EACB
:102E600004024A6005D14A6822F4C004426C22433D
:102E70004A601B0606D501684B6823F40022836C68
:102E800013434B6010BD0022036810B5C2660446B0
:102E90001B68190704D423681B685B0714D509E075
:102EA0006FF07E434FF40011FFF729FE0028F2D0A7
:102EB000032010BD6FF07E4300224FF480012046B6
:102EC000FFF71DFE0028F3D10123002084F86930AC
:102ED00084F8680010BD10B5044660B390F86930FE
:102EE00003F0FF021BB980F86820FFF707FE226895
:102EF0000223204684F86930136823F0010313602D
:102F0000FFF742FE012816D0636A13B12046FFF78F
:102F100065FF236820465A6822F490425A609A68F6
:102F200022F02A029A601A6842F00102BDE81040BD
:102F30001A60FFF7A8BF012010BD000030B50C4C8F
:102F4000A268A4681346B4F1006F0CD1131F094C9A
:102F5000094A53F8045F42F8045FA242F9D14FF0E6
:102F60000053034A9360103043F8201030BD00BF77
:102F700000ED00E0C4010020FCFFFF1F38B5114B3D
:102F80001A681C46D16811F0020F04D06FF00203DA
:102F9000136100F007FE2368DA68520711D56FF05D
:102FA0000402094D1A615C6A2B68E31AB3F57A7F53
:102FB00007D3FEF7A5FE034B04F57A722C601B685D
:102FC0009A6338BD04300020F82C002030B589B059
:102FD000264C01A903A8FFF72DFBFFF7FBFA244BB2
:102FE00001901A6C42F008021A641A6C02F008028E
:102FF0000292029A1A6A42F008021A621A6A22F0CF
:1030000008021A62A3F50B33069A23604FF0FF33D0
:10301000E360184B02B140000025B0FBF3F001382B
:103020002561A560606011486561FFF723FD1249C5
:103030003220FFF783FF4FF48022104B29460B48C4
:103040005A60FFF759FD04210848FFF755FD236832
:103050000B4928465A6A0A6002F57A729A63DA685E
:1030600042F00402DA6009B030BD00BF0430002035
:103070000038024040420F007D2F000800E100E0D0
:10308000F82C0020BFF34F8FBFF36F8F064B002249
:10309000C3F850225A6942F400325A61BFF34F8F8D
:1030A000BFF36F8F704700BF00ED00E0174A0023A9
:1030B000F0B5C2F88430D2F8803003F00704C3F3CF
:1030C0004E31C3F3C9030434B3FA83F505F01F0589
:1030D000BFF34F8F01FA04FE184600FA05F610F10F
:1030E000FF300A4F46EA0E06C2F86062F5D211F1CF
:1030F000FF31EFD2BFF34F8F7B6943F480337B61A5
:10310000BFF34F8FBFF36F8FF0BD00BF00ED00E046
:10311000174A1849936803F00C03042B03D0082BBB
:1031200003D0154B19E0154B17E05068536810F4A5
:10313000800F506803F03F0318BF104AC0F3881097
:1031400008BF0D4AB2FBF3F3094A43435268C2F386
:10315000014201325200B3FBF2F30B60044B084A08
:103160009B68C3F30313D25C0B68D3400B607047BA
:1031700000380240D00100200024F40040787D0196
:1031800069B500081F4B1A6C42F0805210B51A64E2
:1031900092B01B6C03F080530093009B01230693B5
:1031A00010B94FF4803301E04FF4A02307934FF49C
:1031B0008003022406A80D9319230C940E934FF458
:1031C000D87310940F9309231193FEF7E5FE08B10D
:1031D000002014E0FEF7A8FE0028F9D10F23039089
:1031E000072101A801934FF4A053029404934FF4D4
:1031F00080530593FFF7AEF8B0FA80F0400912B0A3
:1032000010BD00BF0038024070B592B00024FFF737
:1032100039FF0225FFF74AFF174B012606A81A6C53
:1032200042F080521A641B6C099603F08053079495
:103230000C950093009B03230D9406931023109587
:103240000A930E934FF4D8730F9309231193FEF74B
:10325000A3FEFEF769FE0F23072101A801934FF497
:10326000A053029504934FF4805303940593FFF702
:1032700071F8304612B070BD0038024008B5002029
:10328000FFF780FF18B9FFF7BFFF00B9FEE708BDE1
:10329000194A0021D2F8883010B543F47003174C56
:1032A000C2F88830236843F001032360A1602368DB
:1032B00023F0847323F480332360114B636023680D
:1032C00023F4802323604FF00063E16093600D4B93
:1032D0000D4A1A60FEF702FDFFF7D4FEFFF7E6FE87
:1032E000FFF7CCFF236A43F008032362236A23F02D
:1032F0000803236210BD00BF00ED00E0003802406B
:1033000010300024D00100200024F40010B5044641
:10331000002100F0DFF8012004F00F04A04010BDF0
:1033200070B54B1C04460E4621800DD0C1F303102E
:1033300000F01EF805463046FFF7E8FF05F11003E0
:1033400018356060A360E56070BDB0F9000000F062
:10335000E5B80129B0F9000018BF002100F0BAB8A3
:1033600008B5FFF7D5FEBDE80840FEF7B7BC000082
:1033700000B58DB00A2800F28C80DFE800F006125C
:103380001E2A36424E5A66727E00454B45481A6BDD
:1033900042F001021A631B6B03F001030193019BCE
:1033A0007BE03F4B40481A6B42F002021A631B6BF2
:1033B00003F002030293029B6FE0394B3B481A6B08
:1033C00042F004021A631B6B03F004030393039B94
:1033D00063E0334B36481A6B42F008021A631B6BEA
:1033E00003F008030493049B57E02D4B31481A6BFC
:1033F00042F010021A631B6B03F010030593059B48
:103400004BE0274B2C481A6B42F020021A631B6BCF
:1034100003F020030693069B3FE0214B27481A6BDD
:1034200042F040021A631B6B03F040030793079BB3
:1034300033E01B4B22481A6B42F080021A631B6B6D
:1034400003F080030893089B27E0154B1D481A6B77
:1034500042F480721A631B6B03F480730993099B17
:103460001BE00F4B18481A6B42F400721A631B6B77
:1034700003F400730A930A9B0FE0094B13481A6B7D
:1034800042F480621A631B6B03F480630B930B9B03
:1034900003E00F4800F0BAFA00200DB05DF804FB1D
:1034A00000380240000002400004024000080240D0
:1034B000000C0240001002400014024000180240BC
:1034C000001C02400020024000240240002802406C
:1034D00079B5000830B5054687B0C0F303100C4637
:1034E00005F00F05FFF744FF012304F00F0201A9C7
:1034F00003FA05F5084B53F8223001950293C4F303
:103500000213C4F3C3140393032305940493FEF737
:1035100017FC07B030BD00BF9CB5000838B500F0FF
:103520000F05C0F303100C46FFF722FF69000323C9
:10353000C268032C03FA01F328BF002422EA030324
:103540008C40C360C3681C43C46038BD344BF0B5C5
:103550001E688FB0002E60D10127324C324D1F60A3
:10356000324B2B60236C43F080532364236C03F0B5
:1035700080530193019BFEF7CFFC236F02A843F415
:1035800080332367236F23F4803323670423089653
:1035900002930497FEF700FD70B9A36823F4F813B3
:1035A000A360A36823F4F813A360236F43F480732C
:1035B00023674FF400431AE00C2302A808960293F5
:1035C00004960797FEF7E8FC10B1194800F01EFAC0
:1035D000144B9A6822F4F8129A609A6822F4F8124E
:1035E0009A601A6F42F400721A674FF4FA430D4959
:1035F000DB090D480A6F013B42F400420A670022D2
:103600007F21EB606A60A9602A616A61AA61FFF7A5
:1036100062F810B1074800F0F9F90FB0F0BD00BF33
:103620001C2D002000380240FC2C00200028004007
:10363000D0B50008FCB50008014B1868704700BF02
:103640001C2D002010B5154C90B0154B002202A97E
:1036500020462360FFF765F9002201A92046FFF705
:1036600084F99DF8043010A80D939DF80530013BB6
:103670000B939DF806300A939DF8073064330C9342
:103680009DF8083009939DF8093008939DF80A3099
:1036900040F8243D01F0D6FB10B010BDFC2C0020FA
:1036A0000028004030B589B0184D194A002408ABF5
:1036B0002A6043F81C0D184601F00EF98369224672
:1036C00002A98DF80830036901338DF80930C36809
:1036D0008DF80A304369643B8DF80B3083688DF8B0
:1036E0000C3043688DF80D300368284606948DF839
:1036F0000E30402307948DF81430FFF7A9F82246C6
:1037000003A92846FFF736F809B030BDFC2C00208D
:103710000028004008B50268114B1A6082685A60A0
:10372000C2689A600269DA6042691A6100229A618D
:10373000B0F91A20013201D1082205E0B0F91820B1
:1037400001320CBF04220C2205485A61FFF7C3FB6B
:1037500020B10448BDE8084000F058B908BD00BFDA
:103760004030002022B60008F0B50E46154689B05C
:1037700004465C49304600F0BBF907465A492846E2
:1037800000F0B6F901463846584F00F093F9584B0F
:103790002060984261D017D8A3F50063984244D0C6
:1037A00003F5806398424CD0A3F5006398426CD136
:1037B000504B1A6C42F400321A641B6C03F4003351
:1037C0000193019B01235FE04B4B984251D00FD8EE
:1037D000A3F58063984258D1464B1A6C42F0804260
:1037E0001A641B6C03F080430693069B06234BE090
:1037F000B8420ED0414B984247D13E4B5A6C42F0F2
:1038000020025A645B6C03F020030593059B05239B
:103810003AE0384B5A6C42F010025A645B6C03F089
:1038200010030093009B00232EE0324B1A6C42F4ED
:1038300080221A641B6C03F480230293029B0223F0
:1038400022E02C4B1A6C42F400221A641B6C03F425
:1038500000230393039B032316E0264B1A6C42F4C8
:1038600080121A641B6C03F480130493049B0423DA
:103870000AE0204B1A6C42F000421A641B6C03F001
:1038800000430793079B072363601649304600F007
:10389000F3F81549284600F0EFF8721C03D0012117
:1038A0003046FFF73BFE6B1C03D001212846FFF793
:1038B00035FE4FF41653268365832046A36000230C
:1038C000E36023616361FFF725FF2368BB4207D1F3
:1038D00001220B4B21460B481A601C2201F0A8F96B
:1038E00009B0F0BD78B600083CB6000800100140F1
:1038F0000050004000380240007C004000140140AD
:10390000442D0020B03000208160FFF703BF00008D
:10391000034B19604168034B43F82120704700BFF7
:10392000402D0020202D00200368034AD869136031
:10393000C0F34010704700BF4030002010B5014672
:1039400004680846FFF7F0FF0028FAD0606AC0F369
:10395000080010BD0368034AD8691360C0F3C010A3
:10396000704700BF4030002038B504460568204647
:10397000FFF7F0FF0028FAD0C1F30801A96238BDB3
:10398000054B186830B901221A60044A044B1A60CA
:10399000FFF71CBB704700BF842D0020000C0040C7
:1039A000482D002008B5044B1B680BB9FFF7E8FF52
:1039B000024B586A08BD00BF842D0020000C004057
:1039C000034B1B685863DA6842F00202DA60704702
:1039D000482D0020034B1A68D36823F00203D360FC
:1039E000704700BF482D0020024B6FF002021B6899
:1039F0001A617047482D002008B572B6962000F075
:103A0000E2F8962000F0DFF8F8E700000FB4064B6C
:103A100007B504AA1B6852F8041BD868019201F08C
:103A200063FD012000F05EFC4802002038B50D4621
:103A30000446C168436802B91B040B60204601219B
:103A4000FFF787FC29462046BDE83840FFF77DBCDC
:103A500070B50E4604461546FFF762FC013606D0E7
:103A60002A4620460021BDE87040FFF7DFBF70BD49
:103A70000022FFF7EDBF000010B50446013001D170
:103A800010BD0C31B1F900305A1C0BD09C42F8D15A
:103A900020468968FFF71EFD20460021BDE8104042
:103AA000FFF73CBD0248BDE81040FFF7AFBF00BFC5
:103AB000C0B60008884208B50AD0431C07D00131BF
:103AC00006D00448FFF7A2FF4FF0FF3008BD0846BC
:103AD00008BD00BFD1B60008B1F900305A1C05D0AE
:103AE000834201D1486870470C31F5E718467047AA
:103AF000421C10B5044607D0FFF7EEFF431C0446F6
:103B000002D10248FFF782FF204610BDE2B600084E
:103B1000064B1B6810B5044603B19847044B1B685D
:103B20001BB12046BDE81040184710BDD40100204D
:103B3000E0010020074B1B6810B504461BB19847F5
:103B400008B9FFF7E5FF044B186800B1804704B1DE
:103B5000206010BDD8010020DC010020036870B592
:103B6000DB680446984763685A6823681AB99B68FB
:103B7000BDE87040184715685B689847281A636865
:103B800000285A6807DC916859601B68002BEAD04E
:103B900050689847E7E7236810681B69BDE87040E4
:103BA000184700000148FFF7D9BF00BF34B700082D
:103BB00038B50446FFF7F6FE0546FFF7F3FE401B57
:103BC000A042FAD338BD4FF47A735843FFF7F0BFE1
:103BD000084C08B5E3684FF47A7062681A60FDF724
:103BE000CFFA6368E2684FF47A701B041360FDF744
:103BF000C7FAEFE71803002010B54FF4E1318CB09D
:103C00001E4800F07DF91E4C00234FF0FF32206863
:103C10001946FDF7FFFE012822D10020FFF78AFF99
:103C20000CAB43F8240D184600F056FE154A034627
:103C3000202104A802F006FE0E2304AA12490093D4
:103C40001248134B00F0CCF9124B13491A680F4875
:103C500000F0C6F9002320681A461946FDF7A6FDB4
:103C60000E4B4FF4FA720E49019305230D48009351
:103C70000023FDF749F8FDF71DF9FEE728030020B2
:103C8000140300203CB700085AB700087C0300204A
:103C900051B70008D00100206EB7000810030020C3
:103CA0009EB70008D13B0008094B036083686BB1E5
:103CB000084A1368984202D14368136070475A68F3
:103CC000904201D01346FAE742685A60704700BF3D
:103CD000B0B70008902D002010B50446FFF7E4FFB0
:103CE000204600F0E9FA204610BD0000054B816037
:103CF000036000230273436019B1034B1A68186014
:103D000042607047B0B70008902D00200A4B70B594
:103D100006460D461C686CB1A06848B12A4631467B
:103D200003F04CFA20B9A06803F040FA854201D0B4
:103D30006468F0E7204670BD902D0020007B70473E
:103D40000368012200211B6970B505469847431C92
:103D500004460ED02B680222002128461B69984792
:103D60002B68064600221B692146284698473046A4
:103D700070BD70BD074B002210B5044640F8043BEF
:103D8000FFF7B4FF044B204603F1080234332260EE
:103D9000636010BDD4B80008B8B70008074B03F142
:103DA0000802343310B50446026040F8043FFFF7C0
:103DB0007BFF204600F036F9204610BDB8B700085A
:103DC000002310B50360044643600A782F2A13D1FC
:103DD0004A788AB1481C1946206023681A782F2A2D
:103DE00002D10133236004E01AB1013301312360B1
:103DF000F3E7FFF78BFF6060204610BD0068704757
:103E0000406808B520B1FFF799FF431E584258415A
:103E100008BD10B50446FFF7F3FF00B1606810BDA0
:103E2000406808B520B1FFF789FFB0FA80F040097B
:103E300008BD10B50446FFF7F3FF10B1606800B18C
:103E4000043810BD4068003018BF0120704700F0F2
:103E50005FB8A0F15400FFF7FABF00F05CB8A0F122
:103E60005400FFF7FABF000038B504461D4600F0C5
:103E700021F8294604F1540000F07EF8054B204655
:103E800003F10802226003F1200254336265A36546
:103E900038BD00BFF4B700081823594343185A6BC4
:103EA0001B6A0AB92BB118471BB1014418462431CB
:103EB00010477047F8B505460F4B04460E4645F8C7
:103EC000043B174600211C22284600F0D7FE0023A1
:103ED0003A463146236228466363A363E3644FF4A2
:103EE00016532365FFF740FC284622460349FFF797
:103EF0000FFD2046F8BD00BF58B80008993E0008E5
:103F000038B504460D460430FFF7FEFC256538BD84
:103F10000430FFF713BD10B50C460430FFF724FD45
:103F2000204610BDF8B507460D468E180C46B44223
:103F300008D03B68384614F8011B5B6A984701308B
:103F4000F5D12646701BF8BDF8B506460D468F180C
:103F50000C46BC4208D0336830469B6A9847431CE5
:103F600002D004F8010BF4E7601BF8BD0020704795
:103F700000207047002070471FB50446FFF7FAFE87
:103F80000B4B01A80B4903F108023C33636000238B
:103F900022602246636102F057FB074901A800F046
:103FA000C1FB606100F080F9204604B010BD00BF85
:103FB00060B80008A4B80008A8B80008074B03F1CF
:103FC00008023C3310B5044602604360406900F0CB
:103FD000EFF92046FFF7E2FE204610BD60B800086A
:103FE0000EB433B505AB0446406953F8045B019346
:103FF00000F098FA019A2946606901F075FA02B05A
:10400000BDE8304003B07047044B1B6823B917224A
:1040100009210348FFF7A8BB704700BF442D0020CB
:10402000B0300020074B084A03600023194610B542
:1040300052F82340A04208BF42F823100133402B1E
:10404000F6D110BDD4B80008942D0020F7B50E4667
:104050002C49054602F08BFB044610B9FFF7D4FF4C
:104060004CE02949284602F082FB18B9FFF7CCFF43
:10407000012443E02549284602F079FB18B9FFF7EF
:10408000C3FF02243AE00024214B53F8242072B1EC
:104090000134402CF9D107E029466846FFF790FE2D
:1040A0006846FFF7CFFE60B94FF0FF3426E02B786B
:1040B0003A2BF1D16A461749284602F0E9FA0098EE
:1040C00016E06846FFF7ACFE18B16846FFF7B1FE90
:1040D0000EE06846FFF79DFE05460028E4D0036821
:1040E00068469F68FFF78AFE324601462846B84771
:1040F0000028D9D0064B43F824000334204603B0EF
:10410000F0BD00BFABB80008C4B80008B2B80008E2
:10411000942D0020A4B8000802284FF0000309DD08
:10412000C21E074951F8220041F8223020B103682D
:104130005B681847184670474FF0FF30704700BF64
:10414000942D0020022870B50C4615460FDC0E4B4E
:104150001B680BB9FFF758FF6619B44205D014F875
:10416000011B0A48FFF700FCF7E7284670BD03383B
:10417000074B53F8200020B10368BDE870401B686E
:1041800018474FF0FF3070BD442D0020B0300020A4
:10419000942D0020022810B50C460ADC0B4B1B683E
:1041A0000BB9FFF731FF0A48FFF7C8FB2070012069
:1041B00010BD0338074B53F8200020B10368BDE859
:1041C00010409B6818474FF0FF3010BD442D002071
:1041D000B0300020942D0020022807DD0338064B64
:1041E00053F8200020B10368DB68184701207047AE
:1041F0004FF0FF30704700BF942D0020022807DDEC
:104200000338064B53F8200020B103681B69184798
:10421000002070474FF0FF30704700BF942D002002
:10422000022808B504D84FF4005300204B6008BDA5
:1042300000F052F8092303604FF0FF3008BD08B5C5
:10424000012000F04FF8704708B5FFF789F8FFF735
:10425000FAFFBDE80840FFF7CFBC0000074A13682B
:104260001844EFF30881884223BF0C22044B4FF01F
:10427000FF3010602CBF1A6018467047E401002020
:10428000CC300020074C054608B52368986800F03C
:1042900049F92368D86800F045F90DB1FFF7ACFB88
:1042A000FEE700BF48020020002102F038B90B46AB
:1042B0000146184600F002B800F05CBC10B5054C91
:1042C00013462CB10A4601460220AFF3008010BD10
:1042D000204610BD00000000014B1868704700BF69
:1042E0004802002008B5074B044613B10021AFF384
:1042F0000080054B1868836A03B198472046FFF792
:10430000C1FF00BF000000005CB9000870B50546A1
:104310000C4609B9002070BD18B183690BB900F0D3
:1043200053F9204B9C4201D16C6808E01E4B9C4223
:1043300001D1AC6803E01D4B9C4208BFEC68B4F9A6
:104340000C30002BE6D02146284600F039F8236BCC
:10435000064633B1216A284698470028B8BF4FF077
:10436000FF36A3891B0603D52169284600F0DCFE31
:10437000616B41B104F14403994202D0284600F038
:10438000D3FE00236363A16C21B1284600F0CCFE6C
:104390000023A36400F084F90023A38100F081F9D5
:1043A000304670BDF8B8000818B9000838B90008E0
:1043B000024B01461868FFF7A9BF00BF4802002062
:1043C0008A892DE9F041054610070C4659D44B68FF
:1043D000002B02DC0B6C002B17DDE66AAEB102F499
:1043E0008052002392B22F682B600AB1606D15E0F5
:1043F000216A01232846B047411C0FD12B686BB1BD
:104400001D2B01D0162B03D12F600020BDE8F081B9
:10441000A38943F04003A381BDE8F081A3895A0733
:1044200005D56368C01A636B0BB1236CC01A0023F7
:104430000246E66A216A2846B047431CA38906D192
:1044400029681D293AD8214ACA40D60736D5002204
:104450006260D9042269226004D5421C01D12B6814
:1044600003B96065616B2F600029CED004F144036D
:10447000994202D0284600F057FE00206063BDE854
:10448000F0810F69002FC0D093070E6808BF4B69F9
:104490000F6018BF0023C7EB06088B6002E00744DB
:1044A000C0EB0808B8F1000FAFDD43463A46216A79
:1044B000A66A2846B0470028F1DCA38943F04003F0
:1044C000A3814FF0FF30BDE8F08100BF0100402024
:1044D00038B50B6905460C46DBB118B183690BB9D9
:1044E00000F072F80C4B9C4201D16C6808E00B4B59
:1044F0009C4201D1AC6803E0094B9C4208BFEC68C8
:10450000B4F90C302BB121462846BDE83840FFF7FE
:1045100057BF002038BD00BFF8B8000818B9000820
:1045200038B90008014620B9044B0549186800F065
:104530008FB9044B1868FFF7CBBF00BF5CB9000808
:10454000D144000848020020014900F081B900BFB1
:10455000D1440008002310B5044603604360836023
:1045600081814366C28103614361836119460822E8
:104570005C3000F083FB054B6362054BA362054B87
:10458000E362054B2462236310BD00BFE5660008AB
:104590000B670008436700086767000870B5682369
:1045A0004D1E5D430E4605F1740100F003FE044606
:1045B00040B1002180E842000C30A06005F16802A3
:1045C00000F05CFB204670BD836910B5044633BB28
:1045D0008364C3640365124B124A1B68826298426B
:1045E00004BF0123836100F01FF86060204600F0E3
:1045F0001BF8A060204600F017F80022E0600421BC
:104600006068FFF7A7FF01220921A068FFF7A2FF5A
:1046100002221221E068FFF79DFF0123A36110BD74
:104620005CB9000849450008F8B51C4B1E68B36921
:10463000074613B93046FFF7C7FF4836B4687368BA
:10464000013B04D4B4F90C507DB16834F8E7336809
:104650000BB13668F2E704213846FFF79FFF306060
:104660000028F6D10C233B60F8BD4FF6FF73E381C1
:104670000123A38165662560A5606560256165618C
:10468000A5610822294604F15C0000F0F7FA656391
:10469000A563A564E5642046F8BD00BF5CB90008C9
:1046A00070477047F7B50F46114601AA054604F05A
:1046B00067FE064608B9002029E02846FFF7B4FF48
:1046C00004460028F7D04FF4DB73019A3946284698
:1046D00001F0A8FE002806DA0025FFF7E1FFA5811A
:1046E000FFF7DFFFE7E70B4B63620B4BA3620B4B5C
:1046F000E3620B4B2363F305E081A681246205D5B9
:10470000022300222146284600F014F8204603B078
:10471000F0BD00BFE56600080B67000843670008AE
:1047200067670008024B0A4601461868FFF7BABFE0
:104730004802002000F000B82DE9F8430C469046EE
:104740001E46054618B183690BB9FFF73DFF3D4B87
:104750009C4201D16C6808E03B4B9C4201D1AC68A3
:1047600003E03A4B9C4208BFEC68A38903F48473CE
:10477000B3F5847F03D121462846FFF7A9FEE76AF7
:104780000FB91D232BE0012E04D0022E2BD056B3DF
:10479000162324E021462846FFF79AFEA28902F458
:1047A000805292B20AB1606D05E0216A3346284614
:1047B000B847411C14D0A3895A0706D56368C01AAC
:1047C000636B4BB1236CC01A06E01B0704D523684A
:1047D00013B122699B1A18448044002603E02B6021
:1047E0004FF0FF392BE023691BB92146284600F022
:1047F0006BF921462846FFF76BFE81460028EFD172
:1048000033464246216A2846B8470130E8D0616BFA
:1048100041B104F14403994202D0284600F084FCDF
:104820000023636323692360A389002123F40263C7
:104830006160A381082204F15C0000F01FFA484681
:10484000BDE8F883F8B8000818B9000838B90008BE
:104850002DE9F8438046894600F14804002694B1CA
:10486000A5686768013F0CD4AB89012B07D9B5F95E
:104870000E30013303D029464046C8470643683509
:10488000F0E72468EBE73046BDE8F88370B50E4BDF
:104890000E4CE41AA41000251E46A54204D056F87A
:1048A000253098470135F8E706F034FE084C094BEF
:1048B000E41AA41000251E46A54204D056F825305F
:1048C00098470135F8E770BDD4020020D4020020DB
:1048D000DC020020D402002038B5074B1C68E36BD3
:1048E00005461BB9242000F03DF9E063E16B284642
:1048F000BDE8384000F002B8480200202DE9F04140
:104900000C46804605F0E8F821460746404605F08B
:10491000E7F8466906F26C76B307044605D16422CF
:1049200096FBF2F302FB13634BB94FF4C87596FB89
:10493000F5F305FB1365B5FA85F35B0900E0012388
:104940005F4A302505FB032503F030FC03F030FC03
:104950005C4B1B68F3B17B689E4205D13968D8F87F
:104960000030FA6941B90AE0304603F077FB0028CD
:10497000F4D14FF0FF330DE0934208DB01E09342A6
:1049800007DABA6B9342ACBF0023012302E0002395
:1049900000E001232362236A012B0CBFF96B396A03
:1049A0004FF461633C2091FBF3F603FB161361683F
:1049B00093FBF0F200FB12302368891AA268616051
:1049C0001B1A921B3B2B2360A26003DD0131616047
:1049D0003C3B04E0002B03DA013961603C33236087
:1049E00063683B2B03DD0132A2603C3B04E0002BFB
:1049F00003DA013AA2603C336360A368172B22DD1F
:104A0000E2690132E261A2690132062AC8BF0022CE
:104A1000A261E268183B0132A3602369E26055F8A5
:104A200023108A4246DD01330C2B0CBF63692361DE
:104A3000A2EB0102E26001BF013300222261636147
:104A400008BFE26136E0002B34DAE269013AE26144
:104A5000A269013A48BF0622A261E2681833013A0E
:104A6000E260A36032BB2369013B01D423611DE0F6
:104A70000B23236163695A1E12F0030F626103F274
:104A80006B7305D1642193FBF1F201FB12324AB939
:104A90004FF4C87193FBF1F201FB1233B3FA83F3C5
:104AA0005B0900E0012303F5B673E361236955F860
:104AB0002330E36003F07BFB2046BDE8F08100BFBC
:104AC000C0B90008B82F0020F0B58B899D0791B0C0
:104AD00006460C4626D4B1F90E10002909DAA3893E
:104AE00013F0800F4FF0000514BF40274FF480678C
:104AF0000DE001AA04F07CFC0028F0DB029D05F427
:104B00007045A5F500514D424D414FF4806739463F
:104B1000304600F04FFB60B9A3899A051DD443F0DD
:104B20000203A38104F1470323602361012363612E
:104B300013E00B4BB362A389206043F08003A38191
:104B4000206167614DB1B4F90E10304605F060F890
:104B500018B1A38943F00103A38111B0F0BD00BFD8
:104B600049450008024B0146186800F023BB00BF0E
:104B700048020020024B0146186800F0D5BA00BF79
:104B800048020020000000000000000000000000BB
:104B900001F0FF01102A2BDB10F0070F08D010F8EE
:104BA000013B013A8B422DD010F0070F42B3F6D1F2
:104BB000F0B441EA012141EA014122F007047FF00B
:104BC00000070023F0E80256083C85EA010586EA62
:104BD000010685FA47F5A3FA87F586FA47F6A5FA9E
:104BE00087F68EB9EED1F0BC01F0FF0102F00702AA
:104BF00032B110F8013B013A83EA010313B1F8D155
:104C00000020704701387047002D06BF3546033835
:104C1000073815F0010F07D1013015F4807F02BF6E
:104C2000013015F4C03F0130F0BC0138704700BFBF
:104C300010B5431E0A44914204D011F8014B03F809
:104C4000014FF8E710BD884210B501EB020301D80F
:104C5000421E0BE09842FBD28118D21AD34204D0F4
:104C600013F8014D01F8014DF8E710BD994204D049
:104C700011F8014B02F8014FF8E710BD024403465A
:104C8000934202D003F8011BFAE77047F7B50168B9
:104C90003B29044611D93C22684603F031FD019AB4
:104CA00063680099002A0B446360BBBF3C3203F188
:104CB000FF3322602260B8BF636061683B2911D96D
:104CC0003C22684603F01CFD019AA168009B002A63
:104CD0000B44A360BBBF3C3203F1FF3362606260F0
:104CE000B8BFA360A168172911D91822684603F03C
:104CF00007FD019AE168009B002A0B44E360BBBFFB
:104D0000183203F1FF33A260A260B8BFE3602169EB
:104D10000B2911D90C22684603F0F2FC019A616953
:104D2000009B002A0B446361BBBF0C3203F1FF33CD
:104D300022612261B8BF63616369990712D164215E
:104D400093FBF1F201FB123272B903F26C734FF470
:104D5000C87193FBF1F201FB1233002B14BF1C232B
:104D60001D2302E01C2300E01D23E268002A06DD6B
:104D7000334F4FF0000E64254FF4C87639E0304FC2
:104D80000B2664204FF4C875D4F80CE0BEF1000F78
:104D900053DC216901392161013118D16369266130
:104DA000591E8A0761610FD191FBF0F200FB1211CD
:104DB00061B903F26B7393FBF5F205FB1233002B21
:104DC00014BF1C231D2302E01C2300E01D232269C5
:104DD000012A14BF57F822201A467244E260D3E732
:104DE0008B422ADA18460132091A0C2AE160226144
:104DF00008D02269E168012AF2D057F822008142E6
:104E0000F1DC1AE06369C4F810E05A1C9107626192
:104E10000FD192FBF5F105FB112262B903F26D731C
:104E200093FBF6F206FB1233002B14BF1C231D2349
:104E3000DFE71C23DDE71D23DBE703B0F0BD00BF88
:104E400090B900082DE9F047054604F045FE81467B
:104E50002846FFF71BFF95E80C003C2101FB0323CC
:104E6000AA68EC684FF4616808FB02312B69AB4A11
:104E700052F82320013C012B14446B6911DD9E077D
:104E80000FD1642093FBF0F200FB123242B903F21F
:104E90006C764FF4C87296FBF2F002FB106202B916
:104EA000013403F51C52103244F620608242EC615A
:104EB0001F4600F22E81462B22DD462240F26D1C59
:104EC00064264FF4C87E900710D192FBF6F006FBE3
:104ED000102070B902F26C7898FBFEF00EFB108087
:104EE000002814BF60464FF4B77004E040F26D1024
:104EF00001E04FF4B770013293420444E3D144E03F
:104F000043D0452240F26D1E64264FF4C8779A4282
:104F10001ADD900710D192FBF6F006FB102070B955
:104F200002F26C7C9CFBF7F007FB10C0002814BF5A
:104F300070464FF4B77004E040F26D1001E04FF49A
:104F4000B770241A013AE2E7452BA8BF45239E0714
:104F50001F4614D1642293FBF2F302FB13738BB947
:104F600007F26C704FF4C87390FBF3F203FB12036B
:104F7000002B40F26D1308BF4FF4B77304E040F20A
:104F80006D1301E04FF4B773E41A654800FB041891
:104F900003F00CF903F00CF9624B1E68002E00F0D0
:104FA000A4802B6A6869012BA8BF01239A46D9F80F
:104FB000043000F26C7098420DD1D9F83820D9F83D
:104FC0002030D9F83C00D9F81C10D61AB045A1EB16
:104FD000000105DA07E003F041F80028EDD176E0A2
:104FE000121A904573DBD9F8002012B1884577DB9F
:104FF00001E0884507DAB045ACBF00260126BAF1CA
:10500000000F04DA64E0BAF1000F63DB01268AEADC
:10501000060ABAF1010F5BD11B1A06B95B422A6876
:10502000D5F80CA01A442A6028469844FFF72EFEB3
:10503000EB68B3EB0A034BD0012B03DC981CD8BF01
:10504000012301E04FF0FF33EA691C449B181DD592
:105050007B1E990714D1642193FBF1F201FB1233FB
:105060008BB907F26B774FF4C87297FBF2F302FB30
:105070001377002F40F26D1318BF4FF4B67324E07E
:105080004FF4B67321E040F26D131EE0BA0714D15D
:10509000642197FBF1F201FB12728AB907F26C7777
:1050A0004FF4C87197FBF1F201FB1277002F40F229
:1050B0006D1208BF4FF4B77204E040F26D1201E0C8
:1050C0004FF4B7729A42D8BF9B1AEB6100E0564684
:1050D000012E0AD1D9F83C00012608EB000708E0B0
:1050E000BAF1000F4FF0000691DAD9F8200008EB72
:1050F000000703F05CF80434072394FBF3F3C3EBDD
:10510000C303E41A48BF07342E62AC613846BDE8D9
:10511000F0874FF0FF30BDE8F08700BF60B90008AE
:1051200080510100B82F002030B500293ED051F841
:10513000042C0B1F1E49002AB8BF9B180A680C4696
:1051400012B95A600B6030BD9A420ED919685818CE
:10515000824204BF106852685A6004BF091819607F
:10516000236030BD994203D80A4651680029F9D11D
:10517000146815199D420AD11B682344D018814236
:10518000136013D10868034413604B680DE002D923
:105190000C23036030BD18681C18A14204BF0C68C2
:1051A0004968596004BF00191860536030BD00BFE2
:1051B000982E002070B5CD1C25F0030508350C2D68
:1051C00038BF0C25002D064603DA0C23336000207F
:1051D00070BDA942F9D81F4B1C681A462146A1B1DF
:1051E0000B685B1B0ED40B2B03D90B60CC18CD5076
:1051F0001EE08C420DBF63684B686360136018BF8C
:105200000C4615E00C464968E9E7134C23681BB9C6
:10521000304601F043F920602946304601F03EF95E
:10522000431CD2D0C41C24F00304A0420AD1256040
:1052300004F10B00231D20F00700C31A09D05A42C5
:10524000E25070BD211A304601F028F90130EED14C
:10525000BBE770BD982E0020942E00209368013B80
:10526000002B10B4936009DA9469A34202DBCBB23D
:105270000A2B03D15DF8044B03F05CB91368581C8A
:1052800010601970C8B25DF8044B7047F8B5064657
:105290000F461446D518AC4208D03A4614F8011B04
:1052A0003046FFF7DBFF431CF5D100E00020F8BDDE
:1052B0002DE9F04F9DB00C4617460393064618B1F2
:1052C00083690BB9FFF780F97F4B9C4201D1746869
:1052D00008E07E4B9C4201D1B46803E07C4B9C42C9
:1052E00008BFF468A38918070CD5236953B10023BC
:1052F000099320238DF8293030238DF82A30DFF8E8
:10530000D4B144E02146304603F07AF90028EED0CB
:105310004FF0FF30D5E0039A111D12680391002A67
:1053200080F28C80524243F002000792049098F879
:1053300000302E2B00F08480032298F8001065487E
:10534000FFF726FC48B14023CBEB000003FA00F046
:10535000049B1843049008F1010898F800105E4877
:105360008DF82810062208F10107FFF711FC00282C
:1053700000F09580594B002B40F08880039B073349
:1053800023F0070308330393099B53440993B8465A
:10539000454615F8013B1BB9B8EB07090FD003E0F0
:1053A000252BF9D0A846F3E74B463A46214630462E
:1053B000FFF76CFF01307FD0099B4B44099398F8AD
:1053C0000030002B78D000234FF0FF320493079376
:1053D000059206938DF853301A93012705222978F8
:1053E0003F48FFF7D5FB05F10108049B38B13C4A63
:1053F000801A07FA00F0184304904546EEE7D906F4
:1054000044BF20228DF853201A0744BF2B228DF869
:1054100053202A782A2A3FF47EAF079A00210A20D7
:10542000A846013598F80030303B092B03D800FB23
:1054300002320121F4E700293FF479AF079276E7C1
:1054400098F801302A2B0BD1039B1A1D1B6803927D
:10545000002BB8BF4FF0FF3308F1020805936BE74C
:105460000023059308F1010019460A258046013002
:1054700098F80020303A092A03D805FB01210123BE
:10548000F4E7002B3FF458AF059155E703AB0093C9
:105490002246144B04A9304600F0C2F807E003ABE3
:1054A000009322460F4B04A9304600F065FBB0F193
:1054B000FF3F82467FF468AFA3895B063FF528AFC4
:1054C00009981DB0BDE8F08FF8B8000818B90008B9
:1054D00038B9000826BA00082ABA00082156000880
:1054E00020BA00088D52000813460A4601460248B9
:1054F0000068FFF7DDBE00BF480200202DE9F0473D
:1055000088B0002B149F1299109EDDF84CA01D4608
:1055100027F02007BBBF03F100431D4600232D23C6
:105520001446B8BF1446462F0B7003D0452F03D145
:10553000013601E0032300E0022307AA049206AA31
:1055400003928DE8480422462B4603F07DF9472F4D
:10555000804602D1119BDB0728D5462F08EB0609B0
:1055600011D198F80030302B0AD1002200232046B8
:10557000294605F005FF18B9C6F10106CAF8006012
:10558000DAF800309944002200232046294605F02D
:10559000F7FE08B9302202E0CDF81C9006E0079B28
:1055A000994503D9591C07911A70F8E7079B159A7A
:1055B000C8EB03034046136008B0BDE8F08773B53D
:1055C00003460029B8BF494203F8022BB4BF2D227D
:1055D0002B220929427019DD0DF1070216460A2512
:1055E00091FBF5F405FB14113031092C02F8011D73
:1055F0002146F5DC3031541E02F8011CB4421A4633
:105600000AD214F8012B03F8012BF7E730241A46CD
:10561000214402F8024B5970101A02B070BD00000C
:105620002DE9F04F8FB00C4616461F46DDF860801E
:10563000054604F001FBD0F800B0584601F0B6FD75
:1056400000230C93D8F800300890073323F00703A9
:1056500003F1080294F81890C8F80020D3E9002359
:10566000C4E91223D4E9120100F0EEFE012819D199
:1056700000220023D4E9120105F08CFE10B12D2385
:1056800084F843309A4B9B4AB9F1470F8CBF904640
:10569000984603232361236823F0040323604FF01B
:1056A000000A93E0D4E9120100F0CEFE236848B965
:1056B000914A9249B9F1470F8CBF88469046032220
:1056C0002261E9E7D4F804E0BEF1FF3FD4E912011A
:1056D00001D106220AE0B9F1670F02D0B9F1470FF4
:1056E00005D1BEF1000F40F0B681012262600022B8
:1056F00006920CAA43F4806305920BAA23600392DE
:1057000001930DF12B0263680292009302460B464F
:10571000CDF810902846FFF7F1FE09F0DF03472B84
:10572000804609D10B9BD81C02DB6268934230DDB6
:10573000A9F102095FFA89F9B9F1650F0B9912D83D
:1057400001394A4604F150000B91FFF738FF0C9ADB
:105750008318012A8246236102DC2268D1072FD5F3
:10576000013323612CE0B9F1660F14D1002963687D
:1057700007DD216113B92268D2071DD501330B441F
:1057800019E013B92268D00701D5023313E00123D1
:1057900011E04FF067090B9B0C9A934205DB2268DE
:1057A0002361D10708D5013305E0002BD4BFC3F135
:1057B00002030123134423610B9BA3654FF0000AEE
:1057C0009DF82B3013B12D2384F8433000973346D6
:1057D0000DAA2146284600F059F9013002D14FF0B8
:1057E000FF3050E123685A0501D4236965E0B9F11F
:1057F000650F40F2D58000220023D4E9120105F0A4
:10580000BFFD78B301233E4A31462846B8470130F0
:10581000E5D00C9B0B9A9A420BDB2368D80708D47F
:1058200023689B0740F111814FF0000804F119092A
:1058300006E1089B5A4631462846B8470130CED08B
:105840004FF0000804F11A090C9B013B9845E7DA78
:1058500001234A4631462846B8470130BFD008F1F7
:105860000108F1E70B9B002B29DC0123244A314678
:105870002846B8470130B2D00B9B23B90C9B13B913
:105880002368D907CCD5089B5A4631462846B847E5
:105890000130A4D04FF0000904F11A0A0B9B5B42BF
:1058A000994509DA0123524631462846B847013066
:1058B00095D009F10109F1E70C9B4246A7E00C9A4B
:1058C000A36D9A42A8BF1A46002A914607DC04F14C
:1058D0001A034FF0000A29EAE97909931CE01346FC
:1058E000314642462846B8470130F0D177E700BF3D
:1058F00031BA000835BA000839BA00083DBA0008C4
:105900008ABA00080123099A31462846B84701306F
:105910003FF465AF0AF1010AA36DC9EB030292459A
:10592000F0DB08EB03090B9A0C9B9A420FDB236810
:10593000DA070CD40C9B0B9A9844C9EB08089B1A05
:105940009845A8BF9846B8F1000F08DC0FE0089B07
:105950005A4631462846B8470130EBD13FE7434627
:105960004A4631462846B84701303FF438AF4FF039
:10597000000928EAE87804F11A0A09E001235246EE
:1059800031462846B84701303FF429AF09F10109F3
:105990000B9A0C9B9B1AC8EB03039945EEDB3FE780
:1059A0000C9A012A01DCDB0738D501234246314637
:1059B0002846B84701303FF412AF089B5A4631469B
:1059C0002846B84701303FF40AAF00220023D4E94B
:1059D000120105F0D5FC20B14FF0000804F11A09BE
:1059E0000EE00C9B08F10102013B19E001234A463D
:1059F00031462846B84701303FF4F1AE08F10108BE
:105A00000C9B013B9845F1DB534604F150023146B3
:105A10002846B84701307FF403AFE0E60123424651
:105A200031462846B8470130EED1D8E601234A4630
:105A300031462846B84701303FF4D1AE08F101089D
:105A4000E3680D9A9B1A9845F0DBE0680D9B98423D
:105A5000B8BF184617E0002206920CAA05920BAABE
:105A600043F4806303920DF12B02236002920193B1
:105A70000246CDF81090CDF800E00B462846FFF71F
:105A80003DFD80464EE60FB0BDE8F08F2DE9F047B2
:105A900091461F460A698B68DDF820809342B8BFA3
:105AA0001346C9F8003091F8432006460C4612B15F
:105AB0000133C9F800302368990642BFD9F8003095
:105AC0000233C9F80030256815F0060510D104F13D
:105AD000190A07E00123524639463046C0470130D3
